{
  "address": "0xcb0A9835CDf63c84FE80Fcc59d91d7505871c98B",
  "abi": [
    {
      "inputs": [],
      "name": "InvalidPurchaseOperation",
      "type": "error"
    },
    {
      "anonymous": false,
      "inputs": [
        {
          "indexed": true,
          "internalType": "address",
          "name": "account",
          "type": "address"
        },
        {
          "indexed": true,
          "internalType": "address",
          "name": "operator",
          "type": "address"
        },
        {
          "indexed": false,
          "internalType": "bool",
          "name": "approved",
          "type": "bool"
        }
      ],
      "name": "ApprovalForAll",
      "type": "event"
    },
    {
      "anonymous": false,
      "inputs": [
        {
          "indexed": true,
          "internalType": "address",
          "name": "operator",
          "type": "address"
        },
        {
          "indexed": false,
          "internalType": "uint256",
          "name": "cid",
          "type": "uint256"
        },
        {
          "indexed": false,
          "internalType": "uint256",
          "name": "approved",
          "type": "uint256"
        }
      ],
      "name": "ApprovalForCID",
      "type": "event"
    },
    {
      "anonymous": false,
      "inputs": [
        {
          "indexed": true,
          "internalType": "bytes32",
          "name": "role",
          "type": "bytes32"
        },
        {
          "indexed": true,
          "internalType": "bytes32",
          "name": "previousAdminRole",
          "type": "bytes32"
        },
        {
          "indexed": true,
          "internalType": "bytes32",
          "name": "newAdminRole",
          "type": "bytes32"
        }
      ],
      "name": "RoleAdminChanged",
      "type": "event"
    },
    {
      "anonymous": false,
      "inputs": [
        {
          "indexed": true,
          "internalType": "bytes32",
          "name": "role",
          "type": "bytes32"
        },
        {
          "indexed": true,
          "internalType": "address",
          "name": "account",
          "type": "address"
        },
        {
          "indexed": true,
          "internalType": "address",
          "name": "sender",
          "type": "address"
        }
      ],
      "name": "RoleGranted",
      "type": "event"
    },
    {
      "anonymous": false,
      "inputs": [
        {
          "indexed": true,
          "internalType": "bytes32",
          "name": "role",
          "type": "bytes32"
        },
        {
          "indexed": true,
          "internalType": "address",
          "name": "account",
          "type": "address"
        },
        {
          "indexed": true,
          "internalType": "address",
          "name": "sender",
          "type": "address"
        }
      ],
      "name": "RoleRevoked",
      "type": "event"
    },
    {
      "anonymous": false,
      "inputs": [
        {
          "indexed": true,
          "internalType": "address",
          "name": "operator",
          "type": "address"
        },
        {
          "indexed": true,
          "internalType": "address",
          "name": "from",
          "type": "address"
        },
        {
          "indexed": true,
          "internalType": "address",
          "name": "to",
          "type": "address"
        },
        {
          "indexed": false,
          "internalType": "uint256[]",
          "name": "ids",
          "type": "uint256[]"
        },
        {
          "indexed": false,
          "internalType": "uint256[]",
          "name": "values",
          "type": "uint256[]"
        }
      ],
      "name": "TransferBatch",
      "type": "event"
    },
    {
      "anonymous": false,
      "inputs": [
        {
          "indexed": true,
          "internalType": "address",
          "name": "operator",
          "type": "address"
        },
        {
          "indexed": true,
          "internalType": "address",
          "name": "from",
          "type": "address"
        },
        {
          "indexed": true,
          "internalType": "address",
          "name": "to",
          "type": "address"
        },
        {
          "indexed": false,
          "internalType": "uint256",
          "name": "id",
          "type": "uint256"
        },
        {
          "indexed": false,
          "internalType": "uint256",
          "name": "value",
          "type": "uint256"
        }
      ],
      "name": "TransferSingle",
      "type": "event"
    },
    {
      "anonymous": false,
      "inputs": [
        {
          "indexed": false,
          "internalType": "string",
          "name": "value",
          "type": "string"
        },
        {
          "indexed": true,
          "internalType": "uint256",
          "name": "id",
          "type": "uint256"
        }
      ],
      "name": "URI",
      "type": "event"
    },
    {
      "inputs": [],
      "name": "DEFAULT_ADMIN_ROLE",
      "outputs": [
        {
          "internalType": "bytes32",
          "name": "",
          "type": "bytes32"
        }
      ],
      "stateMutability": "view",
      "type": "function"
    },
    {
      "inputs": [],
      "name": "NFT_MINTER_ROLE",
      "outputs": [
        {
          "internalType": "bytes32",
          "name": "",
          "type": "bytes32"
        }
      ],
      "stateMutability": "view",
      "type": "function"
    },
    {
      "inputs": [
        {
          "internalType": "address",
          "name": "account",
          "type": "address"
        },
        {
          "internalType": "uint256",
          "name": "id",
          "type": "uint256"
        }
      ],
      "name": "balanceOf",
      "outputs": [
        {
          "internalType": "uint256",
          "name": "",
          "type": "uint256"
        }
      ],
      "stateMutability": "view",
      "type": "function"
    },
    {
      "inputs": [
        {
          "internalType": "address[]",
          "name": "accounts",
          "type": "address[]"
        },
        {
          "internalType": "uint256[]",
          "name": "ids",
          "type": "uint256[]"
        }
      ],
      "name": "balanceOfBatch",
      "outputs": [
        {
          "internalType": "uint256[]",
          "name": "",
          "type": "uint256[]"
        }
      ],
      "stateMutability": "view",
      "type": "function"
    },
    {
      "inputs": [
        {
          "internalType": "address",
          "name": "account",
          "type": "address"
        },
        {
          "internalType": "uint256",
          "name": "cid",
          "type": "uint256"
        }
      ],
      "name": "burn",
      "outputs": [],
      "stateMutability": "nonpayable",
      "type": "function"
    },
    {
      "inputs": [
        {
          "internalType": "address",
          "name": "account",
          "type": "address"
        },
        {
          "internalType": "uint256[]",
          "name": "ids",
          "type": "uint256[]"
        },
        {
          "internalType": "uint256[]",
          "name": "amounts",
          "type": "uint256[]"
        }
      ],
      "name": "burnBatch",
      "outputs": [],
      "stateMutability": "nonpayable",
      "type": "function"
    },
    {
      "inputs": [
        {
          "internalType": "bytes32",
          "name": "role",
          "type": "bytes32"
        }
      ],
      "name": "getRoleAdmin",
      "outputs": [
        {
          "internalType": "bytes32",
          "name": "",
          "type": "bytes32"
        }
      ],
      "stateMutability": "view",
      "type": "function"
    },
    {
      "inputs": [
        {
          "internalType": "bytes32",
          "name": "role",
          "type": "bytes32"
        },
        {
          "internalType": "address",
          "name": "account",
          "type": "address"
        }
      ],
      "name": "grantRole",
      "outputs": [],
      "stateMutability": "nonpayable",
      "type": "function"
    },
    {
      "inputs": [
        {
          "internalType": "bytes32",
          "name": "role",
          "type": "bytes32"
        },
        {
          "internalType": "address",
          "name": "account",
          "type": "address"
        }
      ],
      "name": "hasRole",
      "outputs": [
        {
          "internalType": "bool",
          "name": "",
          "type": "bool"
        }
      ],
      "stateMutability": "view",
      "type": "function"
    },
    {
      "inputs": [
        {
          "internalType": "uint256",
          "name": "cid",
          "type": "uint256"
        }
      ],
      "name": "holderOf",
      "outputs": [
        {
          "internalType": "address",
          "name": "",
          "type": "address"
        }
      ],
      "stateMutability": "view",
      "type": "function"
    },
    {
      "inputs": [],
      "name": "initialize",
      "outputs": [],
      "stateMutability": "nonpayable",
      "type": "function"
    },
    {
      "inputs": [
        {
          "internalType": "address",
          "name": "operator",
          "type": "address"
        },
        {
          "internalType": "uint256",
          "name": "cid",
          "type": "uint256"
        }
      ],
      "name": "isApprovedFor",
      "outputs": [
        {
          "internalType": "bool",
          "name": "",
          "type": "bool"
        }
      ],
      "stateMutability": "view",
      "type": "function"
    },
    {
      "inputs": [
        {
          "internalType": "address",
          "name": "account",
          "type": "address"
        },
        {
          "internalType": "address",
          "name": "operator",
          "type": "address"
        }
      ],
      "name": "isApprovedForAll",
      "outputs": [
        {
          "internalType": "bool",
          "name": "",
          "type": "bool"
        }
      ],
      "stateMutability": "view",
      "type": "function"
    },
    {
      "inputs": [
        {
          "internalType": "uint256",
          "name": "cid",
          "type": "uint256"
        },
        {
          "internalType": "address",
          "name": "owner",
          "type": "address"
        }
      ],
      "name": "lazyMintPurchase",
      "outputs": [],
      "stateMutability": "payable",
      "type": "function"
    },
    {
      "inputs": [
        {
          "internalType": "address",
          "name": "account",
          "type": "address"
        },
        {
          "internalType": "uint256",
          "name": "cid",
          "type": "uint256"
        }
      ],
      "name": "mint",
      "outputs": [],
      "stateMutability": "nonpayable",
      "type": "function"
    },
    {
      "inputs": [
        {
          "internalType": "address",
          "name": "to",
          "type": "address"
        },
        {
          "internalType": "uint256[]",
          "name": "cids",
          "type": "uint256[]"
        }
      ],
      "name": "mintBatch",
      "outputs": [],
      "stateMutability": "nonpayable",
      "type": "function"
    },
    {
      "inputs": [
        {
          "internalType": "bytes32",
          "name": "role",
          "type": "bytes32"
        },
        {
          "internalType": "address",
          "name": "account",
          "type": "address"
        }
      ],
      "name": "renounceRole",
      "outputs": [],
      "stateMutability": "nonpayable",
      "type": "function"
    },
    {
      "inputs": [
        {
          "internalType": "bytes32",
          "name": "role",
          "type": "bytes32"
        },
        {
          "internalType": "address",
          "name": "account",
          "type": "address"
        }
      ],
      "name": "revokeRole",
      "outputs": [],
      "stateMutability": "nonpayable",
      "type": "function"
    },
    {
      "inputs": [
        {
          "internalType": "address",
          "name": "from",
          "type": "address"
        },
        {
          "internalType": "address",
          "name": "to",
          "type": "address"
        },
        {
          "internalType": "uint256[]",
          "name": "ids",
          "type": "uint256[]"
        },
        {
          "internalType": "uint256[]",
          "name": "amounts",
          "type": "uint256[]"
        },
        {
          "internalType": "bytes",
          "name": "data",
          "type": "bytes"
        }
      ],
      "name": "safeBatchTransferFrom",
      "outputs": [],
      "stateMutability": "nonpayable",
      "type": "function"
    },
    {
      "inputs": [
        {
          "internalType": "uint256",
          "name": "cid",
          "type": "uint256"
        }
      ],
      "name": "safePurchase",
      "outputs": [],
      "stateMutability": "payable",
      "type": "function"
    },
    {
      "inputs": [
        {
          "internalType": "address",
          "name": "from",
          "type": "address"
        },
        {
          "internalType": "address",
          "name": "to",
          "type": "address"
        },
        {
          "internalType": "uint256",
          "name": "id",
          "type": "uint256"
        },
        {
          "internalType": "uint256",
          "name": "amount",
          "type": "uint256"
        },
        {
          "internalType": "bytes",
          "name": "data",
          "type": "bytes"
        }
      ],
      "name": "safeTransferFrom",
      "outputs": [],
      "stateMutability": "nonpayable",
      "type": "function"
    },
    {
      "inputs": [
        {
          "internalType": "address",
          "name": "operator",
          "type": "address"
        },
        {
          "internalType": "uint256",
          "name": "cid",
          "type": "uint256"
        },
        {
          "internalType": "uint256",
          "name": "approved",
          "type": "uint256"
        }
      ],
      "name": "setApprovalFor",
      "outputs": [],
      "stateMutability": "nonpayable",
      "type": "function"
    },
    {
      "inputs": [
        {
          "internalType": "address",
          "name": "operator",
          "type": "address"
        },
        {
          "internalType": "bool",
          "name": "approved",
          "type": "bool"
        }
      ],
      "name": "setApprovalForAll",
      "outputs": [],
      "stateMutability": "nonpayable",
      "type": "function"
    },
    {
      "inputs": [
        {
          "internalType": "string",
          "name": "newuri",
          "type": "string"
        }
      ],
      "name": "setURI",
      "outputs": [],
      "stateMutability": "nonpayable",
      "type": "function"
    },
    {
      "inputs": [
        {
          "internalType": "bytes4",
          "name": "interfaceId",
          "type": "bytes4"
        }
      ],
      "name": "supportsInterface",
      "outputs": [
        {
          "internalType": "bool",
          "name": "",
          "type": "bool"
        }
      ],
      "stateMutability": "view",
      "type": "function"
    },
    {
      "inputs": [
        {
          "internalType": "address",
          "name": "from",
          "type": "address"
        },
        {
          "internalType": "address",
          "name": "to",
          "type": "address"
        },
        {
          "internalType": "uint256",
          "name": "cid",
          "type": "uint256"
        }
      ],
      "name": "transfer",
      "outputs": [],
      "stateMutability": "nonpayable",
      "type": "function"
    },
    {
      "inputs": [],
      "name": "upgrade",
      "outputs": [],
      "stateMutability": "nonpayable",
      "type": "function"
    },
    {
      "inputs": [
        {
          "internalType": "uint256",
          "name": "_tokenId",
          "type": "uint256"
        }
      ],
      "name": "uri",
      "outputs": [
        {
          "internalType": "string",
          "name": "",
          "type": "string"
        }
      ],
      "stateMutability": "view",
      "type": "function"
    },
    {
      "inputs": [],
      "name": "version",
      "outputs": [
        {
          "internalType": "uint32",
          "name": "",
          "type": "uint32"
        }
      ],
      "stateMutability": "view",
      "type": "function"
    }
  ],
  "transactionHash": "0x50fbac15e061b2debc0d88bce56f88ace0e227e94911df3eb32b101f7d9af53e",
  "args": [],
  "numDeployments": 2,
  "solcInputHash": "5e1686a1f28503cf6e6bf031565659a3",
  "bytecode": "0x608060405234801561001057600080fd5b50615fc080620000216000396000f3fe6080604052600436106101c15760003560e01c8063738f5469116100f7578063ba3dad8411610095578063d55ec69711610064578063d55ec6971461062d578063dbacc23714610644578063e985e9c514610681578063f242432a146106be576101c1565b8063ba3dad8414610587578063beabacc8146105b0578063c0833ee4146105d9578063d547741f14610604576101c1565b806391d14854116100d157806391d14854146104cd5780639dc29fac1461050a578063a217fddf14610533578063a22cb4651461055e576101c1565b8063738f54691461047157806375ceb3411461048d5780638129fc1c146104b6576101c1565b806336568abe116101645780634e1273f41161013e5780634e1273f4146103c457806354fd4d50146104015780636b20c4541461042c5780636c68a22314610455576101c1565b806336568abe14610335578063390ff1341461035e57806340c10f191461039b576101c1565b80630e89341c116101a05780630e89341c14610269578063248a9ca3146102a65780632eb2c2d6146102e35780632f2ff15d1461030c576101c1565b8062fdd58e146101c657806301ffc9a71461020357806302fe530514610240575b600080fd5b3480156101d257600080fd5b506101ed60048036038101906101e891906142bb565b6106e7565b6040516101fa9190615106565b60405180910390f35b34801561020f57600080fd5b5061022a60048036038101906102259190614433565b6107b1565b6040516102379190614d0e565b60405180910390f35b34801561024c57600080fd5b506102676004803603810190610262919061448d565b6107c3565b005b34801561027557600080fd5b50610290600480360381019061028b91906144d6565b61081b565b60405161029d9190614d44565b60405180910390f35b3480156102b257600080fd5b506102cd60048036038101906102c891906143c6565b610851565b6040516102da9190614d29565b60405180910390f35b3480156102ef57600080fd5b5061030a60048036038101906103059190613fdb565b610871565b005b34801561031857600080fd5b50610333600480360381019061032e91906143f3565b610912565b005b34801561034157600080fd5b5061035c600480360381019061035791906143f3565b61093b565b005b34801561036a57600080fd5b50610385600480360381019061038091906142bb565b6109be565b6040516103929190614d0e565b60405180910390f35b3480156103a757600080fd5b506103c260048036038101906103bd91906142bb565b610a1c565b005b3480156103d057600080fd5b506103eb60048036038101906103e6919061434e565b610b9c565b6040516103f89190614cb5565b60405180910390f35b34801561040d57600080fd5b50610416610cb5565b604051610423919061514a565b60405180910390f35b34801561043857600080fd5b50610453600480360381019061044e91906141f0565b610ccb565b005b61046f600480360381019061046a9190614503565b610d27565b005b61048b600480360381019061048691906144d6565b611046565b005b34801561049957600080fd5b506104b460048036038101906104af9190614194565b61146e565b005b3480156104c257600080fd5b506104cb61173a565b005b3480156104d957600080fd5b506104f460048036038101906104ef91906143f3565b611893565b6040516105019190614d0e565b60405180910390f35b34801561051657600080fd5b50610531600480360381019061052c91906142bb565b6118fe565b005b34801561053f57600080fd5b506105486119b0565b6040516105559190614d29565b60405180910390f35b34801561056a57600080fd5b506105856004803603810190610580919061427b565b6119b7565b005b34801561059357600080fd5b506105ae60048036038101906105a991906142fb565b6119cd565b005b3480156105bc57600080fd5b506105d760048036038101906105d291906140aa565b611bff565b005b3480156105e557600080fd5b506105ee611c9c565b6040516105fb9190614d29565b60405180910390f35b34801561061057600080fd5b5061062b600480360381019061062691906143f3565b611cc0565b005b34801561063957600080fd5b50610642611ce9565b005b34801561065057600080fd5b5061066b600480360381019061066691906144d6565b611d78565b6040516106789190614bd8565b60405180910390f35b34801561068d57600080fd5b506106a860048036038101906106a39190613f9b565b611db5565b6040516106b59190614d0e565b60405180910390f35b3480156106ca57600080fd5b506106e560048036038101906106e091906140fd565b611e49565b005b60008073ffffffffffffffffffffffffffffffffffffffff168373ffffffffffffffffffffffffffffffffffffffff161415610758576040517f08c379a000000000000000000000000000000000000000000000000000000000815260040161074f90614de6565b60405180910390fd5b6065600083815260200190815260200160002060008473ffffffffffffffffffffffffffffffffffffffff1673ffffffffffffffffffffffffffffffffffffffff16815260200190815260200160002054905092915050565b60006107bc82611eea565b9050919050565b6107d06000801b33611893565b61080f576040517f08c379a000000000000000000000000000000000000000000000000000000000815260040161080690614ea6565b60405180910390fd5b61081881611f64565b50565b60608061082783611f7e565b90508060405160200161083a9190614b5c565b604051602081830303815290604052915050919050565b600060976000838152602001908152602001600020600101549050919050565b6108796120f3565b73ffffffffffffffffffffffffffffffffffffffff168573ffffffffffffffffffffffffffffffffffffffff1614806108bf57506108be856108b96120f3565b611db5565b5b6108fe576040517f08c379a00000000000000000000000000000000000000000000000000000000081526004016108f590614ee6565b60405180910390fd5b61090b85858585856120fb565b5050505050565b61091b82610851565b61092c816109276120f3565b612412565b61093683836124af565b505050565b6109436120f3565b73ffffffffffffffffffffffffffffffffffffffff168173ffffffffffffffffffffffffffffffffffffffff16146109b0576040517f08c379a00000000000000000000000000000000000000000000000000000000081526004016109a7906150e6565b60405180910390fd5b6109ba8282612590565b5050565b60008060c9600084815260200190815260200160002060008573ffffffffffffffffffffffffffffffffffffffff1673ffffffffffffffffffffffffffffffffffffffff168152602001908152602001600020541415905092915050565b600073ffffffffffffffffffffffffffffffffffffffff1660ca600083815260200190815260200160002060009054906101000a900473ffffffffffffffffffffffffffffffffffffffff1673ffffffffffffffffffffffffffffffffffffffff1614610abe576040517f08c379a0000000000000000000000000000000000000000000000000000000008152600401610ab590614dc6565b60405180910390fd5b610ae87f3a5b873628a2c49bf313473942acc8932f6f84c76b74bf3db0e4d8b51277a62333611893565b610b27576040517f08c379a0000000000000000000000000000000000000000000000000000000008152600401610b1e90615026565b60405180910390fd5b8160ca600083815260200190815260200160002060006101000a81548173ffffffffffffffffffffffffffffffffffffffff021916908373ffffffffffffffffffffffffffffffffffffffff160217905550610b988282600160ff1660405180602001604052806000815250612672565b5050565b60608151835114610be2576040517f08c379a0000000000000000000000000000000000000000000000000000000008152600401610bd990615086565b60405180910390fd5b6000835167ffffffffffffffff811115610bff57610bfe6155db565b5b604051908082528060200260200182016040528015610c2d5781602001602082028036833780820191505090505b50905060005b8451811015610caa57610c7a858281518110610c5257610c516155ac565b5b6020026020010151858381518110610c6d57610c6c6155ac565b5b60200260200101516106e7565b828281518110610c8d57610c8c6155ac565b5b60200260200101818152505080610ca3906154d8565b9050610c33565b508091505092915050565b60cb60009054906101000a900463ffffffff1681565b610cd86000801b33611893565b610d17576040517f08c379a0000000000000000000000000000000000000000000000000000000008152600401610d0e90614f66565b60405180910390fd5b610d22838383612809565b505050565b600073ffffffffffffffffffffffffffffffffffffffff1660ca600084815260200190815260200160002060009054906101000a900473ffffffffffffffffffffffffffffffffffffffff1673ffffffffffffffffffffffffffffffffffffffff1614610dc9576040517f08c379a0000000000000000000000000000000000000000000000000000000008152600401610dc090614e46565b60405180910390fd5b610dd333836109be565b610e12576040517f08c379a0000000000000000000000000000000000000000000000000000000008152600401610e0990614fe6565b60405180910390fd5b60c9600083815260200190815260200160002060003373ffffffffffffffffffffffffffffffffffffffff1673ffffffffffffffffffffffffffffffffffffffff168152602001908152602001600020543414610ea4576040517f08c379a0000000000000000000000000000000000000000000000000000000008152600401610e9b90614f86565b60405180910390fd5b600081905060008173ffffffffffffffffffffffffffffffffffffffff1634604051610ecf90614b89565b60006040518083038185875af1925050503d8060008114610f0c576040519150601f19603f3d011682016040523d82523d6000602084013e610f11565b606091505b5050905080610f55576040517f08c379a0000000000000000000000000000000000000000000000000000000008152600401610f4c90614fc6565b60405180910390fd5b610f9a3385600160ff166040518060400160405280600381526020017f3078300000000000000000000000000000000000000000000000000000000000815250612672565b60c9600085815260200190815260200160002060003373ffffffffffffffffffffffffffffffffffffffff1673ffffffffffffffffffffffffffffffffffffffff168152602001908152602001600020600090553360ca600086815260200190815260200160002060006101000a81548173ffffffffffffffffffffffffffffffffffffffff021916908373ffffffffffffffffffffffffffffffffffffffff16021790555050505050565b600073ffffffffffffffffffffffffffffffffffffffff1660ca600083815260200190815260200160002060009054906101000a900473ffffffffffffffffffffffffffffffffffffffff1673ffffffffffffffffffffffffffffffffffffffff1614156110e9576040517f08c379a00000000000000000000000000000000000000000000000000000000081526004016110e090614e86565b60405180910390fd5b3373ffffffffffffffffffffffffffffffffffffffff1660ca600083815260200190815260200160002060009054906101000a900473ffffffffffffffffffffffffffffffffffffffff1673ffffffffffffffffffffffffffffffffffffffff16141561118b576040517f08c379a000000000000000000000000000000000000000000000000000000000815260040161118290614e06565b60405180910390fd5b61119533826109be565b6111d4576040517f08c379a00000000000000000000000000000000000000000000000000000000081526004016111cb90614fe6565b60405180910390fd5b60c9600082815260200190815260200160002060003373ffffffffffffffffffffffffffffffffffffffff1673ffffffffffffffffffffffffffffffffffffffff168152602001908152602001600020543414611266576040517f08c379a000000000000000000000000000000000000000000000000000000000815260040161125d90614f86565b60405180910390fd5b600060ca600083815260200190815260200160002060009054906101000a900473ffffffffffffffffffffffffffffffffffffffff16905060008173ffffffffffffffffffffffffffffffffffffffff16346040516112c490614b89565b60006040518083038185875af1925050503d8060008114611301576040519150601f19603f3d011682016040523d82523d6000602084013e611306565b606091505b505090508061134a576040517f08c379a000000000000000000000000000000000000000000000000000000000815260040161134190614fc6565b60405180910390fd5b6113c360ca600085815260200190815260200160002060009054906101000a900473ffffffffffffffffffffffffffffffffffffffff163385600160ff166040518060400160405280600381526020017f3078300000000000000000000000000000000000000000000000000000000000815250612abc565b60c9600084815260200190815260200160002060003373ffffffffffffffffffffffffffffffffffffffff1673ffffffffffffffffffffffffffffffffffffffff168152602001908152602001600020600090553360ca600085815260200190815260200160002060006101000a81548173ffffffffffffffffffffffffffffffffffffffff021916908373ffffffffffffffffffffffffffffffffffffffff160217905550505050565b6114987f3a5b873628a2c49bf313473942acc8932f6f84c76b74bf3db0e4d8b51277a62333611893565b6114d7576040517f08c379a00000000000000000000000000000000000000000000000000000000081526004016114ce90615026565b60405180910390fd5b6000815167ffffffffffffffff8111156114f4576114f36155db565b5b6040519080825280602002602001820160405280156115225781602001602082028036833780820191505090505b5090506000825167ffffffffffffffff811115611542576115416155db565b5b6040519080825280602002602001820160405280156115705781602001602082028036833780820191505090505b50905060005b835181101561171857600073ffffffffffffffffffffffffffffffffffffffff1660ca60008684815181106115ae576115ad6155ac565b5b6020026020010151815260200190815260200160002060009054906101000a900473ffffffffffffffffffffffffffffffffffffffff1673ffffffffffffffffffffffffffffffffffffffff161461163b576040517f08c379a000000000000000000000000000000000000000000000000000000000815260040161163290614dc6565b60405180910390fd5b83818151811061164e5761164d6155ac565b5b6020026020010151838281518110611669576116686155ac565b5b6020026020010181815250508460ca600085848151811061168d5761168c6155ac565b5b6020026020010151815260200190815260200160002060006101000a81548173ffffffffffffffffffffffffffffffffffffffff021916908373ffffffffffffffffffffffffffffffffffffffff160217905550600160ff168282815181106116f9576116f86155ac565b5b6020026020010181815250508080611710906154d8565b915050611576565b5061173484838360405180602001604052806000815250612d41565b50505050565b600060019054906101000a900460ff166117625760008054906101000a900460ff161561176b565b61176a612f60565b5b6117aa576040517f08c379a00000000000000000000000000000000000000000000000000000000081526004016117a190614f06565b60405180910390fd5b60008060019054906101000a900460ff1615905080156117fa576001600060016101000a81548160ff02191690831515021790555060016000806101000a81548160ff0219169083151502179055505b6118386040518060400160405280601881526020017f697066733a2f2f66307b69647d2f696e6465782e6a736f6e0000000000000000815250612f71565b6118456000801b33612fdc565b61186f7f3a5b873628a2c49bf313473942acc8932f6f84c76b74bf3db0e4d8b51277a62333612fdc565b80156118905760008060016101000a81548160ff0219169083151502179055505b50565b60006097600084815260200190815260200160002060000160008373ffffffffffffffffffffffffffffffffffffffff1673ffffffffffffffffffffffffffffffffffffffff16815260200190815260200160002060009054906101000a900460ff16905092915050565b61190b6000801b33611893565b61194a576040517f08c379a000000000000000000000000000000000000000000000000000000000815260040161194190614f66565b60405180910390fd5b6119598282600160ff16612fea565b600060ca600083815260200190815260200160002060006101000a81548173ffffffffffffffffffffffffffffffffffffffff021916908373ffffffffffffffffffffffffffffffffffffffff1602179055505050565b6000801b81565b6119c96119c26120f3565b8383613209565b5050565b8273ffffffffffffffffffffffffffffffffffffffff166119ec6120f3565b73ffffffffffffffffffffffffffffffffffffffff161415611a43576040517f08c379a0000000000000000000000000000000000000000000000000000000008152600401611a3a90615046565b60405180910390fd5b60ca600083815260200190815260200160002060009054906101000a900473ffffffffffffffffffffffffffffffffffffffff1673ffffffffffffffffffffffffffffffffffffffff16611a956120f3565b73ffffffffffffffffffffffffffffffffffffffff161480611b165750600073ffffffffffffffffffffffffffffffffffffffff1660ca600084815260200190815260200160002060009054906101000a900473ffffffffffffffffffffffffffffffffffffffff1673ffffffffffffffffffffffffffffffffffffffff16145b611b55576040517f08c379a0000000000000000000000000000000000000000000000000000000008152600401611b4c90614fa6565b60405180910390fd5b8060c9600084815260200190815260200160002060008573ffffffffffffffffffffffffffffffffffffffff1673ffffffffffffffffffffffffffffffffffffffff168152602001908152602001600020819055508273ffffffffffffffffffffffffffffffffffffffff167f0a5d49223cdca66ecee577e644907f9d77e9f5c6743247ebddd0c002ba8083b28383604051611bf2929190615121565b60405180910390a2505050565b611c45838383600160ff166040518060400160405280600381526020017f3078300000000000000000000000000000000000000000000000000000000000815250611e49565b8160ca600083815260200190815260200160002060006101000a81548173ffffffffffffffffffffffffffffffffffffffff021916908373ffffffffffffffffffffffffffffffffffffffff160217905550505050565b7f3a5b873628a2c49bf313473942acc8932f6f84c76b74bf3db0e4d8b51277a62381565b611cc982610851565b611cda81611cd56120f3565b612412565b611ce48383612590565b505050565b611cf66000801b33611893565b611d35576040517f08c379a0000000000000000000000000000000000000000000000000000000008152600401611d2c90615066565b60405180910390fd5b60cb600081819054906101000a900463ffffffff1680929190611d5790615521565b91906101000a81548163ffffffff021916908363ffffffff16021790555050565b600060ca600083815260200190815260200160002060009054906101000a900473ffffffffffffffffffffffffffffffffffffffff169050919050565b6000606660008473ffffffffffffffffffffffffffffffffffffffff1673ffffffffffffffffffffffffffffffffffffffff16815260200190815260200160002060008373ffffffffffffffffffffffffffffffffffffffff1673ffffffffffffffffffffffffffffffffffffffff16815260200190815260200160002060009054906101000a900460ff16905092915050565b611e516120f3565b73ffffffffffffffffffffffffffffffffffffffff168573ffffffffffffffffffffffffffffffffffffffff161480611e975750611e9685611e916120f3565b611db5565b5b611ed6576040517f08c379a0000000000000000000000000000000000000000000000000000000008152600401611ecd90614e66565b60405180910390fd5b611ee38585858585612abc565b5050505050565b60007f7965db0b000000000000000000000000000000000000000000000000000000007bffffffffffffffffffffffffffffffffffffffffffffffffffffffff1916827bffffffffffffffffffffffffffffffffffffffffffffffffffffffff19161480611f5d5750611f5c82613376565b5b9050919050565b8060679080519060200190611f7a929190613c5e565b5050565b60606000821415611fc6576040518060400160405280600181526020017f300000000000000000000000000000000000000000000000000000000000000081525090506120ee565b600082905060005b60008214611ff0578080611fe1906154d8565b915050600482901c9150611fce565b6000600f905060008267ffffffffffffffff811115612012576120116155db565b5b6040519080825280601f01601f1916602001820160405280156120445781602001600182028036833780820191505090505b50905060008390505b600087146120e55760008388169050600981116120795780603061207191906152cb565b60f81b61208a565b80603761208691906152cb565b60f81b5b83836120959061544b565b935083815181106120a9576120a86155ac565b5b60200101907effffffffffffffffffffffffffffffffffffffffffffffffffffffffffffff1916908160001a905350600488901c97505061204d565b81955050505050505b919050565b600033905090565b815183511461213f576040517f08c379a0000000000000000000000000000000000000000000000000000000008152600401612136906150a6565b60405180910390fd5b600073ffffffffffffffffffffffffffffffffffffffff168473ffffffffffffffffffffffffffffffffffffffff1614156121af576040517f08c379a00000000000000000000000000000000000000000000000000000000081526004016121a690614ec6565b60405180910390fd5b60006121b96120f3565b90506121c9818787878787613458565b60005b845181101561237d5760008582815181106121ea576121e96155ac565b5b602002602001015190506000858381518110612209576122086155ac565b5b6020026020010151905060006065600084815260200190815260200160002060008b73ffffffffffffffffffffffffffffffffffffffff1673ffffffffffffffffffffffffffffffffffffffff168152602001908152602001600020549050818110156122ab576040517f08c379a00000000000000000000000000000000000000000000000000000000081526004016122a290614f46565b60405180910390fd5b8181036065600085815260200190815260200160002060008c73ffffffffffffffffffffffffffffffffffffffff1673ffffffffffffffffffffffffffffffffffffffff16815260200190815260200160002081905550816065600085815260200190815260200160002060008b73ffffffffffffffffffffffffffffffffffffffff1673ffffffffffffffffffffffffffffffffffffffff168152602001908152602001600020600082825461236291906152cb565b9250508190555050505080612376906154d8565b90506121cc565b508473ffffffffffffffffffffffffffffffffffffffff168673ffffffffffffffffffffffffffffffffffffffff168273ffffffffffffffffffffffffffffffffffffffff167f4a39dc06d4c0dbc64b70af90fd698a233a518aa5d07e595d983b8c0526c8f7fb87876040516123f4929190614cd7565b60405180910390a461240a818787878787613460565b505050505050565b61241c8282611893565b6124ab576124418173ffffffffffffffffffffffffffffffffffffffff166014613647565b61244f8360001c6020613647565b604051602001612460929190614b9e565b6040516020818303038152906040526040517f08c379a00000000000000000000000000000000000000000000000000000000081526004016124a29190614d44565b60405180910390fd5b5050565b6124b98282611893565b61258c5760016097600084815260200190815260200160002060000160008373ffffffffffffffffffffffffffffffffffffffff1673ffffffffffffffffffffffffffffffffffffffff16815260200190815260200160002060006101000a81548160ff0219169083151502179055506125316120f3565b73ffffffffffffffffffffffffffffffffffffffff168173ffffffffffffffffffffffffffffffffffffffff16837f2f8788117e7eff1d82e926ec794901d17c78024a50270940304540a733656f0d60405160405180910390a45b5050565b61259a8282611893565b1561266e5760006097600084815260200190815260200160002060000160008373ffffffffffffffffffffffffffffffffffffffff1673ffffffffffffffffffffffffffffffffffffffff16815260200190815260200160002060006101000a81548160ff0219169083151502179055506126136120f3565b73ffffffffffffffffffffffffffffffffffffffff168173ffffffffffffffffffffffffffffffffffffffff16837ff6391f5c32d9c69d2a47ea670b442974b53935d1edc7fd64eb21e047a839171b60405160405180910390a45b5050565b600073ffffffffffffffffffffffffffffffffffffffff168473ffffffffffffffffffffffffffffffffffffffff1614156126e2576040517f08c379a00000000000000000000000000000000000000000000000000000000081526004016126d9906150c6565b60405180910390fd5b60006126ec6120f3565b905061270d816000876126fe88613883565b61270788613883565b87613458565b826065600086815260200190815260200160002060008773ffffffffffffffffffffffffffffffffffffffff1673ffffffffffffffffffffffffffffffffffffffff168152602001908152602001600020600082825461276d91906152cb565b925050819055508473ffffffffffffffffffffffffffffffffffffffff16600073ffffffffffffffffffffffffffffffffffffffff168273ffffffffffffffffffffffffffffffffffffffff167fc3d58168c5ae7397731d063d5bbf3d657854427343f4c083240f7aacaa2d0f6287876040516127eb929190615121565b60405180910390a4612802816000878787876138fd565b5050505050565b600073ffffffffffffffffffffffffffffffffffffffff168373ffffffffffffffffffffffffffffffffffffffff161415612879576040517f08c379a000000000000000000000000000000000000000000000000000000000815260040161287090614f26565b60405180910390fd5b80518251146128bd576040517f08c379a00000000000000000000000000000000000000000000000000000000081526004016128b4906150a6565b60405180910390fd5b60006128c76120f3565b90506128e781856000868660405180602001604052806000815250613458565b60005b8351811015612a36576000848281518110612908576129076155ac565b5b602002602001015190506000848381518110612927576129266155ac565b5b6020026020010151905060006065600084815260200190815260200160002060008973ffffffffffffffffffffffffffffffffffffffff1673ffffffffffffffffffffffffffffffffffffffff168152602001908152602001600020549050818110156129c9576040517f08c379a00000000000000000000000000000000000000000000000000000000081526004016129c090614e26565b60405180910390fd5b8181036065600085815260200190815260200160002060008a73ffffffffffffffffffffffffffffffffffffffff1673ffffffffffffffffffffffffffffffffffffffff168152602001908152602001600020819055505050508080612a2e906154d8565b9150506128ea565b50600073ffffffffffffffffffffffffffffffffffffffff168473ffffffffffffffffffffffffffffffffffffffff168273ffffffffffffffffffffffffffffffffffffffff167f4a39dc06d4c0dbc64b70af90fd698a233a518aa5d07e595d983b8c0526c8f7fb8686604051612aae929190614cd7565b60405180910390a450505050565b600073ffffffffffffffffffffffffffffffffffffffff168473ffffffffffffffffffffffffffffffffffffffff161415612b2c576040517f08c379a0000000000000000000000000000000000000000000000000000000008152600401612b2390614ec6565b60405180910390fd5b6000612b366120f3565b9050612b56818787612b4788613883565b612b5088613883565b87613458565b60006065600086815260200190815260200160002060008873ffffffffffffffffffffffffffffffffffffffff1673ffffffffffffffffffffffffffffffffffffffff16815260200190815260200160002054905083811015612bee576040517f08c379a0000000000000000000000000000000000000000000000000000000008152600401612be590614f46565b60405180910390fd5b8381036065600087815260200190815260200160002060008973ffffffffffffffffffffffffffffffffffffffff1673ffffffffffffffffffffffffffffffffffffffff16815260200190815260200160002081905550836065600087815260200190815260200160002060008873ffffffffffffffffffffffffffffffffffffffff1673ffffffffffffffffffffffffffffffffffffffff1681526020019081526020016000206000828254612ca591906152cb565b925050819055508573ffffffffffffffffffffffffffffffffffffffff168773ffffffffffffffffffffffffffffffffffffffff168373ffffffffffffffffffffffffffffffffffffffff167fc3d58168c5ae7397731d063d5bbf3d657854427343f4c083240f7aacaa2d0f628888604051612d22929190615121565b60405180910390a4612d388288888888886138fd565b50505050505050565b600073ffffffffffffffffffffffffffffffffffffffff168473ffffffffffffffffffffffffffffffffffffffff161415612db1576040517f08c379a0000000000000000000000000000000000000000000000000000000008152600401612da8906150c6565b60405180910390fd5b8151835114612df5576040517f08c379a0000000000000000000000000000000000000000000000000000000008152600401612dec906150a6565b60405180910390fd5b6000612dff6120f3565b9050612e1081600087878787613458565b60005b8451811015612eca57838181518110612e2f57612e2e6155ac565b5b602002602001015160656000878481518110612e4e57612e4d6155ac565b5b6020026020010151815260200190815260200160002060008873ffffffffffffffffffffffffffffffffffffffff1673ffffffffffffffffffffffffffffffffffffffff1681526020019081526020016000206000828254612eb091906152cb565b925050819055508080612ec2906154d8565b915050612e13565b508473ffffffffffffffffffffffffffffffffffffffff16600073ffffffffffffffffffffffffffffffffffffffff168273ffffffffffffffffffffffffffffffffffffffff167f4a39dc06d4c0dbc64b70af90fd698a233a518aa5d07e595d983b8c0526c8f7fb8787604051612f42929190614cd7565b60405180910390a4612f5981600087878787613460565b5050505050565b6000612f6b30613ae4565b15905090565b600060019054906101000a900460ff16612fc0576040517f08c379a0000000000000000000000000000000000000000000000000000000008152600401612fb790615006565b60405180910390fd5b612fc8613af7565b612fd0613b48565b612fd981613b99565b50565b612fe682826124af565b5050565b600073ffffffffffffffffffffffffffffffffffffffff168373ffffffffffffffffffffffffffffffffffffffff16141561305a576040517f08c379a000000000000000000000000000000000000000000000000000000000815260040161305190614f26565b60405180910390fd5b60006130646120f3565b90506130948185600061307687613883565b61307f87613883565b60405180602001604052806000815250613458565b60006065600085815260200190815260200160002060008673ffffffffffffffffffffffffffffffffffffffff1673ffffffffffffffffffffffffffffffffffffffff1681526020019081526020016000205490508281101561312c576040517f08c379a000000000000000000000000000000000000000000000000000000000815260040161312390614e26565b60405180910390fd5b8281036065600086815260200190815260200160002060008773ffffffffffffffffffffffffffffffffffffffff1673ffffffffffffffffffffffffffffffffffffffff16815260200190815260200160002081905550600073ffffffffffffffffffffffffffffffffffffffff168573ffffffffffffffffffffffffffffffffffffffff168373ffffffffffffffffffffffffffffffffffffffff167fc3d58168c5ae7397731d063d5bbf3d657854427343f4c083240f7aacaa2d0f6287876040516131fa929190615121565b60405180910390a45050505050565b8173ffffffffffffffffffffffffffffffffffffffff168373ffffffffffffffffffffffffffffffffffffffff161415613278576040517f08c379a000000000000000000000000000000000000000000000000000000000815260040161326f90615046565b60405180910390fd5b80606660008573ffffffffffffffffffffffffffffffffffffffff1673ffffffffffffffffffffffffffffffffffffffff16815260200190815260200160002060008473ffffffffffffffffffffffffffffffffffffffff1673ffffffffffffffffffffffffffffffffffffffff16815260200190815260200160002060006101000a81548160ff0219169083151502179055508173ffffffffffffffffffffffffffffffffffffffff168373ffffffffffffffffffffffffffffffffffffffff167f17307eab39ab6107e8899845ad3d59bd9653f200f220920489ca2b5937696c31836040516133699190614d0e565b60405180910390a3505050565b60007fd9b67a26000000000000000000000000000000000000000000000000000000007bffffffffffffffffffffffffffffffffffffffffffffffffffffffff1916827bffffffffffffffffffffffffffffffffffffffffffffffffffffffff1916148061344157507f0e89341c000000000000000000000000000000000000000000000000000000007bffffffffffffffffffffffffffffffffffffffffffffffffffffffff1916827bffffffffffffffffffffffffffffffffffffffffffffffffffffffff1916145b80613451575061345082613bf4565b5b9050919050565b505050505050565b61347f8473ffffffffffffffffffffffffffffffffffffffff16613ae4565b1561363f578373ffffffffffffffffffffffffffffffffffffffff1663bc197c8187878686866040518663ffffffff1660e01b81526004016134c5959493929190614bf3565b602060405180830381600087803b1580156134df57600080fd5b505af192505050801561351057506040513d601f19601f8201168201806040525081019061350d9190614460565b60015b6135b65761351c61560a565b806308c379a014156135795750613531615e81565b8061353c575061357b565b806040517f08c379a00000000000000000000000000000000000000000000000000000000081526004016135709190614d44565b60405180910390fd5b505b6040517f08c379a00000000000000000000000000000000000000000000000000000000081526004016135ad90614d66565b60405180910390fd5b63bc197c8160e01b7bffffffffffffffffffffffffffffffffffffffffffffffffffffffff1916817bffffffffffffffffffffffffffffffffffffffffffffffffffffffff19161461363d576040517f08c379a000000000000000000000000000000000000000000000000000000000815260040161363490614da6565b60405180910390fd5b505b505050505050565b60606000600283600261365a9190615321565b61366491906152cb565b67ffffffffffffffff81111561367d5761367c6155db565b5b6040519080825280601f01601f1916602001820160405280156136af5781602001600182028036833780820191505090505b5090507f3000000000000000000000000000000000000000000000000000000000000000816000815181106136e7576136e66155ac565b5b60200101907effffffffffffffffffffffffffffffffffffffffffffffffffffffffffffff1916908160001a9053507f78000000000000000000000000000000000000000000000000000000000000008160018151811061374b5761374a6155ac565b5b60200101907effffffffffffffffffffffffffffffffffffffffffffffffffffffffffffff1916908160001a9053506000600184600261378b9190615321565b61379591906152cb565b90505b6001811115613835577f3031323334353637383961626364656600000000000000000000000000000000600f8616601081106137d7576137d66155ac565b5b1a60f81b8282815181106137ee576137ed6155ac565b5b60200101907effffffffffffffffffffffffffffffffffffffffffffffffffffffffffffff1916908160001a905350600485901c94508061382e9061544b565b9050613798565b5060008414613879576040517f08c379a000000000000000000000000000000000000000000000000000000000815260040161387090614d86565b60405180910390fd5b8091505092915050565b60606000600167ffffffffffffffff8111156138a2576138a16155db565b5b6040519080825280602002602001820160405280156138d05781602001602082028036833780820191505090505b50905082816000815181106138e8576138e76155ac565b5b60200260200101818152505080915050919050565b61391c8473ffffffffffffffffffffffffffffffffffffffff16613ae4565b15613adc578373ffffffffffffffffffffffffffffffffffffffff1663f23a6e6187878686866040518663ffffffff1660e01b8152600401613962959493929190614c5b565b602060405180830381600087803b15801561397c57600080fd5b505af19250505080156139ad57506040513d601f19601f820116820180604052508101906139aa9190614460565b60015b613a53576139b961560a565b806308c379a01415613a1657506139ce615e81565b806139d95750613a18565b806040517f08c379a0000000000000000000000000000000000000000000000000000000008152600401613a0d9190614d44565b60405180910390fd5b505b6040517f08c379a0000000000000000000000000000000000000000000000000000000008152600401613a4a90614d66565b60405180910390fd5b63f23a6e6160e01b7bffffffffffffffffffffffffffffffffffffffffffffffffffffffff1916817bffffffffffffffffffffffffffffffffffffffffffffffffffffffff191614613ada576040517f08c379a0000000000000000000000000000000000000000000000000000000008152600401613ad190614da6565b60405180910390fd5b505b505050505050565b600080823b905060008111915050919050565b600060019054906101000a900460ff16613b46576040517f08c379a0000000000000000000000000000000000000000000000000000000008152600401613b3d90615006565b60405180910390fd5b565b600060019054906101000a900460ff16613b97576040517f08c379a0000000000000000000000000000000000000000000000000000000008152600401613b8e90615006565b60405180910390fd5b565b600060019054906101000a900460ff16613be8576040517f08c379a0000000000000000000000000000000000000000000000000000000008152600401613bdf90615006565b60405180910390fd5b613bf181611f64565b50565b60007f01ffc9a7000000000000000000000000000000000000000000000000000000007bffffffffffffffffffffffffffffffffffffffffffffffffffffffff1916827bffffffffffffffffffffffffffffffffffffffffffffffffffffffff1916149050919050565b828054613c6a90615475565b90600052602060002090601f016020900481019282613c8c5760008555613cd3565b82601f10613ca557805160ff1916838001178555613cd3565b82800160010185558215613cd3579182015b82811115613cd2578251825591602001919060010190613cb7565b5b509050613ce09190613ce4565b5090565b5b80821115613cfd576000816000905550600101613ce5565b5090565b6000613d14613d0f8461518a565b615165565b90508083825260208201905082856020860282011115613d3757613d36615631565b5b60005b85811015613d675781613d4d8882613e65565b845260208401935060208301925050600181019050613d3a565b5050509392505050565b6000613d84613d7f846151b6565b615165565b90508083825260208201905082856020860282011115613da757613da6615631565b5b60005b85811015613dd75781613dbd8882613f86565b845260208401935060208301925050600181019050613daa565b5050509392505050565b6000613df4613def846151e2565b615165565b905082815260208101848484011115613e1057613e0f615636565b5b613e1b848285615409565b509392505050565b6000613e36613e3184615213565b615165565b905082815260208101848484011115613e5257613e51615636565b5b613e5d848285615409565b509392505050565b600081359050613e7481615f17565b92915050565b600082601f830112613e8f57613e8e61562c565b5b8135613e9f848260208601613d01565b91505092915050565b600082601f830112613ebd57613ebc61562c565b5b8135613ecd848260208601613d71565b91505092915050565b600081359050613ee581615f2e565b92915050565b600081359050613efa81615f45565b92915050565b600081359050613f0f81615f5c565b92915050565b600081519050613f2481615f5c565b92915050565b600082601f830112613f3f57613f3e61562c565b5b8135613f4f848260208601613de1565b91505092915050565b600082601f830112613f6d57613f6c61562c565b5b8135613f7d848260208601613e23565b91505092915050565b600081359050613f9581615f73565b92915050565b60008060408385031215613fb257613fb1615640565b5b6000613fc085828601613e65565b9250506020613fd185828601613e65565b9150509250929050565b600080600080600060a08688031215613ff757613ff6615640565b5b600061400588828901613e65565b955050602061401688828901613e65565b945050604086013567ffffffffffffffff8111156140375761403661563b565b5b61404388828901613ea8565b935050606086013567ffffffffffffffff8111156140645761406361563b565b5b61407088828901613ea8565b925050608086013567ffffffffffffffff8111156140915761409061563b565b5b61409d88828901613f2a565b9150509295509295909350565b6000806000606084860312156140c3576140c2615640565b5b60006140d186828701613e65565b93505060206140e286828701613e65565b92505060406140f386828701613f86565b9150509250925092565b600080600080600060a0868803121561411957614118615640565b5b600061412788828901613e65565b955050602061413888828901613e65565b945050604061414988828901613f86565b935050606061415a88828901613f86565b925050608086013567ffffffffffffffff81111561417b5761417a61563b565b5b61418788828901613f2a565b9150509295509295909350565b600080604083850312156141ab576141aa615640565b5b60006141b985828601613e65565b925050602083013567ffffffffffffffff8111156141da576141d961563b565b5b6141e685828601613ea8565b9150509250929050565b60008060006060848603121561420957614208615640565b5b600061421786828701613e65565b935050602084013567ffffffffffffffff8111156142385761423761563b565b5b61424486828701613ea8565b925050604084013567ffffffffffffffff8111156142655761426461563b565b5b61427186828701613ea8565b9150509250925092565b6000806040838503121561429257614291615640565b5b60006142a085828601613e65565b92505060206142b185828601613ed6565b9150509250929050565b600080604083850312156142d2576142d1615640565b5b60006142e085828601613e65565b92505060206142f185828601613f86565b9150509250929050565b60008060006060848603121561431457614313615640565b5b600061432286828701613e65565b935050602061433386828701613f86565b925050604061434486828701613f86565b9150509250925092565b6000806040838503121561436557614364615640565b5b600083013567ffffffffffffffff8111156143835761438261563b565b5b61438f85828601613e7a565b925050602083013567ffffffffffffffff8111156143b0576143af61563b565b5b6143bc85828601613ea8565b9150509250929050565b6000602082840312156143dc576143db615640565b5b60006143ea84828501613eeb565b91505092915050565b6000806040838503121561440a57614409615640565b5b600061441885828601613eeb565b925050602061442985828601613e65565b9150509250929050565b60006020828403121561444957614448615640565b5b600061445784828501613f00565b91505092915050565b60006020828403121561447657614475615640565b5b600061448484828501613f15565b91505092915050565b6000602082840312156144a3576144a2615640565b5b600082013567ffffffffffffffff8111156144c1576144c061563b565b5b6144cd84828501613f58565b91505092915050565b6000602082840312156144ec576144eb615640565b5b60006144fa84828501613f86565b91505092915050565b6000806040838503121561451a57614519615640565b5b600061452885828601613f86565b925050602061453985828601613e65565b9150509250929050565b600061454f8383614b2f565b60208301905092915050565b6145648161537b565b82525050565b600061457582615254565b61457f8185615282565b935061458a83615244565b8060005b838110156145bb5781516145a28882614543565b97506145ad83615275565b92505060018101905061458e565b5085935050505092915050565b6145d18161538d565b82525050565b6145e081615399565b82525050565b60006145f18261525f565b6145fb8185615293565b935061460b818560208601615418565b61461481615645565b840191505092915050565b600061462a8261526a565b61463481856152af565b9350614644818560208601615418565b61464d81615645565b840191505092915050565b60006146638261526a565b61466d81856152c0565b935061467d818560208601615418565b80840191505092915050565b60006146966034836152af565b91506146a182615663565b604082019050919050565b60006146b96009836152c0565b91506146c4826156b2565b600982019050919050565b60006146dc6020836152af565b91506146e7826156db565b602082019050919050565b60006146ff6028836152af565b915061470a82615704565b604082019050919050565b60006147226025836152af565b915061472d82615753565b604082019050919050565b6000614745602b836152af565b9150614750826157a2565b604082019050919050565b6000614768600d836152af565b9150614773826157f1565b602082019050919050565b600061478b6024836152af565b91506147968261581a565b604082019050919050565b60006147ae6012836152af565b91506147b982615869565b602082019050919050565b60006147d16029836152af565b91506147dc82615892565b604082019050919050565b60006147f4600b836152af565b91506147ff826158e1565b602082019050919050565b6000614817600b836152c0565b91506148228261590a565b600b82019050919050565b600061483a6016836152af565b915061484582615933565b602082019050919050565b600061485d6025836152af565b91506148688261595c565b604082019050919050565b60006148806032836152af565b915061488b826159ab565b604082019050919050565b60006148a3602e836152af565b91506148ae826159fa565b604082019050919050565b60006148c66023836152af565b91506148d182615a49565b604082019050919050565b60006148e9602a836152af565b91506148f482615a98565b604082019050919050565b600061490c6014836152af565b915061491782615ae7565b602082019050919050565b600061492f601f836152af565b915061493a82615b10565b602082019050919050565b60006149526023836152af565b915061495d82615b39565b604082019050919050565b60006149756024836152af565b915061498082615b88565b604082019050919050565b60006149986020836152af565b91506149a382615bd7565b602082019050919050565b60006149bb6000836152a4565b91506149c682615c00565b600082019050919050565b60006149de602b836152af565b91506149e982615c03565b604082019050919050565b6000614a016017836152c0565b9150614a0c82615c52565b601782019050919050565b6000614a246015836152af565b9150614a2f82615c7b565b602082019050919050565b6000614a476029836152af565b9150614a5282615ca4565b604082019050919050565b6000614a6a601a836152af565b9150614a7582615cf3565b602082019050919050565b6000614a8d6029836152af565b9150614a9882615d1c565b604082019050919050565b6000614ab06028836152af565b9150614abb82615d6b565b604082019050919050565b6000614ad36021836152af565b9150614ade82615dba565b604082019050919050565b6000614af66011836152c0565b9150614b0182615e09565b601182019050919050565b6000614b19602f836152af565b9150614b2482615e32565b604082019050919050565b614b38816153ef565b82525050565b614b47816153ef565b82525050565b614b56816153f9565b82525050565b6000614b67826146ac565b9150614b738284614658565b9150614b7e8261480a565b915081905092915050565b6000614b94826149ae565b9150819050919050565b6000614ba9826149f4565b9150614bb58285614658565b9150614bc082614ae9565b9150614bcc8284614658565b91508190509392505050565b6000602082019050614bed600083018461455b565b92915050565b600060a082019050614c08600083018861455b565b614c15602083018761455b565b8181036040830152614c27818661456a565b90508181036060830152614c3b818561456a565b90508181036080830152614c4f81846145e6565b90509695505050505050565b600060a082019050614c70600083018861455b565b614c7d602083018761455b565b614c8a6040830186614b3e565b614c976060830185614b3e565b8181036080830152614ca981846145e6565b90509695505050505050565b60006020820190508181036000830152614ccf818461456a565b905092915050565b60006040820190508181036000830152614cf1818561456a565b90508181036020830152614d05818461456a565b90509392505050565b6000602082019050614d2360008301846145c8565b92915050565b6000602082019050614d3e60008301846145d7565b92915050565b60006020820190508181036000830152614d5e818461461f565b905092915050565b60006020820190508181036000830152614d7f81614689565b9050919050565b60006020820190508181036000830152614d9f816146cf565b9050919050565b60006020820190508181036000830152614dbf816146f2565b9050919050565b60006020820190508181036000830152614ddf81614715565b9050919050565b60006020820190508181036000830152614dff81614738565b9050919050565b60006020820190508181036000830152614e1f8161475b565b9050919050565b60006020820190508181036000830152614e3f8161477e565b9050919050565b60006020820190508181036000830152614e5f816147a1565b9050919050565b60006020820190508181036000830152614e7f816147c4565b9050919050565b60006020820190508181036000830152614e9f816147e7565b9050919050565b60006020820190508181036000830152614ebf8161482d565b9050919050565b60006020820190508181036000830152614edf81614850565b9050919050565b60006020820190508181036000830152614eff81614873565b9050919050565b60006020820190508181036000830152614f1f81614896565b9050919050565b60006020820190508181036000830152614f3f816148b9565b9050919050565b60006020820190508181036000830152614f5f816148dc565b9050919050565b60006020820190508181036000830152614f7f816148ff565b9050919050565b60006020820190508181036000830152614f9f81614922565b9050919050565b60006020820190508181036000830152614fbf81614945565b9050919050565b60006020820190508181036000830152614fdf81614968565b9050919050565b60006020820190508181036000830152614fff8161498b565b9050919050565b6000602082019050818103600083015261501f816149d1565b9050919050565b6000602082019050818103600083015261503f81614a17565b9050919050565b6000602082019050818103600083015261505f81614a3a565b9050919050565b6000602082019050818103600083015261507f81614a5d565b9050919050565b6000602082019050818103600083015261509f81614a80565b9050919050565b600060208201905081810360008301526150bf81614aa3565b9050919050565b600060208201905081810360008301526150df81614ac6565b9050919050565b600060208201905081810360008301526150ff81614b0c565b9050919050565b600060208201905061511b6000830184614b3e565b92915050565b60006040820190506151366000830185614b3e565b6151436020830184614b3e565b9392505050565b600060208201905061515f6000830184614b4d565b92915050565b600061516f615180565b905061517b82826154a7565b919050565b6000604051905090565b600067ffffffffffffffff8211156151a5576151a46155db565b5b602082029050602081019050919050565b600067ffffffffffffffff8211156151d1576151d06155db565b5b602082029050602081019050919050565b600067ffffffffffffffff8211156151fd576151fc6155db565b5b61520682615645565b9050602081019050919050565b600067ffffffffffffffff82111561522e5761522d6155db565b5b61523782615645565b9050602081019050919050565b6000819050602082019050919050565b600081519050919050565b600081519050919050565b600081519050919050565b6000602082019050919050565b600082825260208201905092915050565b600082825260208201905092915050565b600081905092915050565b600082825260208201905092915050565b600081905092915050565b60006152d6826153ef565b91506152e1836153ef565b9250827fffffffffffffffffffffffffffffffffffffffffffffffffffffffffffffffff038211156153165761531561554e565b5b828201905092915050565b600061532c826153ef565b9150615337836153ef565b9250817fffffffffffffffffffffffffffffffffffffffffffffffffffffffffffffffff04831182151516156153705761536f61554e565b5b828202905092915050565b6000615386826153cf565b9050919050565b60008115159050919050565b6000819050919050565b60007fffffffff0000000000000000000000000000000000000000000000000000000082169050919050565b600073ffffffffffffffffffffffffffffffffffffffff82169050919050565b6000819050919050565b600063ffffffff82169050919050565b82818337600083830152505050565b60005b8381101561543657808201518184015260208101905061541b565b83811115615445576000848401525b50505050565b6000615456826153ef565b9150600082141561546a5761546961554e565b5b600182039050919050565b6000600282049050600182168061548d57607f821691505b602082108114156154a1576154a061557d565b5b50919050565b6154b082615645565b810181811067ffffffffffffffff821117156154cf576154ce6155db565b5b80604052505050565b60006154e3826153ef565b91507fffffffffffffffffffffffffffffffffffffffffffffffffffffffffffffffff8214156155165761551561554e565b5b600182019050919050565b600061552c826153f9565b915063ffffffff8214156155435761554261554e565b5b600182019050919050565b7f4e487b7100000000000000000000000000000000000000000000000000000000600052601160045260246000fd5b7f4e487b7100000000000000000000000000000000000000000000000000000000600052602260045260246000fd5b7f4e487b7100000000000000000000000000000000000000000000000000000000600052603260045260246000fd5b7f4e487b7100000000000000000000000000000000000000000000000000000000600052604160045260246000fd5b600060033d11156156295760046000803e615626600051615656565b90505b90565b600080fd5b600080fd5b600080fd5b600080fd5b600080fd5b6000601f19601f8301169050919050565b60008160e01c9050919050565b7f455243313135353a207472616e7366657220746f206e6f6e204552433131353560008201527f526563656976657220696d706c656d656e746572000000000000000000000000602082015250565b7f697066733a2f2f66300000000000000000000000000000000000000000000000600082015250565b7f537472696e67733a20686578206c656e67746820696e73756666696369656e74600082015250565b7f455243313135353a204552433131353552656365697665722072656a6563746560008201527f6420746f6b656e73000000000000000000000000000000000000000000000000602082015250565b7f5468697320746f6b656e2049442068617320616c7265616479206265656e206d60008201527f696e746564000000000000000000000000000000000000000000000000000000602082015250565b7f455243313135353a2062616c616e636520717565727920666f7220746865207a60008201527f65726f2061646472657373000000000000000000000000000000000000000000602082015250565b7f496e76616c696420627579657200000000000000000000000000000000000000600082015250565b7f455243313135353a206275726e20616d6f756e7420657863656564732062616c60008201527f616e636500000000000000000000000000000000000000000000000000000000602082015250565b7f43494420616c7265616479206d696e7465640000000000000000000000000000600082015250565b7f455243313135353a2063616c6c6572206973206e6f74206f776e6572206e6f7260008201527f20617070726f7665640000000000000000000000000000000000000000000000602082015250565b7f496e76616c696420636964000000000000000000000000000000000000000000600082015250565b7f2f696e6465782e6a736f6e000000000000000000000000000000000000000000600082015250565b7f5552492063616e6e6f7420626520757064617465642e00000000000000000000600082015250565b7f455243313135353a207472616e7366657220746f20746865207a65726f20616460008201527f6472657373000000000000000000000000000000000000000000000000000000602082015250565b7f455243313135353a207472616e736665722063616c6c6572206973206e6f742060008201527f6f776e6572206e6f7220617070726f7665640000000000000000000000000000602082015250565b7f496e697469616c697a61626c653a20636f6e747261637420697320616c72656160008201527f647920696e697469616c697a6564000000000000000000000000000000000000602082015250565b7f455243313135353a206275726e2066726f6d20746865207a65726f206164647260008201527f6573730000000000000000000000000000000000000000000000000000000000602082015250565b7f455243313135353a20696e73756666696369656e742062616c616e636520666f60008201527f72207472616e7366657200000000000000000000000000000000000000000000602082015250565b7f4e46542063616e6e6f74206265206275726e6564000000000000000000000000600082015250565b7f496e76616c696420616d6f756e7420666f7220617070726f7665642062696400600082015250565b7f4f6e6c79206f776e65722063616e2073657420617070726f76616c20666f722060008201527f4349440000000000000000000000000000000000000000000000000000000000602082015250565b7f4661696c656420746f207472616e73666572207061796d656e7420746f20736560008201527f6c6c657200000000000000000000000000000000000000000000000000000000602082015250565b7f43616c6c6572206973206e6f74206f776e6572206e6f7220617070726f766564600082015250565b50565b7f496e697469616c697a61626c653a20636f6e7472616374206973206e6f74206960008201527f6e697469616c697a696e67000000000000000000000000000000000000000000602082015250565b7f416363657373436f6e74726f6c3a206163636f756e7420000000000000000000600082015250565b7f4e46542063616e6e6f7420626520637265617465640000000000000000000000600082015250565b7f455243313135353a2073657474696e6720617070726f76616c2073746174757360008201527f20666f722073656c660000000000000000000000000000000000000000000000602082015250565b7f56657273696f6e2063616e6e6f7420626520757064617465642e000000000000600082015250565b7f455243313135353a206163636f756e747320616e6420696473206c656e67746860008201527f206d69736d617463680000000000000000000000000000000000000000000000602082015250565b7f455243313135353a2069647320616e6420616d6f756e7473206c656e6774682060008201527f6d69736d61746368000000000000000000000000000000000000000000000000602082015250565b7f455243313135353a206d696e7420746f20746865207a65726f2061646472657360008201527f7300000000000000000000000000000000000000000000000000000000000000602082015250565b7f206973206d697373696e6720726f6c6520000000000000000000000000000000600082015250565b7f416363657373436f6e74726f6c3a2063616e206f6e6c792072656e6f756e636560008201527f20726f6c657320666f722073656c660000000000000000000000000000000000602082015250565b600060443d1015615e9157615f14565b615e99615180565b60043d036004823e80513d602482011167ffffffffffffffff82111715615ec1575050615f14565b808201805167ffffffffffffffff811115615edf5750505050615f14565b80602083010160043d038501811115615efc575050505050615f14565b615f0b826020018501866154a7565b82955050505050505b90565b615f208161537b565b8114615f2b57600080fd5b50565b615f378161538d565b8114615f4257600080fd5b50565b615f4e81615399565b8114615f5957600080fd5b50565b615f65816153a3565b8114615f7057600080fd5b50565b615f7c816153ef565b8114615f8757600080fd5b5056fea2646970667358221220b1207dd2bbb25c02b2ae0d7d5d5cdeb9ec289c0359f581934355576059a0849e64736f6c63430008060033",
  "devdoc": {
    "kind": "dev",
    "methods": {
      "balanceOf(address,uint256)": {
        "details": "See {IERC1155-balanceOf}. Requirements: - `account` cannot be the zero address."
      },
      "balanceOfBatch(address[],uint256[])": {
        "details": "See {IERC1155-balanceOfBatch}. Requirements: - `accounts` and `ids` must have the same length."
      },
      "getRoleAdmin(bytes32)": {
        "details": "Returns the admin role that controls `role`. See {grantRole} and {revokeRole}. To change a role's admin, use {_setRoleAdmin}."
      },
      "grantRole(bytes32,address)": {
        "details": "Grants `role` to `account`. If `account` had not been already granted `role`, emits a {RoleGranted} event. Requirements: - the caller must have ``role``'s admin role."
      },
      "hasRole(bytes32,address)": {
        "details": "Returns `true` if `account` has been granted `role`."
      },
      "isApprovedFor(address,uint256)": {
        "details": "See {IERC1155-isApprovedForAll}."
      },
      "isApprovedForAll(address,address)": {
        "details": "See {IERC1155-isApprovedForAll}."
      },
      "lazyMintPurchase(uint256,address)": {
        "params": {
          "cid": "IPFS content unique identifier.",
          "owner": "current owner for token"
        }
      },
      "renounceRole(bytes32,address)": {
        "details": "Revokes `role` from the calling account. Roles are often managed via {grantRole} and {revokeRole}: this function's purpose is to provide a mechanism for accounts to lose their privileges if they are compromised (such as when a trusted device is misplaced). If the calling account had been revoked `role`, emits a {RoleRevoked} event. Requirements: - the caller must be `account`."
      },
      "revokeRole(bytes32,address)": {
        "details": "Revokes `role` from `account`. If `account` had been granted `role`, emits a {RoleRevoked} event. Requirements: - the caller must have ``role``'s admin role."
      },
      "safeBatchTransferFrom(address,address,uint256[],uint256[],bytes)": {
        "details": "See {IERC1155-safeBatchTransferFrom}."
      },
      "safePurchase(uint256)": {
        "details": "emit PurchaseResponseReceived on purchase ready to get done",
        "params": {
          "cid": "IPFS content unique identifier."
        }
      },
      "safeTransferFrom(address,address,uint256,uint256,bytes)": {
        "details": "See {IERC1155-safeTransferFrom}."
      },
      "setApprovalFor(address,uint256,uint256)": {
        "details": "See {IERC1155-setApprovalForAll}.",
        "params": {
          "approved": "bid amount for cid",
          "cid": "NFT id",
          "operator": "current buyer"
        }
      },
      "setApprovalForAll(address,bool)": {
        "details": "See {IERC1155-setApprovalForAll}."
      }
    },
    "version": 1
  },
  "userdoc": {
    "kind": "user",
    "methods": {
      "lazyMintPurchase(uint256,address)": {
        "notice": "Mint token for buyer and transfer payment for seller"
      },
      "safePurchase(uint256)": {
        "notice": "Check for safe transfer using custom approval"
      },
      "setApprovalFor(address,uint256,uint256)": {
        "notice": "This works like setApprovalForAll with cid reference instead of sender Why this? ApprovalForAll set approval for every action from operator. In our case we need allow actions for specific cid and operator"
      }
    },
    "version": 1
  },
  "storageLayout": {
    "storage": [
      {
        "astId": 416,
        "contract": "contracts/1155-WNFT.sol:WNFT",
        "label": "_initialized",
        "offset": 0,
        "slot": "0",
        "type": "t_bool"
      },
      {
        "astId": 419,
        "contract": "contracts/1155-WNFT.sol:WNFT",
        "label": "_initializing",
        "offset": 1,
        "slot": "0",
        "type": "t_bool"
      },
      {
        "astId": 2072,
        "contract": "contracts/1155-WNFT.sol:WNFT",
        "label": "__gap",
        "offset": 0,
        "slot": "1",
        "type": "t_array(t_uint256)50_storage"
      },
      {
        "astId": 2321,
        "contract": "contracts/1155-WNFT.sol:WNFT",
        "label": "__gap",
        "offset": 0,
        "slot": "51",
        "type": "t_array(t_uint256)50_storage"
      },
      {
        "astId": 512,
        "contract": "contracts/1155-WNFT.sol:WNFT",
        "label": "_balances",
        "offset": 0,
        "slot": "101",
        "type": "t_mapping(t_uint256,t_mapping(t_address,t_uint256))"
      },
      {
        "astId": 518,
        "contract": "contracts/1155-WNFT.sol:WNFT",
        "label": "_operatorApprovals",
        "offset": 0,
        "slot": "102",
        "type": "t_mapping(t_address,t_mapping(t_address,t_bool))"
      },
      {
        "astId": 520,
        "contract": "contracts/1155-WNFT.sol:WNFT",
        "label": "_uri",
        "offset": 0,
        "slot": "103",
        "type": "t_string_storage"
      },
      {
        "astId": 1605,
        "contract": "contracts/1155-WNFT.sol:WNFT",
        "label": "__gap",
        "offset": 0,
        "slot": "104",
        "type": "t_array(t_uint256)47_storage"
      },
      {
        "astId": 48,
        "contract": "contracts/1155-WNFT.sol:WNFT",
        "label": "_roles",
        "offset": 0,
        "slot": "151",
        "type": "t_mapping(t_bytes32,t_struct(RoleData)43_storage)"
      },
      {
        "astId": 335,
        "contract": "contracts/1155-WNFT.sol:WNFT",
        "label": "__gap",
        "offset": 0,
        "slot": "152",
        "type": "t_array(t_uint256)49_storage"
      },
      {
        "astId": 2363,
        "contract": "contracts/1155-WNFT.sol:WNFT",
        "label": "_nftApprovals",
        "offset": 0,
        "slot": "201",
        "type": "t_mapping(t_uint256,t_mapping(t_address,t_uint256))"
      },
      {
        "astId": 2376,
        "contract": "contracts/1155-WNFT.sol:WNFT",
        "label": "holders",
        "offset": 0,
        "slot": "202",
        "type": "t_mapping(t_uint256,t_address)"
      },
      {
        "astId": 2378,
        "contract": "contracts/1155-WNFT.sol:WNFT",
        "label": "version",
        "offset": 0,
        "slot": "203",
        "type": "t_uint32"
      }
    ],
    "types": {
      "t_address": {
        "encoding": "inplace",
        "label": "address",
        "numberOfBytes": "20"
      },
      "t_array(t_uint256)47_storage": {
        "base": "t_uint256",
        "encoding": "inplace",
        "label": "uint256[47]",
        "numberOfBytes": "1504"
      },
      "t_array(t_uint256)49_storage": {
        "base": "t_uint256",
        "encoding": "inplace",
        "label": "uint256[49]",
        "numberOfBytes": "1568"
      },
      "t_array(t_uint256)50_storage": {
        "base": "t_uint256",
        "encoding": "inplace",
        "label": "uint256[50]",
        "numberOfBytes": "1600"
      },
      "t_bool": {
        "encoding": "inplace",
        "label": "bool",
        "numberOfBytes": "1"
      },
      "t_bytes32": {
        "encoding": "inplace",
        "label": "bytes32",
        "numberOfBytes": "32"
      },
      "t_mapping(t_address,t_bool)": {
        "encoding": "mapping",
        "key": "t_address",
        "label": "mapping(address => bool)",
        "numberOfBytes": "32",
        "value": "t_bool"
      },
      "t_mapping(t_address,t_mapping(t_address,t_bool))": {
        "encoding": "mapping",
        "key": "t_address",
        "label": "mapping(address => mapping(address => bool))",
        "numberOfBytes": "32",
        "value": "t_mapping(t_address,t_bool)"
      },
      "t_mapping(t_address,t_uint256)": {
        "encoding": "mapping",
        "key": "t_address",
        "label": "mapping(address => uint256)",
        "numberOfBytes": "32",
        "value": "t_uint256"
      },
      "t_mapping(t_bytes32,t_struct(RoleData)43_storage)": {
        "encoding": "mapping",
        "key": "t_bytes32",
        "label": "mapping(bytes32 => struct AccessControlUpgradeable.RoleData)",
        "numberOfBytes": "32",
        "value": "t_struct(RoleData)43_storage"
      },
      "t_mapping(t_uint256,t_address)": {
        "encoding": "mapping",
        "key": "t_uint256",
        "label": "mapping(uint256 => address)",
        "numberOfBytes": "32",
        "value": "t_address"
      },
      "t_mapping(t_uint256,t_mapping(t_address,t_uint256))": {
        "encoding": "mapping",
        "key": "t_uint256",
        "label": "mapping(uint256 => mapping(address => uint256))",
        "numberOfBytes": "32",
        "value": "t_mapping(t_address,t_uint256)"
      },
      "t_string_storage": {
        "encoding": "bytes",
        "label": "string",
        "numberOfBytes": "32"
      },
      "t_struct(RoleData)43_storage": {
        "encoding": "inplace",
        "label": "struct AccessControlUpgradeable.RoleData",
        "members": [
          {
            "astId": 40,
            "contract": "contracts/1155-WNFT.sol:WNFT",
            "label": "members",
            "offset": 0,
            "slot": "0",
            "type": "t_mapping(t_address,t_bool)"
          },
          {
            "astId": 42,
            "contract": "contracts/1155-WNFT.sol:WNFT",
            "label": "adminRole",
            "offset": 0,
            "slot": "1",
            "type": "t_bytes32"
          }
        ],
        "numberOfBytes": "64"
      },
      "t_uint256": {
        "encoding": "inplace",
        "label": "uint256",
        "numberOfBytes": "32"
      },
      "t_uint32": {
        "encoding": "inplace",
        "label": "uint32",
        "numberOfBytes": "4"
      }
    }
  }
}