{
  "address": "0xe7f1725E7734CE288F8367e1Bb143E90bb3F0512",
  "abi": [
    {
      "inputs": [],
      "name": "InvalidPurchaseOperation",
      "type": "error"
    },
    {
      "anonymous": false,
      "inputs": [
        {
          "indexed": true,
          "internalType": "address",
          "name": "account",
          "type": "address"
        },
        {
          "indexed": true,
          "internalType": "address",
          "name": "operator",
          "type": "address"
        },
        {
          "indexed": false,
          "internalType": "bool",
          "name": "approved",
          "type": "bool"
        }
      ],
      "name": "ApprovalForAll",
      "type": "event"
    },
    {
      "anonymous": false,
      "inputs": [
        {
          "indexed": true,
          "internalType": "address",
          "name": "operator",
          "type": "address"
        },
        {
          "indexed": false,
          "internalType": "uint256",
          "name": "cid",
          "type": "uint256"
        },
        {
          "indexed": false,
          "internalType": "uint256",
          "name": "approved",
          "type": "uint256"
        }
      ],
      "name": "ApprovalForCID",
      "type": "event"
    },
    {
      "anonymous": false,
      "inputs": [
        {
          "indexed": true,
          "internalType": "bytes32",
          "name": "role",
          "type": "bytes32"
        },
        {
          "indexed": true,
          "internalType": "bytes32",
          "name": "previousAdminRole",
          "type": "bytes32"
        },
        {
          "indexed": true,
          "internalType": "bytes32",
          "name": "newAdminRole",
          "type": "bytes32"
        }
      ],
      "name": "RoleAdminChanged",
      "type": "event"
    },
    {
      "anonymous": false,
      "inputs": [
        {
          "indexed": true,
          "internalType": "bytes32",
          "name": "role",
          "type": "bytes32"
        },
        {
          "indexed": true,
          "internalType": "address",
          "name": "account",
          "type": "address"
        },
        {
          "indexed": true,
          "internalType": "address",
          "name": "sender",
          "type": "address"
        }
      ],
      "name": "RoleGranted",
      "type": "event"
    },
    {
      "anonymous": false,
      "inputs": [
        {
          "indexed": true,
          "internalType": "bytes32",
          "name": "role",
          "type": "bytes32"
        },
        {
          "indexed": true,
          "internalType": "address",
          "name": "account",
          "type": "address"
        },
        {
          "indexed": true,
          "internalType": "address",
          "name": "sender",
          "type": "address"
        }
      ],
      "name": "RoleRevoked",
      "type": "event"
    },
    {
      "anonymous": false,
      "inputs": [
        {
          "indexed": true,
          "internalType": "address",
          "name": "operator",
          "type": "address"
        },
        {
          "indexed": true,
          "internalType": "address",
          "name": "from",
          "type": "address"
        },
        {
          "indexed": true,
          "internalType": "address",
          "name": "to",
          "type": "address"
        },
        {
          "indexed": false,
          "internalType": "uint256[]",
          "name": "ids",
          "type": "uint256[]"
        },
        {
          "indexed": false,
          "internalType": "uint256[]",
          "name": "values",
          "type": "uint256[]"
        }
      ],
      "name": "TransferBatch",
      "type": "event"
    },
    {
      "anonymous": false,
      "inputs": [
        {
          "indexed": true,
          "internalType": "address",
          "name": "operator",
          "type": "address"
        },
        {
          "indexed": true,
          "internalType": "address",
          "name": "from",
          "type": "address"
        },
        {
          "indexed": true,
          "internalType": "address",
          "name": "to",
          "type": "address"
        },
        {
          "indexed": false,
          "internalType": "uint256",
          "name": "id",
          "type": "uint256"
        },
        {
          "indexed": false,
          "internalType": "uint256",
          "name": "value",
          "type": "uint256"
        }
      ],
      "name": "TransferSingle",
      "type": "event"
    },
    {
      "anonymous": false,
      "inputs": [
        {
          "indexed": false,
          "internalType": "string",
          "name": "value",
          "type": "string"
        },
        {
          "indexed": true,
          "internalType": "uint256",
          "name": "id",
          "type": "uint256"
        }
      ],
      "name": "URI",
      "type": "event"
    },
    {
      "inputs": [],
      "name": "DEFAULT_ADMIN_ROLE",
      "outputs": [
        {
          "internalType": "bytes32",
          "name": "",
          "type": "bytes32"
        }
      ],
      "stateMutability": "view",
      "type": "function"
    },
    {
      "inputs": [],
      "name": "NFT_MINTER_ROLE",
      "outputs": [
        {
          "internalType": "bytes32",
          "name": "",
          "type": "bytes32"
        }
      ],
      "stateMutability": "view",
      "type": "function"
    },
    {
      "inputs": [
        {
          "internalType": "address",
          "name": "account",
          "type": "address"
        },
        {
          "internalType": "uint256",
          "name": "id",
          "type": "uint256"
        }
      ],
      "name": "balanceOf",
      "outputs": [
        {
          "internalType": "uint256",
          "name": "",
          "type": "uint256"
        }
      ],
      "stateMutability": "view",
      "type": "function"
    },
    {
      "inputs": [
        {
          "internalType": "address[]",
          "name": "accounts",
          "type": "address[]"
        },
        {
          "internalType": "uint256[]",
          "name": "ids",
          "type": "uint256[]"
        }
      ],
      "name": "balanceOfBatch",
      "outputs": [
        {
          "internalType": "uint256[]",
          "name": "",
          "type": "uint256[]"
        }
      ],
      "stateMutability": "view",
      "type": "function"
    },
    {
      "inputs": [
        {
          "internalType": "address",
          "name": "account",
          "type": "address"
        },
        {
          "internalType": "uint256",
          "name": "cid",
          "type": "uint256"
        }
      ],
      "name": "burn",
      "outputs": [],
      "stateMutability": "nonpayable",
      "type": "function"
    },
    {
      "inputs": [
        {
          "internalType": "address",
          "name": "account",
          "type": "address"
        },
        {
          "internalType": "uint256[]",
          "name": "ids",
          "type": "uint256[]"
        },
        {
          "internalType": "uint256[]",
          "name": "amounts",
          "type": "uint256[]"
        }
      ],
      "name": "burnBatch",
      "outputs": [],
      "stateMutability": "nonpayable",
      "type": "function"
    },
    {
      "inputs": [
        {
          "internalType": "bytes32",
          "name": "role",
          "type": "bytes32"
        }
      ],
      "name": "getRoleAdmin",
      "outputs": [
        {
          "internalType": "bytes32",
          "name": "",
          "type": "bytes32"
        }
      ],
      "stateMutability": "view",
      "type": "function"
    },
    {
      "inputs": [
        {
          "internalType": "bytes32",
          "name": "role",
          "type": "bytes32"
        },
        {
          "internalType": "address",
          "name": "account",
          "type": "address"
        }
      ],
      "name": "grantRole",
      "outputs": [],
      "stateMutability": "nonpayable",
      "type": "function"
    },
    {
      "inputs": [
        {
          "internalType": "bytes32",
          "name": "role",
          "type": "bytes32"
        },
        {
          "internalType": "address",
          "name": "account",
          "type": "address"
        }
      ],
      "name": "hasRole",
      "outputs": [
        {
          "internalType": "bool",
          "name": "",
          "type": "bool"
        }
      ],
      "stateMutability": "view",
      "type": "function"
    },
    {
      "inputs": [
        {
          "internalType": "uint256",
          "name": "cid",
          "type": "uint256"
        }
      ],
      "name": "holderOf",
      "outputs": [
        {
          "internalType": "address",
          "name": "",
          "type": "address"
        }
      ],
      "stateMutability": "view",
      "type": "function"
    },
    {
      "inputs": [],
      "name": "initialize",
      "outputs": [],
      "stateMutability": "nonpayable",
      "type": "function"
    },
    {
      "inputs": [
        {
          "internalType": "address",
          "name": "operator",
          "type": "address"
        },
        {
          "internalType": "uint256",
          "name": "cid",
          "type": "uint256"
        }
      ],
      "name": "isApprovedFor",
      "outputs": [
        {
          "internalType": "bool",
          "name": "",
          "type": "bool"
        }
      ],
      "stateMutability": "view",
      "type": "function"
    },
    {
      "inputs": [
        {
          "internalType": "address",
          "name": "account",
          "type": "address"
        },
        {
          "internalType": "address",
          "name": "operator",
          "type": "address"
        }
      ],
      "name": "isApprovedForAll",
      "outputs": [
        {
          "internalType": "bool",
          "name": "",
          "type": "bool"
        }
      ],
      "stateMutability": "view",
      "type": "function"
    },
    {
      "inputs": [
        {
          "internalType": "address",
          "name": "account",
          "type": "address"
        },
        {
          "internalType": "uint256",
          "name": "cid",
          "type": "uint256"
        }
      ],
      "name": "mint",
      "outputs": [],
      "stateMutability": "nonpayable",
      "type": "function"
    },
    {
      "inputs": [
        {
          "internalType": "address",
          "name": "to",
          "type": "address"
        },
        {
          "internalType": "uint256[]",
          "name": "cids",
          "type": "uint256[]"
        }
      ],
      "name": "mintBatch",
      "outputs": [],
      "stateMutability": "nonpayable",
      "type": "function"
    },
    {
      "inputs": [
        {
          "internalType": "bytes32",
          "name": "role",
          "type": "bytes32"
        },
        {
          "internalType": "address",
          "name": "account",
          "type": "address"
        }
      ],
      "name": "renounceRole",
      "outputs": [],
      "stateMutability": "nonpayable",
      "type": "function"
    },
    {
      "inputs": [
        {
          "internalType": "bytes32",
          "name": "role",
          "type": "bytes32"
        },
        {
          "internalType": "address",
          "name": "account",
          "type": "address"
        }
      ],
      "name": "revokeRole",
      "outputs": [],
      "stateMutability": "nonpayable",
      "type": "function"
    },
    {
      "inputs": [
        {
          "internalType": "address",
          "name": "from",
          "type": "address"
        },
        {
          "internalType": "address",
          "name": "to",
          "type": "address"
        },
        {
          "internalType": "uint256[]",
          "name": "ids",
          "type": "uint256[]"
        },
        {
          "internalType": "uint256[]",
          "name": "amounts",
          "type": "uint256[]"
        },
        {
          "internalType": "bytes",
          "name": "data",
          "type": "bytes"
        }
      ],
      "name": "safeBatchTransferFrom",
      "outputs": [],
      "stateMutability": "nonpayable",
      "type": "function"
    },
    {
      "inputs": [
        {
          "internalType": "uint256",
          "name": "cid",
          "type": "uint256"
        }
      ],
      "name": "safePurchase",
      "outputs": [],
      "stateMutability": "payable",
      "type": "function"
    },
    {
      "inputs": [
        {
          "internalType": "address",
          "name": "from",
          "type": "address"
        },
        {
          "internalType": "address",
          "name": "to",
          "type": "address"
        },
        {
          "internalType": "uint256",
          "name": "id",
          "type": "uint256"
        },
        {
          "internalType": "uint256",
          "name": "amount",
          "type": "uint256"
        },
        {
          "internalType": "bytes",
          "name": "data",
          "type": "bytes"
        }
      ],
      "name": "safeTransferFrom",
      "outputs": [],
      "stateMutability": "nonpayable",
      "type": "function"
    },
    {
      "inputs": [
        {
          "internalType": "address",
          "name": "operator",
          "type": "address"
        },
        {
          "internalType": "uint256",
          "name": "cid",
          "type": "uint256"
        },
        {
          "internalType": "uint256",
          "name": "approved",
          "type": "uint256"
        }
      ],
      "name": "setApprovalFor",
      "outputs": [],
      "stateMutability": "nonpayable",
      "type": "function"
    },
    {
      "inputs": [
        {
          "internalType": "address",
          "name": "operator",
          "type": "address"
        },
        {
          "internalType": "bool",
          "name": "approved",
          "type": "bool"
        }
      ],
      "name": "setApprovalForAll",
      "outputs": [],
      "stateMutability": "nonpayable",
      "type": "function"
    },
    {
      "inputs": [
        {
          "internalType": "string",
          "name": "newuri",
          "type": "string"
        }
      ],
      "name": "setURI",
      "outputs": [],
      "stateMutability": "nonpayable",
      "type": "function"
    },
    {
      "inputs": [
        {
          "internalType": "bytes4",
          "name": "interfaceId",
          "type": "bytes4"
        }
      ],
      "name": "supportsInterface",
      "outputs": [
        {
          "internalType": "bool",
          "name": "",
          "type": "bool"
        }
      ],
      "stateMutability": "view",
      "type": "function"
    },
    {
      "inputs": [
        {
          "internalType": "address",
          "name": "from",
          "type": "address"
        },
        {
          "internalType": "address",
          "name": "to",
          "type": "address"
        },
        {
          "internalType": "uint256",
          "name": "cid",
          "type": "uint256"
        }
      ],
      "name": "transfer",
      "outputs": [],
      "stateMutability": "nonpayable",
      "type": "function"
    },
    {
      "inputs": [],
      "name": "upgrade",
      "outputs": [],
      "stateMutability": "nonpayable",
      "type": "function"
    },
    {
      "inputs": [
        {
          "internalType": "uint256",
          "name": "_tokenId",
          "type": "uint256"
        }
      ],
      "name": "uri",
      "outputs": [
        {
          "internalType": "string",
          "name": "",
          "type": "string"
        }
      ],
      "stateMutability": "view",
      "type": "function"
    },
    {
      "inputs": [],
      "name": "version",
      "outputs": [
        {
          "internalType": "uint32",
          "name": "",
          "type": "uint32"
        }
      ],
      "stateMutability": "view",
      "type": "function"
    }
  ],
  "transactionHash": "0xd16f91d2f01ebf40d1c55082bf1bd14f369d16841260b431b8d3cebb72805bc1",
  "args": [],
  "solcInputHash": "079b71d4f1713b4dd1ffb36f55e58172",
  "bytecode": "0x608060405234801561001057600080fd5b50615c8080620000216000396000f3fe6080604052600436106101b65760003560e01c806375ceb341116100ec578063beabacc81161008a578063d55ec69711610064578063d55ec69714610606578063dbacc2371461061d578063e985e9c51461065a578063f242432a14610697576101b6565b8063beabacc814610589578063c0833ee4146105b2578063d547741f146105dd576101b6565b80639dc29fac116100c65780639dc29fac146104e3578063a217fddf1461050c578063a22cb46514610537578063ba3dad8414610560576101b6565b806375ceb341146104665780638129fc1c1461048f57806391d14854146104a6576101b6565b806336568abe116101595780634e1273f4116101335780634e1273f4146103b957806354fd4d50146103f65780636b20c45414610421578063738f54691461044a576101b6565b806336568abe1461032a578063390ff1341461035357806340c10f1914610390576101b6565b80630e89341c116101955780630e89341c1461025e578063248a9ca31461029b5780632eb2c2d6146102d85780632f2ff15d14610301576101b6565b8062fdd58e146101bb57806301ffc9a7146101f857806302fe530514610235575b600080fd5b3480156101c757600080fd5b506101e260048036038101906101dd91906140b9565b6106c0565b6040516101ef9190614e3e565b60405180910390f35b34801561020457600080fd5b5061021f600480360381019061021a9190614231565b61078a565b60405161022c9190614a86565b60405180910390f35b34801561024157600080fd5b5061025c6004803603810190610257919061428b565b61079c565b005b34801561026a57600080fd5b50610285600480360381019061028091906142d4565b6107f4565b6040516102929190614abc565b60405180910390f35b3480156102a757600080fd5b506102c260048036038101906102bd91906141c4565b61082a565b6040516102cf9190614aa1565b60405180910390f35b3480156102e457600080fd5b506102ff60048036038101906102fa9190613dd9565b61084a565b005b34801561030d57600080fd5b50610328600480360381019061032391906141f1565b6108eb565b005b34801561033657600080fd5b50610351600480360381019061034c91906141f1565b610914565b005b34801561035f57600080fd5b5061037a600480360381019061037591906140b9565b610997565b6040516103879190614a86565b60405180910390f35b34801561039c57600080fd5b506103b760048036038101906103b291906140b9565b6109f5565b005b3480156103c557600080fd5b506103e060048036038101906103db919061414c565b610b75565b6040516103ed9190614a2d565b60405180910390f35b34801561040257600080fd5b5061040b610c8e565b6040516104189190614e82565b60405180910390f35b34801561042d57600080fd5b5061044860048036038101906104439190613fee565b610ca4565b005b610464600480360381019061045f91906142d4565b610d00565b005b34801561047257600080fd5b5061048d60048036038101906104889190613f92565b6110d4565b005b34801561049b57600080fd5b506104a46113a0565b005b3480156104b257600080fd5b506104cd60048036038101906104c891906141f1565b6114ee565b6040516104da9190614a86565b60405180910390f35b3480156104ef57600080fd5b5061050a600480360381019061050591906140b9565b611559565b005b34801561051857600080fd5b5061052161160b565b60405161052e9190614aa1565b60405180910390f35b34801561054357600080fd5b5061055e60048036038101906105599190614079565b611612565b005b34801561056c57600080fd5b50610587600480360381019061058291906140f9565b611793565b005b34801561059557600080fd5b506105b060048036038101906105ab9190613ea8565b61195b565b005b3480156105be57600080fd5b506105c76119f8565b6040516105d49190614aa1565b60405180910390f35b3480156105e957600080fd5b5061060460048036038101906105ff91906141f1565b611a1c565b005b34801561061257600080fd5b5061061b611a45565b005b34801561062957600080fd5b50610644600480360381019061063f91906142d4565b611ad4565b6040516106519190614950565b60405180910390f35b34801561066657600080fd5b50610681600480360381019061067c9190613d99565b611b11565b60405161068e9190614a86565b60405180910390f35b3480156106a357600080fd5b506106be60048036038101906106b99190613efb565b611ba5565b005b60008073ffffffffffffffffffffffffffffffffffffffff168373ffffffffffffffffffffffffffffffffffffffff161415610731576040517f08c379a000000000000000000000000000000000000000000000000000000000815260040161072890614b5e565b60405180910390fd5b6065600083815260200190815260200160002060008473ffffffffffffffffffffffffffffffffffffffff1673ffffffffffffffffffffffffffffffffffffffff16815260200190815260200160002054905092915050565b600061079582611c46565b9050919050565b6107a96000801b336114ee565b6107e8576040517f08c379a00000000000000000000000000000000000000000000000000000000081526004016107df90614bfe565b60405180910390fd5b6107f181611cc0565b50565b60608061080083611cda565b90508060405160200161081391906148d4565b604051602081830303815290604052915050919050565b600060976000838152602001908152602001600020600101549050919050565b610852611e4f565b73ffffffffffffffffffffffffffffffffffffffff168573ffffffffffffffffffffffffffffffffffffffff161480610898575061089785610892611e4f565b611b11565b5b6108d7576040517f08c379a00000000000000000000000000000000000000000000000000000000081526004016108ce90614c3e565b60405180910390fd5b6108e48585858585611e57565b5050505050565b6108f48261082a565b61090581610900611e4f565b61216e565b61090f838361220b565b505050565b61091c611e4f565b73ffffffffffffffffffffffffffffffffffffffff168173ffffffffffffffffffffffffffffffffffffffff1614610989576040517f08c379a000000000000000000000000000000000000000000000000000000000815260040161098090614e1e565b60405180910390fd5b61099382826122ec565b5050565b60008060c9600084815260200190815260200160002060008573ffffffffffffffffffffffffffffffffffffffff1673ffffffffffffffffffffffffffffffffffffffff168152602001908152602001600020541415905092915050565b600073ffffffffffffffffffffffffffffffffffffffff1660ca600083815260200190815260200160002060009054906101000a900473ffffffffffffffffffffffffffffffffffffffff1673ffffffffffffffffffffffffffffffffffffffff1614610a97576040517f08c379a0000000000000000000000000000000000000000000000000000000008152600401610a8e90614b3e565b60405180910390fd5b610ac17f3a5b873628a2c49bf313473942acc8932f6f84c76b74bf3db0e4d8b51277a623336114ee565b610b00576040517f08c379a0000000000000000000000000000000000000000000000000000000008152600401610af790614d5e565b60405180910390fd5b8160ca600083815260200190815260200160002060006101000a81548173ffffffffffffffffffffffffffffffffffffffff021916908373ffffffffffffffffffffffffffffffffffffffff160217905550610b718282600160ff16604051806020016040528060008152506123ce565b5050565b60608151835114610bbb576040517f08c379a0000000000000000000000000000000000000000000000000000000008152600401610bb290614dbe565b60405180910390fd5b6000835167ffffffffffffffff811115610bd857610bd7615313565b5b604051908082528060200260200182016040528015610c065781602001602082028036833780820191505090505b50905060005b8451811015610c8357610c53858281518110610c2b57610c2a6152e4565b5b6020026020010151858381518110610c4657610c456152e4565b5b60200260200101516106c0565b828281518110610c6657610c656152e4565b5b60200260200101818152505080610c7c90615210565b9050610c0c565b508091505092915050565b60cb60009054906101000a900463ffffffff1681565b610cb16000801b336114ee565b610cf0576040517f08c379a0000000000000000000000000000000000000000000000000000000008152600401610ce790614cbe565b60405180910390fd5b610cfb838383612565565b505050565b600073ffffffffffffffffffffffffffffffffffffffff1660ca600083815260200190815260200160002060009054906101000a900473ffffffffffffffffffffffffffffffffffffffff1673ffffffffffffffffffffffffffffffffffffffff161415610da3576040517f08c379a0000000000000000000000000000000000000000000000000000000008152600401610d9a90614bde565b60405180910390fd5b3373ffffffffffffffffffffffffffffffffffffffff1660ca600083815260200190815260200160002060009054906101000a900473ffffffffffffffffffffffffffffffffffffffff1673ffffffffffffffffffffffffffffffffffffffff161415610e45576040517f08c379a0000000000000000000000000000000000000000000000000000000008152600401610e3c90614b7e565b60405180910390fd5b610e4f3382610997565b610e8e576040517f08c379a0000000000000000000000000000000000000000000000000000000008152600401610e8590614d3e565b60405180910390fd5b60c9600082815260200190815260200160002060003373ffffffffffffffffffffffffffffffffffffffff1673ffffffffffffffffffffffffffffffffffffffff168152602001908152602001600020543414610f20576040517f08c379a0000000000000000000000000000000000000000000000000000000008152600401610f1790614cde565b60405180910390fd5b600060ca600083815260200190815260200160002060009054906101000a900473ffffffffffffffffffffffffffffffffffffffff16905060008173ffffffffffffffffffffffffffffffffffffffff1634604051610f7e90614901565b60006040518083038185875af1925050503d8060008114610fbb576040519150601f19603f3d011682016040523d82523d6000602084013e610fc0565b606091505b5050905080611004576040517f08c379a0000000000000000000000000000000000000000000000000000000008152600401610ffb90614d1e565b60405180910390fd5b61107d60ca600085815260200190815260200160002060009054906101000a900473ffffffffffffffffffffffffffffffffffffffff163385600160ff166040518060400160405280600381526020017f3078300000000000000000000000000000000000000000000000000000000000815250612818565b3360ca600085815260200190815260200160002060006101000a81548173ffffffffffffffffffffffffffffffffffffffff021916908373ffffffffffffffffffffffffffffffffffffffff160217905550505050565b6110fe7f3a5b873628a2c49bf313473942acc8932f6f84c76b74bf3db0e4d8b51277a623336114ee565b61113d576040517f08c379a000000000000000000000000000000000000000000000000000000000815260040161113490614d5e565b60405180910390fd5b6000815167ffffffffffffffff81111561115a57611159615313565b5b6040519080825280602002602001820160405280156111885781602001602082028036833780820191505090505b5090506000825167ffffffffffffffff8111156111a8576111a7615313565b5b6040519080825280602002602001820160405280156111d65781602001602082028036833780820191505090505b50905060005b835181101561137e57600073ffffffffffffffffffffffffffffffffffffffff1660ca6000868481518110611214576112136152e4565b5b6020026020010151815260200190815260200160002060009054906101000a900473ffffffffffffffffffffffffffffffffffffffff1673ffffffffffffffffffffffffffffffffffffffff16146112a1576040517f08c379a000000000000000000000000000000000000000000000000000000000815260040161129890614b3e565b60405180910390fd5b8381815181106112b4576112b36152e4565b5b60200260200101518382815181106112cf576112ce6152e4565b5b6020026020010181815250508460ca60008584815181106112f3576112f26152e4565b5b6020026020010151815260200190815260200160002060006101000a81548173ffffffffffffffffffffffffffffffffffffffff021916908373ffffffffffffffffffffffffffffffffffffffff160217905550600160ff1682828151811061135f5761135e6152e4565b5b602002602001018181525050808061137690615210565b9150506111dc565b5061139a84838360405180602001604052806000815250612a9d565b50505050565b600060019054906101000a900460ff16806113c6575060008054906101000a900460ff16155b611405576040517f08c379a00000000000000000000000000000000000000000000000000000000081526004016113fc90614c5e565b60405180910390fd5b60008060019054906101000a900460ff161590508015611455576001600060016101000a81548160ff02191690831515021790555060016000806101000a81548160ff0219169083151502179055505b6114936040518060400160405280601881526020017f697066733a2f2f66307b69647d2f696e6465782e6a736f6e0000000000000000815250612cbc565b6114a06000801b33612daf565b6114ca7f3a5b873628a2c49bf313473942acc8932f6f84c76b74bf3db0e4d8b51277a62333612daf565b80156114eb5760008060016101000a81548160ff0219169083151502179055505b50565b60006097600084815260200190815260200160002060000160008373ffffffffffffffffffffffffffffffffffffffff1673ffffffffffffffffffffffffffffffffffffffff16815260200190815260200160002060009054906101000a900460ff16905092915050565b6115666000801b336114ee565b6115a5576040517f08c379a000000000000000000000000000000000000000000000000000000000815260040161159c90614cbe565b60405180910390fd5b6115b48282600160ff16612dbd565b600060ca600083815260200190815260200160002060006101000a81548173ffffffffffffffffffffffffffffffffffffffff021916908373ffffffffffffffffffffffffffffffffffffffff1602179055505050565b6000801b81565b8173ffffffffffffffffffffffffffffffffffffffff16611631611e4f565b73ffffffffffffffffffffffffffffffffffffffff161415611688576040517f08c379a000000000000000000000000000000000000000000000000000000000815260040161167f90614d7e565b60405180910390fd5b8060666000611695611e4f565b73ffffffffffffffffffffffffffffffffffffffff1673ffffffffffffffffffffffffffffffffffffffff16815260200190815260200160002060008473ffffffffffffffffffffffffffffffffffffffff1673ffffffffffffffffffffffffffffffffffffffff16815260200190815260200160002060006101000a81548160ff0219169083151502179055508173ffffffffffffffffffffffffffffffffffffffff16611742611e4f565b73ffffffffffffffffffffffffffffffffffffffff167f17307eab39ab6107e8899845ad3d59bd9653f200f220920489ca2b5937696c31836040516117879190614a86565b60405180910390a35050565b8273ffffffffffffffffffffffffffffffffffffffff166117b2611e4f565b73ffffffffffffffffffffffffffffffffffffffff161415611809576040517f08c379a000000000000000000000000000000000000000000000000000000000815260040161180090614d7e565b60405180910390fd5b60ca600083815260200190815260200160002060009054906101000a900473ffffffffffffffffffffffffffffffffffffffff1673ffffffffffffffffffffffffffffffffffffffff1661185b611e4f565b73ffffffffffffffffffffffffffffffffffffffff16146118b1576040517f08c379a00000000000000000000000000000000000000000000000000000000081526004016118a890614cfe565b60405180910390fd5b8060c9600084815260200190815260200160002060008573ffffffffffffffffffffffffffffffffffffffff1673ffffffffffffffffffffffffffffffffffffffff168152602001908152602001600020819055508273ffffffffffffffffffffffffffffffffffffffff167f0a5d49223cdca66ecee577e644907f9d77e9f5c6743247ebddd0c002ba8083b2838360405161194e929190614e59565b60405180910390a2505050565b6119a1838383600160ff166040518060400160405280600381526020017f3078300000000000000000000000000000000000000000000000000000000000815250611ba5565b8160ca600083815260200190815260200160002060006101000a81548173ffffffffffffffffffffffffffffffffffffffff021916908373ffffffffffffffffffffffffffffffffffffffff160217905550505050565b7f3a5b873628a2c49bf313473942acc8932f6f84c76b74bf3db0e4d8b51277a62381565b611a258261082a565b611a3681611a31611e4f565b61216e565b611a4083836122ec565b505050565b611a526000801b336114ee565b611a91576040517f08c379a0000000000000000000000000000000000000000000000000000000008152600401611a8890614d9e565b60405180910390fd5b60cb600081819054906101000a900463ffffffff1680929190611ab390615259565b91906101000a81548163ffffffff021916908363ffffffff16021790555050565b600060ca600083815260200190815260200160002060009054906101000a900473ffffffffffffffffffffffffffffffffffffffff169050919050565b6000606660008473ffffffffffffffffffffffffffffffffffffffff1673ffffffffffffffffffffffffffffffffffffffff16815260200190815260200160002060008373ffffffffffffffffffffffffffffffffffffffff1673ffffffffffffffffffffffffffffffffffffffff16815260200190815260200160002060009054906101000a900460ff16905092915050565b611bad611e4f565b73ffffffffffffffffffffffffffffffffffffffff168573ffffffffffffffffffffffffffffffffffffffff161480611bf35750611bf285611bed611e4f565b611b11565b5b611c32576040517f08c379a0000000000000000000000000000000000000000000000000000000008152600401611c2990614bbe565b60405180910390fd5b611c3f8585858585612818565b5050505050565b60007f7965db0b000000000000000000000000000000000000000000000000000000007bffffffffffffffffffffffffffffffffffffffffffffffffffffffff1916827bffffffffffffffffffffffffffffffffffffffffffffffffffffffff19161480611cb95750611cb882612fdc565b5b9050919050565b8060679080519060200190611cd6929190613a5c565b5050565b60606000821415611d22576040518060400160405280600181526020017f30000000000000000000000000000000000000000000000000000000000000008152509050611e4a565b600082905060005b60008214611d4c578080611d3d90615210565b915050600482901c9150611d2a565b6000600f905060008267ffffffffffffffff811115611d6e57611d6d615313565b5b6040519080825280601f01601f191660200182016040528015611da05781602001600182028036833780820191505090505b50905060008390505b60008714611e41576000838816905060098111611dd557806030611dcd9190615003565b60f81b611de6565b806037611de29190615003565b60f81b5b8383611df190615183565b93508381518110611e0557611e046152e4565b5b60200101907effffffffffffffffffffffffffffffffffffffffffffffffffffffffffffff1916908160001a905350600488901c975050611da9565b81955050505050505b919050565b600033905090565b8151835114611e9b576040517f08c379a0000000000000000000000000000000000000000000000000000000008152600401611e9290614dde565b60405180910390fd5b600073ffffffffffffffffffffffffffffffffffffffff168473ffffffffffffffffffffffffffffffffffffffff161415611f0b576040517f08c379a0000000000000000000000000000000000000000000000000000000008152600401611f0290614c1e565b60405180910390fd5b6000611f15611e4f565b9050611f258187878787876130be565b60005b84518110156120d9576000858281518110611f4657611f456152e4565b5b602002602001015190506000858381518110611f6557611f646152e4565b5b6020026020010151905060006065600084815260200190815260200160002060008b73ffffffffffffffffffffffffffffffffffffffff1673ffffffffffffffffffffffffffffffffffffffff16815260200190815260200160002054905081811015612007576040517f08c379a0000000000000000000000000000000000000000000000000000000008152600401611ffe90614c9e565b60405180910390fd5b8181036065600085815260200190815260200160002060008c73ffffffffffffffffffffffffffffffffffffffff1673ffffffffffffffffffffffffffffffffffffffff16815260200190815260200160002081905550816065600085815260200190815260200160002060008b73ffffffffffffffffffffffffffffffffffffffff1673ffffffffffffffffffffffffffffffffffffffff16815260200190815260200160002060008282546120be9190615003565b92505081905550505050806120d290615210565b9050611f28565b508473ffffffffffffffffffffffffffffffffffffffff168673ffffffffffffffffffffffffffffffffffffffff168273ffffffffffffffffffffffffffffffffffffffff167f4a39dc06d4c0dbc64b70af90fd698a233a518aa5d07e595d983b8c0526c8f7fb8787604051612150929190614a4f565b60405180910390a46121668187878787876130c6565b505050505050565b61217882826114ee565b6122075761219d8173ffffffffffffffffffffffffffffffffffffffff1660146132ad565b6121ab8360001c60206132ad565b6040516020016121bc929190614916565b6040516020818303038152906040526040517f08c379a00000000000000000000000000000000000000000000000000000000081526004016121fe9190614abc565b60405180910390fd5b5050565b61221582826114ee565b6122e85760016097600084815260200190815260200160002060000160008373ffffffffffffffffffffffffffffffffffffffff1673ffffffffffffffffffffffffffffffffffffffff16815260200190815260200160002060006101000a81548160ff02191690831515021790555061228d611e4f565b73ffffffffffffffffffffffffffffffffffffffff168173ffffffffffffffffffffffffffffffffffffffff16837f2f8788117e7eff1d82e926ec794901d17c78024a50270940304540a733656f0d60405160405180910390a45b5050565b6122f682826114ee565b156123ca5760006097600084815260200190815260200160002060000160008373ffffffffffffffffffffffffffffffffffffffff1673ffffffffffffffffffffffffffffffffffffffff16815260200190815260200160002060006101000a81548160ff02191690831515021790555061236f611e4f565b73ffffffffffffffffffffffffffffffffffffffff168173ffffffffffffffffffffffffffffffffffffffff16837ff6391f5c32d9c69d2a47ea670b442974b53935d1edc7fd64eb21e047a839171b60405160405180910390a45b5050565b600073ffffffffffffffffffffffffffffffffffffffff168473ffffffffffffffffffffffffffffffffffffffff16141561243e576040517f08c379a000000000000000000000000000000000000000000000000000000000815260040161243590614dfe565b60405180910390fd5b6000612448611e4f565b90506124698160008761245a886134e9565b612463886134e9565b876130be565b826065600086815260200190815260200160002060008773ffffffffffffffffffffffffffffffffffffffff1673ffffffffffffffffffffffffffffffffffffffff16815260200190815260200160002060008282546124c99190615003565b925050819055508473ffffffffffffffffffffffffffffffffffffffff16600073ffffffffffffffffffffffffffffffffffffffff168273ffffffffffffffffffffffffffffffffffffffff167fc3d58168c5ae7397731d063d5bbf3d657854427343f4c083240f7aacaa2d0f628787604051612547929190614e59565b60405180910390a461255e81600087878787613563565b5050505050565b600073ffffffffffffffffffffffffffffffffffffffff168373ffffffffffffffffffffffffffffffffffffffff1614156125d5576040517f08c379a00000000000000000000000000000000000000000000000000000000081526004016125cc90614c7e565b60405180910390fd5b8051825114612619576040517f08c379a000000000000000000000000000000000000000000000000000000000815260040161261090614dde565b60405180910390fd5b6000612623611e4f565b9050612643818560008686604051806020016040528060008152506130be565b60005b8351811015612792576000848281518110612664576126636152e4565b5b602002602001015190506000848381518110612683576126826152e4565b5b6020026020010151905060006065600084815260200190815260200160002060008973ffffffffffffffffffffffffffffffffffffffff1673ffffffffffffffffffffffffffffffffffffffff16815260200190815260200160002054905081811015612725576040517f08c379a000000000000000000000000000000000000000000000000000000000815260040161271c90614b9e565b60405180910390fd5b8181036065600085815260200190815260200160002060008a73ffffffffffffffffffffffffffffffffffffffff1673ffffffffffffffffffffffffffffffffffffffff16815260200190815260200160002081905550505050808061278a90615210565b915050612646565b50600073ffffffffffffffffffffffffffffffffffffffff168473ffffffffffffffffffffffffffffffffffffffff168273ffffffffffffffffffffffffffffffffffffffff167f4a39dc06d4c0dbc64b70af90fd698a233a518aa5d07e595d983b8c0526c8f7fb868660405161280a929190614a4f565b60405180910390a450505050565b600073ffffffffffffffffffffffffffffffffffffffff168473ffffffffffffffffffffffffffffffffffffffff161415612888576040517f08c379a000000000000000000000000000000000000000000000000000000000815260040161287f90614c1e565b60405180910390fd5b6000612892611e4f565b90506128b28187876128a3886134e9565b6128ac886134e9565b876130be565b60006065600086815260200190815260200160002060008873ffffffffffffffffffffffffffffffffffffffff1673ffffffffffffffffffffffffffffffffffffffff1681526020019081526020016000205490508381101561294a576040517f08c379a000000000000000000000000000000000000000000000000000000000815260040161294190614c9e565b60405180910390fd5b8381036065600087815260200190815260200160002060008973ffffffffffffffffffffffffffffffffffffffff1673ffffffffffffffffffffffffffffffffffffffff16815260200190815260200160002081905550836065600087815260200190815260200160002060008873ffffffffffffffffffffffffffffffffffffffff1673ffffffffffffffffffffffffffffffffffffffff1681526020019081526020016000206000828254612a019190615003565b925050819055508573ffffffffffffffffffffffffffffffffffffffff168773ffffffffffffffffffffffffffffffffffffffff168373ffffffffffffffffffffffffffffffffffffffff167fc3d58168c5ae7397731d063d5bbf3d657854427343f4c083240f7aacaa2d0f628888604051612a7e929190614e59565b60405180910390a4612a94828888888888613563565b50505050505050565b600073ffffffffffffffffffffffffffffffffffffffff168473ffffffffffffffffffffffffffffffffffffffff161415612b0d576040517f08c379a0000000000000000000000000000000000000000000000000000000008152600401612b0490614dfe565b60405180910390fd5b8151835114612b51576040517f08c379a0000000000000000000000000000000000000000000000000000000008152600401612b4890614dde565b60405180910390fd5b6000612b5b611e4f565b9050612b6c816000878787876130be565b60005b8451811015612c2657838181518110612b8b57612b8a6152e4565b5b602002602001015160656000878481518110612baa57612ba96152e4565b5b6020026020010151815260200190815260200160002060008873ffffffffffffffffffffffffffffffffffffffff1673ffffffffffffffffffffffffffffffffffffffff1681526020019081526020016000206000828254612c0c9190615003565b925050819055508080612c1e90615210565b915050612b6f565b508473ffffffffffffffffffffffffffffffffffffffff16600073ffffffffffffffffffffffffffffffffffffffff168273ffffffffffffffffffffffffffffffffffffffff167f4a39dc06d4c0dbc64b70af90fd698a233a518aa5d07e595d983b8c0526c8f7fb8787604051612c9e929190614a4f565b60405180910390a4612cb5816000878787876130c6565b5050505050565b600060019054906101000a900460ff1680612ce2575060008054906101000a900460ff16155b612d21576040517f08c379a0000000000000000000000000000000000000000000000000000000008152600401612d1890614c5e565b60405180910390fd5b60008060019054906101000a900460ff161590508015612d71576001600060016101000a81548160ff02191690831515021790555060016000806101000a81548160ff0219169083151502179055505b612d7961374a565b612d81613823565b612d8a826138fc565b8015612dab5760008060016101000a81548160ff0219169083151502179055505b5050565b612db9828261220b565b5050565b600073ffffffffffffffffffffffffffffffffffffffff168373ffffffffffffffffffffffffffffffffffffffff161415612e2d576040517f08c379a0000000000000000000000000000000000000000000000000000000008152600401612e2490614c7e565b60405180910390fd5b6000612e37611e4f565b9050612e6781856000612e49876134e9565b612e52876134e9565b604051806020016040528060008152506130be565b60006065600085815260200190815260200160002060008673ffffffffffffffffffffffffffffffffffffffff1673ffffffffffffffffffffffffffffffffffffffff16815260200190815260200160002054905082811015612eff576040517f08c379a0000000000000000000000000000000000000000000000000000000008152600401612ef690614b9e565b60405180910390fd5b8281036065600086815260200190815260200160002060008773ffffffffffffffffffffffffffffffffffffffff1673ffffffffffffffffffffffffffffffffffffffff16815260200190815260200160002081905550600073ffffffffffffffffffffffffffffffffffffffff168573ffffffffffffffffffffffffffffffffffffffff168373ffffffffffffffffffffffffffffffffffffffff167fc3d58168c5ae7397731d063d5bbf3d657854427343f4c083240f7aacaa2d0f628787604051612fcd929190614e59565b60405180910390a45050505050565b60007fd9b67a26000000000000000000000000000000000000000000000000000000007bffffffffffffffffffffffffffffffffffffffffffffffffffffffff1916827bffffffffffffffffffffffffffffffffffffffffffffffffffffffff191614806130a757507f0e89341c000000000000000000000000000000000000000000000000000000007bffffffffffffffffffffffffffffffffffffffffffffffffffffffff1916827bffffffffffffffffffffffffffffffffffffffffffffffffffffffff1916145b806130b757506130b6826139df565b5b9050919050565b505050505050565b6130e58473ffffffffffffffffffffffffffffffffffffffff16613a49565b156132a5578373ffffffffffffffffffffffffffffffffffffffff1663bc197c8187878686866040518663ffffffff1660e01b815260040161312b95949392919061496b565b602060405180830381600087803b15801561314557600080fd5b505af192505050801561317657506040513d601f19601f82011682018060405250810190613173919061425e565b60015b61321c57613182615342565b806308c379a014156131df5750613197615b41565b806131a257506131e1565b806040517f08c379a00000000000000000000000000000000000000000000000000000000081526004016131d69190614abc565b60405180910390fd5b505b6040517f08c379a000000000000000000000000000000000000000000000000000000000815260040161321390614ade565b60405180910390fd5b63bc197c8160e01b7bffffffffffffffffffffffffffffffffffffffffffffffffffffffff1916817bffffffffffffffffffffffffffffffffffffffffffffffffffffffff1916146132a3576040517f08c379a000000000000000000000000000000000000000000000000000000000815260040161329a90614b1e565b60405180910390fd5b505b505050505050565b6060600060028360026132c09190615059565b6132ca9190615003565b67ffffffffffffffff8111156132e3576132e2615313565b5b6040519080825280601f01601f1916602001820160405280156133155781602001600182028036833780820191505090505b5090507f30000000000000000000000000000000000000000000000000000000000000008160008151811061334d5761334c6152e4565b5b60200101907effffffffffffffffffffffffffffffffffffffffffffffffffffffffffffff1916908160001a9053507f7800000000000000000000000000000000000000000000000000000000000000816001815181106133b1576133b06152e4565b5b60200101907effffffffffffffffffffffffffffffffffffffffffffffffffffffffffffff1916908160001a905350600060018460026133f19190615059565b6133fb9190615003565b90505b600181111561349b577f3031323334353637383961626364656600000000000000000000000000000000600f86166010811061343d5761343c6152e4565b5b1a60f81b828281518110613454576134536152e4565b5b60200101907effffffffffffffffffffffffffffffffffffffffffffffffffffffffffffff1916908160001a905350600485901c94508061349490615183565b90506133fe565b50600084146134df576040517f08c379a00000000000000000000000000000000000000000000000000000000081526004016134d690614afe565b60405180910390fd5b8091505092915050565b60606000600167ffffffffffffffff81111561350857613507615313565b5b6040519080825280602002602001820160405280156135365781602001602082028036833780820191505090505b509050828160008151811061354e5761354d6152e4565b5b60200260200101818152505080915050919050565b6135828473ffffffffffffffffffffffffffffffffffffffff16613a49565b15613742578373ffffffffffffffffffffffffffffffffffffffff1663f23a6e6187878686866040518663ffffffff1660e01b81526004016135c89594939291906149d3565b602060405180830381600087803b1580156135e257600080fd5b505af192505050801561361357506040513d601f19601f82011682018060405250810190613610919061425e565b60015b6136b95761361f615342565b806308c379a0141561367c5750613634615b41565b8061363f575061367e565b806040517f08c379a00000000000000000000000000000000000000000000000000000000081526004016136739190614abc565b60405180910390fd5b505b6040517f08c379a00000000000000000000000000000000000000000000000000000000081526004016136b090614ade565b60405180910390fd5b63f23a6e6160e01b7bffffffffffffffffffffffffffffffffffffffffffffffffffffffff1916817bffffffffffffffffffffffffffffffffffffffffffffffffffffffff191614613740576040517f08c379a000000000000000000000000000000000000000000000000000000000815260040161373790614b1e565b60405180910390fd5b505b505050505050565b600060019054906101000a900460ff1680613770575060008054906101000a900460ff16155b6137af576040517f08c379a00000000000000000000000000000000000000000000000000000000081526004016137a690614c5e565b60405180910390fd5b60008060019054906101000a900460ff1615905080156137ff576001600060016101000a81548160ff02191690831515021790555060016000806101000a81548160ff0219169083151502179055505b80156138205760008060016101000a81548160ff0219169083151502179055505b50565b600060019054906101000a900460ff1680613849575060008054906101000a900460ff16155b613888576040517f08c379a000000000000000000000000000000000000000000000000000000000815260040161387f90614c5e565b60405180910390fd5b60008060019054906101000a900460ff1615905080156138d8576001600060016101000a81548160ff02191690831515021790555060016000806101000a81548160ff0219169083151502179055505b80156138f95760008060016101000a81548160ff0219169083151502179055505b50565b600060019054906101000a900460ff1680613922575060008054906101000a900460ff16155b613961576040517f08c379a000000000000000000000000000000000000000000000000000000000815260040161395890614c5e565b60405180910390fd5b60008060019054906101000a900460ff1615905080156139b1576001600060016101000a81548160ff02191690831515021790555060016000806101000a81548160ff0219169083151502179055505b6139ba82611cc0565b80156139db5760008060016101000a81548160ff0219169083151502179055505b5050565b60007f01ffc9a7000000000000000000000000000000000000000000000000000000007bffffffffffffffffffffffffffffffffffffffffffffffffffffffff1916827bffffffffffffffffffffffffffffffffffffffffffffffffffffffff1916149050919050565b600080823b905060008111915050919050565b828054613a68906151ad565b90600052602060002090601f016020900481019282613a8a5760008555613ad1565b82601f10613aa357805160ff1916838001178555613ad1565b82800160010185558215613ad1579182015b82811115613ad0578251825591602001919060010190613ab5565b5b509050613ade9190613ae2565b5090565b5b80821115613afb576000816000905550600101613ae3565b5090565b6000613b12613b0d84614ec2565b614e9d565b90508083825260208201905082856020860282011115613b3557613b34615369565b5b60005b85811015613b655781613b4b8882613c63565b845260208401935060208301925050600181019050613b38565b5050509392505050565b6000613b82613b7d84614eee565b614e9d565b90508083825260208201905082856020860282011115613ba557613ba4615369565b5b60005b85811015613bd55781613bbb8882613d84565b845260208401935060208301925050600181019050613ba8565b5050509392505050565b6000613bf2613bed84614f1a565b614e9d565b905082815260208101848484011115613c0e57613c0d61536e565b5b613c19848285615141565b509392505050565b6000613c34613c2f84614f4b565b614e9d565b905082815260208101848484011115613c5057613c4f61536e565b5b613c5b848285615141565b509392505050565b600081359050613c7281615bd7565b92915050565b600082601f830112613c8d57613c8c615364565b5b8135613c9d848260208601613aff565b91505092915050565b600082601f830112613cbb57613cba615364565b5b8135613ccb848260208601613b6f565b91505092915050565b600081359050613ce381615bee565b92915050565b600081359050613cf881615c05565b92915050565b600081359050613d0d81615c1c565b92915050565b600081519050613d2281615c1c565b92915050565b600082601f830112613d3d57613d3c615364565b5b8135613d4d848260208601613bdf565b91505092915050565b600082601f830112613d6b57613d6a615364565b5b8135613d7b848260208601613c21565b91505092915050565b600081359050613d9381615c33565b92915050565b60008060408385031215613db057613daf615378565b5b6000613dbe85828601613c63565b9250506020613dcf85828601613c63565b9150509250929050565b600080600080600060a08688031215613df557613df4615378565b5b6000613e0388828901613c63565b9550506020613e1488828901613c63565b945050604086013567ffffffffffffffff811115613e3557613e34615373565b5b613e4188828901613ca6565b935050606086013567ffffffffffffffff811115613e6257613e61615373565b5b613e6e88828901613ca6565b925050608086013567ffffffffffffffff811115613e8f57613e8e615373565b5b613e9b88828901613d28565b9150509295509295909350565b600080600060608486031215613ec157613ec0615378565b5b6000613ecf86828701613c63565b9350506020613ee086828701613c63565b9250506040613ef186828701613d84565b9150509250925092565b600080600080600060a08688031215613f1757613f16615378565b5b6000613f2588828901613c63565b9550506020613f3688828901613c63565b9450506040613f4788828901613d84565b9350506060613f5888828901613d84565b925050608086013567ffffffffffffffff811115613f7957613f78615373565b5b613f8588828901613d28565b9150509295509295909350565b60008060408385031215613fa957613fa8615378565b5b6000613fb785828601613c63565b925050602083013567ffffffffffffffff811115613fd857613fd7615373565b5b613fe485828601613ca6565b9150509250929050565b60008060006060848603121561400757614006615378565b5b600061401586828701613c63565b935050602084013567ffffffffffffffff81111561403657614035615373565b5b61404286828701613ca6565b925050604084013567ffffffffffffffff81111561406357614062615373565b5b61406f86828701613ca6565b9150509250925092565b600080604083850312156140905761408f615378565b5b600061409e85828601613c63565b92505060206140af85828601613cd4565b9150509250929050565b600080604083850312156140d0576140cf615378565b5b60006140de85828601613c63565b92505060206140ef85828601613d84565b9150509250929050565b60008060006060848603121561411257614111615378565b5b600061412086828701613c63565b935050602061413186828701613d84565b925050604061414286828701613d84565b9150509250925092565b6000806040838503121561416357614162615378565b5b600083013567ffffffffffffffff81111561418157614180615373565b5b61418d85828601613c78565b925050602083013567ffffffffffffffff8111156141ae576141ad615373565b5b6141ba85828601613ca6565b9150509250929050565b6000602082840312156141da576141d9615378565b5b60006141e884828501613ce9565b91505092915050565b6000806040838503121561420857614207615378565b5b600061421685828601613ce9565b925050602061422785828601613c63565b9150509250929050565b60006020828403121561424757614246615378565b5b600061425584828501613cfe565b91505092915050565b60006020828403121561427457614273615378565b5b600061428284828501613d13565b91505092915050565b6000602082840312156142a1576142a0615378565b5b600082013567ffffffffffffffff8111156142bf576142be615373565b5b6142cb84828501613d56565b91505092915050565b6000602082840312156142ea576142e9615378565b5b60006142f884828501613d84565b91505092915050565b600061430d83836148a7565b60208301905092915050565b614322816150b3565b82525050565b600061433382614f8c565b61433d8185614fba565b935061434883614f7c565b8060005b838110156143795781516143608882614301565b975061436b83614fad565b92505060018101905061434c565b5085935050505092915050565b61438f816150c5565b82525050565b61439e816150d1565b82525050565b60006143af82614f97565b6143b98185614fcb565b93506143c9818560208601615150565b6143d28161537d565b840191505092915050565b60006143e882614fa2565b6143f28185614fe7565b9350614402818560208601615150565b61440b8161537d565b840191505092915050565b600061442182614fa2565b61442b8185614ff8565b935061443b818560208601615150565b80840191505092915050565b6000614454603483614fe7565b915061445f8261539b565b604082019050919050565b6000614477600983614ff8565b9150614482826153ea565b600982019050919050565b600061449a602083614fe7565b91506144a582615413565b602082019050919050565b60006144bd602883614fe7565b91506144c88261543c565b604082019050919050565b60006144e0602583614fe7565b91506144eb8261548b565b604082019050919050565b6000614503602b83614fe7565b915061450e826154da565b604082019050919050565b6000614526600d83614fe7565b915061453182615529565b602082019050919050565b6000614549602483614fe7565b915061455482615552565b604082019050919050565b600061456c602983614fe7565b9150614577826155a1565b604082019050919050565b600061458f600b83614fe7565b915061459a826155f0565b602082019050919050565b60006145b2600b83614ff8565b91506145bd82615619565b600b82019050919050565b60006145d5601683614fe7565b91506145e082615642565b602082019050919050565b60006145f8602583614fe7565b91506146038261566b565b604082019050919050565b600061461b603283614fe7565b9150614626826156ba565b604082019050919050565b600061463e602e83614fe7565b915061464982615709565b604082019050919050565b6000614661602383614fe7565b915061466c82615758565b604082019050919050565b6000614684602a83614fe7565b915061468f826157a7565b604082019050919050565b60006146a7601483614fe7565b91506146b2826157f6565b602082019050919050565b60006146ca601f83614fe7565b91506146d58261581f565b602082019050919050565b60006146ed602383614fe7565b91506146f882615848565b604082019050919050565b6000614710602483614fe7565b915061471b82615897565b604082019050919050565b6000614733602083614fe7565b915061473e826158e6565b602082019050919050565b6000614756600083614fdc565b91506147618261590f565b600082019050919050565b6000614779601783614ff8565b915061478482615912565b601782019050919050565b600061479c601583614fe7565b91506147a78261593b565b602082019050919050565b60006147bf602983614fe7565b91506147ca82615964565b604082019050919050565b60006147e2601a83614fe7565b91506147ed826159b3565b602082019050919050565b6000614805602983614fe7565b9150614810826159dc565b604082019050919050565b6000614828602883614fe7565b915061483382615a2b565b604082019050919050565b600061484b602183614fe7565b915061485682615a7a565b604082019050919050565b600061486e601183614ff8565b915061487982615ac9565b601182019050919050565b6000614891602f83614fe7565b915061489c82615af2565b604082019050919050565b6148b081615127565b82525050565b6148bf81615127565b82525050565b6148ce81615131565b82525050565b60006148df8261446a565b91506148eb8284614416565b91506148f6826145a5565b915081905092915050565b600061490c82614749565b9150819050919050565b60006149218261476c565b915061492d8285614416565b915061493882614861565b91506149448284614416565b91508190509392505050565b60006020820190506149656000830184614319565b92915050565b600060a0820190506149806000830188614319565b61498d6020830187614319565b818103604083015261499f8186614328565b905081810360608301526149b38185614328565b905081810360808301526149c781846143a4565b90509695505050505050565b600060a0820190506149e86000830188614319565b6149f56020830187614319565b614a0260408301866148b6565b614a0f60608301856148b6565b8181036080830152614a2181846143a4565b90509695505050505050565b60006020820190508181036000830152614a478184614328565b905092915050565b60006040820190508181036000830152614a698185614328565b90508181036020830152614a7d8184614328565b90509392505050565b6000602082019050614a9b6000830184614386565b92915050565b6000602082019050614ab66000830184614395565b92915050565b60006020820190508181036000830152614ad681846143dd565b905092915050565b60006020820190508181036000830152614af781614447565b9050919050565b60006020820190508181036000830152614b178161448d565b9050919050565b60006020820190508181036000830152614b37816144b0565b9050919050565b60006020820190508181036000830152614b57816144d3565b9050919050565b60006020820190508181036000830152614b77816144f6565b9050919050565b60006020820190508181036000830152614b9781614519565b9050919050565b60006020820190508181036000830152614bb78161453c565b9050919050565b60006020820190508181036000830152614bd78161455f565b9050919050565b60006020820190508181036000830152614bf781614582565b9050919050565b60006020820190508181036000830152614c17816145c8565b9050919050565b60006020820190508181036000830152614c37816145eb565b9050919050565b60006020820190508181036000830152614c578161460e565b9050919050565b60006020820190508181036000830152614c7781614631565b9050919050565b60006020820190508181036000830152614c9781614654565b9050919050565b60006020820190508181036000830152614cb781614677565b9050919050565b60006020820190508181036000830152614cd78161469a565b9050919050565b60006020820190508181036000830152614cf7816146bd565b9050919050565b60006020820190508181036000830152614d17816146e0565b9050919050565b60006020820190508181036000830152614d3781614703565b9050919050565b60006020820190508181036000830152614d5781614726565b9050919050565b60006020820190508181036000830152614d778161478f565b9050919050565b60006020820190508181036000830152614d97816147b2565b9050919050565b60006020820190508181036000830152614db7816147d5565b9050919050565b60006020820190508181036000830152614dd7816147f8565b9050919050565b60006020820190508181036000830152614df78161481b565b9050919050565b60006020820190508181036000830152614e178161483e565b9050919050565b60006020820190508181036000830152614e3781614884565b9050919050565b6000602082019050614e5360008301846148b6565b92915050565b6000604082019050614e6e60008301856148b6565b614e7b60208301846148b6565b9392505050565b6000602082019050614e9760008301846148c5565b92915050565b6000614ea7614eb8565b9050614eb382826151df565b919050565b6000604051905090565b600067ffffffffffffffff821115614edd57614edc615313565b5b602082029050602081019050919050565b600067ffffffffffffffff821115614f0957614f08615313565b5b602082029050602081019050919050565b600067ffffffffffffffff821115614f3557614f34615313565b5b614f3e8261537d565b9050602081019050919050565b600067ffffffffffffffff821115614f6657614f65615313565b5b614f6f8261537d565b9050602081019050919050565b6000819050602082019050919050565b600081519050919050565b600081519050919050565b600081519050919050565b6000602082019050919050565b600082825260208201905092915050565b600082825260208201905092915050565b600081905092915050565b600082825260208201905092915050565b600081905092915050565b600061500e82615127565b915061501983615127565b9250827fffffffffffffffffffffffffffffffffffffffffffffffffffffffffffffffff0382111561504e5761504d615286565b5b828201905092915050565b600061506482615127565b915061506f83615127565b9250817fffffffffffffffffffffffffffffffffffffffffffffffffffffffffffffffff04831182151516156150a8576150a7615286565b5b828202905092915050565b60006150be82615107565b9050919050565b60008115159050919050565b6000819050919050565b60007fffffffff0000000000000000000000000000000000000000000000000000000082169050919050565b600073ffffffffffffffffffffffffffffffffffffffff82169050919050565b6000819050919050565b600063ffffffff82169050919050565b82818337600083830152505050565b60005b8381101561516e578082015181840152602081019050615153565b8381111561517d576000848401525b50505050565b600061518e82615127565b915060008214156151a2576151a1615286565b5b600182039050919050565b600060028204905060018216806151c557607f821691505b602082108114156151d9576151d86152b5565b5b50919050565b6151e88261537d565b810181811067ffffffffffffffff8211171561520757615206615313565b5b80604052505050565b600061521b82615127565b91507fffffffffffffffffffffffffffffffffffffffffffffffffffffffffffffffff82141561524e5761524d615286565b5b600182019050919050565b600061526482615131565b915063ffffffff82141561527b5761527a615286565b5b600182019050919050565b7f4e487b7100000000000000000000000000000000000000000000000000000000600052601160045260246000fd5b7f4e487b7100000000000000000000000000000000000000000000000000000000600052602260045260246000fd5b7f4e487b7100000000000000000000000000000000000000000000000000000000600052603260045260246000fd5b7f4e487b7100000000000000000000000000000000000000000000000000000000600052604160045260246000fd5b600060033d11156153615760046000803e61535e60005161538e565b90505b90565b600080fd5b600080fd5b600080fd5b600080fd5b600080fd5b6000601f19601f8301169050919050565b60008160e01c9050919050565b7f455243313135353a207472616e7366657220746f206e6f6e204552433131353560008201527f526563656976657220696d706c656d656e746572000000000000000000000000602082015250565b7f697066733a2f2f66300000000000000000000000000000000000000000000000600082015250565b7f537472696e67733a20686578206c656e67746820696e73756666696369656e74600082015250565b7f455243313135353a204552433131353552656365697665722072656a6563746560008201527f6420746f6b656e73000000000000000000000000000000000000000000000000602082015250565b7f5468697320746f6b656e2049442068617320616c7265616479206265656e206d60008201527f696e746564000000000000000000000000000000000000000000000000000000602082015250565b7f455243313135353a2062616c616e636520717565727920666f7220746865207a60008201527f65726f2061646472657373000000000000000000000000000000000000000000602082015250565b7f496e76616c696420627579657200000000000000000000000000000000000000600082015250565b7f455243313135353a206275726e20616d6f756e7420657863656564732062616c60008201527f616e636500000000000000000000000000000000000000000000000000000000602082015250565b7f455243313135353a2063616c6c6572206973206e6f74206f776e6572206e6f7260008201527f20617070726f7665640000000000000000000000000000000000000000000000602082015250565b7f496e76616c696420636964000000000000000000000000000000000000000000600082015250565b7f2f696e6465782e6a736f6e000000000000000000000000000000000000000000600082015250565b7f5552492063616e6e6f7420626520757064617465642e00000000000000000000600082015250565b7f455243313135353a207472616e7366657220746f20746865207a65726f20616460008201527f6472657373000000000000000000000000000000000000000000000000000000602082015250565b7f455243313135353a207472616e736665722063616c6c6572206973206e6f742060008201527f6f776e6572206e6f7220617070726f7665640000000000000000000000000000602082015250565b7f496e697469616c697a61626c653a20636f6e747261637420697320616c72656160008201527f647920696e697469616c697a6564000000000000000000000000000000000000602082015250565b7f455243313135353a206275726e2066726f6d20746865207a65726f206164647260008201527f6573730000000000000000000000000000000000000000000000000000000000602082015250565b7f455243313135353a20696e73756666696369656e742062616c616e636520666f60008201527f72207472616e7366657200000000000000000000000000000000000000000000602082015250565b7f4e46542063616e6e6f74206265206275726e6564000000000000000000000000600082015250565b7f496e76616c696420616d6f756e7420666f7220617070726f7665642062696400600082015250565b7f4f6e6c79206f776e65722063616e2073657420617070726f76616c20666f722060008201527f4349440000000000000000000000000000000000000000000000000000000000602082015250565b7f4661696c656420746f207472616e73666572207061796d656e7420746f20736560008201527f6c6c657200000000000000000000000000000000000000000000000000000000602082015250565b7f43616c6c6572206973206e6f74206f776e6572206e6f7220617070726f766564600082015250565b50565b7f416363657373436f6e74726f6c3a206163636f756e7420000000000000000000600082015250565b7f4e46542063616e6e6f7420626520637265617465640000000000000000000000600082015250565b7f455243313135353a2073657474696e6720617070726f76616c2073746174757360008201527f20666f722073656c660000000000000000000000000000000000000000000000602082015250565b7f56657273696f6e2063616e6e6f7420626520757064617465642e000000000000600082015250565b7f455243313135353a206163636f756e747320616e6420696473206c656e67746860008201527f206d69736d617463680000000000000000000000000000000000000000000000602082015250565b7f455243313135353a2069647320616e6420616d6f756e7473206c656e6774682060008201527f6d69736d61746368000000000000000000000000000000000000000000000000602082015250565b7f455243313135353a206d696e7420746f20746865207a65726f2061646472657360008201527f7300000000000000000000000000000000000000000000000000000000000000602082015250565b7f206973206d697373696e6720726f6c6520000000000000000000000000000000600082015250565b7f416363657373436f6e74726f6c3a2063616e206f6e6c792072656e6f756e636560008201527f20726f6c657320666f722073656c660000000000000000000000000000000000602082015250565b600060443d1015615b5157615bd4565b615b59614eb8565b60043d036004823e80513d602482011167ffffffffffffffff82111715615b81575050615bd4565b808201805167ffffffffffffffff811115615b9f5750505050615bd4565b80602083010160043d038501811115615bbc575050505050615bd4565b615bcb826020018501866151df565b82955050505050505b90565b615be0816150b3565b8114615beb57600080fd5b50565b615bf7816150c5565b8114615c0257600080fd5b50565b615c0e816150d1565b8114615c1957600080fd5b50565b615c25816150db565b8114615c3057600080fd5b50565b615c3c81615127565b8114615c4757600080fd5b5056fea26469706673582212201b9c6147021948a78e63fc109b2d34a634e8a910fa065f1edc319b8309bcb83964736f6c63430008060033",
  "devdoc": {
    "kind": "dev",
    "methods": {
      "balanceOf(address,uint256)": {
        "details": "See {IERC1155-balanceOf}. Requirements: - `account` cannot be the zero address."
      },
      "balanceOfBatch(address[],uint256[])": {
        "details": "See {IERC1155-balanceOfBatch}. Requirements: - `accounts` and `ids` must have the same length."
      },
      "getRoleAdmin(bytes32)": {
        "details": "Returns the admin role that controls `role`. See {grantRole} and {revokeRole}. To change a role's admin, use {_setRoleAdmin}."
      },
      "grantRole(bytes32,address)": {
        "details": "Grants `role` to `account`. If `account` had not been already granted `role`, emits a {RoleGranted} event. Requirements: - the caller must have ``role``'s admin role."
      },
      "hasRole(bytes32,address)": {
        "details": "Returns `true` if `account` has been granted `role`."
      },
      "isApprovedFor(address,uint256)": {
        "details": "See {IERC1155-isApprovedForAll}."
      },
      "isApprovedForAll(address,address)": {
        "details": "See {IERC1155-isApprovedForAll}."
      },
      "renounceRole(bytes32,address)": {
        "details": "Revokes `role` from the calling account. Roles are often managed via {grantRole} and {revokeRole}: this function's purpose is to provide a mechanism for accounts to lose their privileges if they are compromised (such as when a trusted device is misplaced). If the calling account had been granted `role`, emits a {RoleRevoked} event. Requirements: - the caller must be `account`."
      },
      "revokeRole(bytes32,address)": {
        "details": "Revokes `role` from `account`. If `account` had been granted `role`, emits a {RoleRevoked} event. Requirements: - the caller must have ``role``'s admin role."
      },
      "safeBatchTransferFrom(address,address,uint256[],uint256[],bytes)": {
        "details": "See {IERC1155-safeBatchTransferFrom}."
      },
      "safePurchase(uint256)": {
        "details": "emit PurchaseResponseReceived on purchase ready to get done",
        "params": {
          "cid": "IPFS content unique identifier."
        }
      },
      "safeTransferFrom(address,address,uint256,uint256,bytes)": {
        "details": "See {IERC1155-safeTransferFrom}."
      },
      "setApprovalFor(address,uint256,uint256)": {
        "details": "See {IERC1155-setApprovalForAll}.",
        "params": {
          "approved": "bid amount for cid",
          "cid": "NFT id",
          "operator": "current buyer"
        }
      },
      "setApprovalForAll(address,bool)": {
        "details": "See {IERC1155-setApprovalForAll}."
      }
    },
    "version": 1
  },
  "userdoc": {
    "kind": "user",
    "methods": {
      "safePurchase(uint256)": {
        "notice": "Check for safe transfer using custom approval"
      },
      "setApprovalFor(address,uint256,uint256)": {
        "notice": "This works like setApprovalForAll with cid reference instead of sender Why this? ApprovalForAll set approval for every action from operator. In our case we need allow actions for specific cid and operator"
      }
    },
    "version": 1
  },
  "storageLayout": {
    "storage": [
      {
        "astId": 413,
        "contract": "contracts/1155-WNFT.sol:WNFT",
        "label": "_initialized",
        "offset": 0,
        "slot": "0",
        "type": "t_bool"
      },
      {
        "astId": 416,
        "contract": "contracts/1155-WNFT.sol:WNFT",
        "label": "_initializing",
        "offset": 1,
        "slot": "0",
        "type": "t_bool"
      },
      {
        "astId": 2027,
        "contract": "contracts/1155-WNFT.sol:WNFT",
        "label": "__gap",
        "offset": 0,
        "slot": "1",
        "type": "t_array(t_uint256)50_storage"
      },
      {
        "astId": 2276,
        "contract": "contracts/1155-WNFT.sol:WNFT",
        "label": "__gap",
        "offset": 0,
        "slot": "51",
        "type": "t_array(t_uint256)50_storage"
      },
      {
        "astId": 482,
        "contract": "contracts/1155-WNFT.sol:WNFT",
        "label": "_balances",
        "offset": 0,
        "slot": "101",
        "type": "t_mapping(t_uint256,t_mapping(t_address,t_uint256))"
      },
      {
        "astId": 488,
        "contract": "contracts/1155-WNFT.sol:WNFT",
        "label": "_operatorApprovals",
        "offset": 0,
        "slot": "102",
        "type": "t_mapping(t_address,t_mapping(t_address,t_bool))"
      },
      {
        "astId": 490,
        "contract": "contracts/1155-WNFT.sol:WNFT",
        "label": "_uri",
        "offset": 0,
        "slot": "103",
        "type": "t_string_storage"
      },
      {
        "astId": 1560,
        "contract": "contracts/1155-WNFT.sol:WNFT",
        "label": "__gap",
        "offset": 0,
        "slot": "104",
        "type": "t_array(t_uint256)47_storage"
      },
      {
        "astId": 48,
        "contract": "contracts/1155-WNFT.sol:WNFT",
        "label": "_roles",
        "offset": 0,
        "slot": "151",
        "type": "t_mapping(t_bytes32,t_struct(RoleData)43_storage)"
      },
      {
        "astId": 333,
        "contract": "contracts/1155-WNFT.sol:WNFT",
        "label": "__gap",
        "offset": 0,
        "slot": "152",
        "type": "t_array(t_uint256)49_storage"
      },
      {
        "astId": 2318,
        "contract": "contracts/1155-WNFT.sol:WNFT",
        "label": "_nftApprovals",
        "offset": 0,
        "slot": "201",
        "type": "t_mapping(t_uint256,t_mapping(t_address,t_uint256))"
      },
      {
        "astId": 2331,
        "contract": "contracts/1155-WNFT.sol:WNFT",
        "label": "holders",
        "offset": 0,
        "slot": "202",
        "type": "t_mapping(t_uint256,t_address)"
      },
      {
        "astId": 2333,
        "contract": "contracts/1155-WNFT.sol:WNFT",
        "label": "version",
        "offset": 0,
        "slot": "203",
        "type": "t_uint32"
      }
    ],
    "types": {
      "t_address": {
        "encoding": "inplace",
        "label": "address",
        "numberOfBytes": "20"
      },
      "t_array(t_uint256)47_storage": {
        "base": "t_uint256",
        "encoding": "inplace",
        "label": "uint256[47]",
        "numberOfBytes": "1504"
      },
      "t_array(t_uint256)49_storage": {
        "base": "t_uint256",
        "encoding": "inplace",
        "label": "uint256[49]",
        "numberOfBytes": "1568"
      },
      "t_array(t_uint256)50_storage": {
        "base": "t_uint256",
        "encoding": "inplace",
        "label": "uint256[50]",
        "numberOfBytes": "1600"
      },
      "t_bool": {
        "encoding": "inplace",
        "label": "bool",
        "numberOfBytes": "1"
      },
      "t_bytes32": {
        "encoding": "inplace",
        "label": "bytes32",
        "numberOfBytes": "32"
      },
      "t_mapping(t_address,t_bool)": {
        "encoding": "mapping",
        "key": "t_address",
        "label": "mapping(address => bool)",
        "numberOfBytes": "32",
        "value": "t_bool"
      },
      "t_mapping(t_address,t_mapping(t_address,t_bool))": {
        "encoding": "mapping",
        "key": "t_address",
        "label": "mapping(address => mapping(address => bool))",
        "numberOfBytes": "32",
        "value": "t_mapping(t_address,t_bool)"
      },
      "t_mapping(t_address,t_uint256)": {
        "encoding": "mapping",
        "key": "t_address",
        "label": "mapping(address => uint256)",
        "numberOfBytes": "32",
        "value": "t_uint256"
      },
      "t_mapping(t_bytes32,t_struct(RoleData)43_storage)": {
        "encoding": "mapping",
        "key": "t_bytes32",
        "label": "mapping(bytes32 => struct AccessControlUpgradeable.RoleData)",
        "numberOfBytes": "32",
        "value": "t_struct(RoleData)43_storage"
      },
      "t_mapping(t_uint256,t_address)": {
        "encoding": "mapping",
        "key": "t_uint256",
        "label": "mapping(uint256 => address)",
        "numberOfBytes": "32",
        "value": "t_address"
      },
      "t_mapping(t_uint256,t_mapping(t_address,t_uint256))": {
        "encoding": "mapping",
        "key": "t_uint256",
        "label": "mapping(uint256 => mapping(address => uint256))",
        "numberOfBytes": "32",
        "value": "t_mapping(t_address,t_uint256)"
      },
      "t_string_storage": {
        "encoding": "bytes",
        "label": "string",
        "numberOfBytes": "32"
      },
      "t_struct(RoleData)43_storage": {
        "encoding": "inplace",
        "label": "struct AccessControlUpgradeable.RoleData",
        "members": [
          {
            "astId": 40,
            "contract": "contracts/1155-WNFT.sol:WNFT",
            "label": "members",
            "offset": 0,
            "slot": "0",
            "type": "t_mapping(t_address,t_bool)"
          },
          {
            "astId": 42,
            "contract": "contracts/1155-WNFT.sol:WNFT",
            "label": "adminRole",
            "offset": 0,
            "slot": "1",
            "type": "t_bytes32"
          }
        ],
        "numberOfBytes": "64"
      },
      "t_uint256": {
        "encoding": "inplace",
        "label": "uint256",
        "numberOfBytes": "32"
      },
      "t_uint32": {
        "encoding": "inplace",
        "label": "uint32",
        "numberOfBytes": "4"
      }
    }
  }
}