{
  "address": "0xA4f79DC094aCe8D08F4cce6122845215c749D154",
  "abi": [
    {
      "inputs": [
        {
          "internalType": "address",
          "name": "oracle",
          "type": "address"
        },
        {
          "internalType": "string",
          "name": "jobId",
          "type": "string"
        },
        {
          "internalType": "uint256",
          "name": "fees",
          "type": "uint256"
        },
        {
          "internalType": "address",
          "name": "link",
          "type": "address"
        }
      ],
      "stateMutability": "nonpayable",
      "type": "constructor"
    },
    {
      "inputs": [],
      "name": "FailedChainLinkDelegation",
      "type": "error"
    },
    {
      "anonymous": false,
      "inputs": [
        {
          "indexed": true,
          "internalType": "bytes32",
          "name": "id",
          "type": "bytes32"
        }
      ],
      "name": "ChainlinkCancelled",
      "type": "event"
    },
    {
      "anonymous": false,
      "inputs": [
        {
          "indexed": true,
          "internalType": "bytes32",
          "name": "id",
          "type": "bytes32"
        }
      ],
      "name": "ChainlinkFulfilled",
      "type": "event"
    },
    {
      "anonymous": false,
      "inputs": [
        {
          "indexed": true,
          "internalType": "bytes32",
          "name": "id",
          "type": "bytes32"
        }
      ],
      "name": "ChainlinkRequested",
      "type": "event"
    },
    {
      "anonymous": false,
      "inputs": [
        {
          "indexed": false,
          "internalType": "bytes32",
          "name": "requestId",
          "type": "bytes32"
        },
        {
          "indexed": false,
          "internalType": "uint256",
          "name": "price",
          "type": "uint256"
        }
      ],
      "name": "PurchaseRequestDone",
      "type": "event"
    },
    {
      "anonymous": false,
      "inputs": [
        {
          "indexed": false,
          "internalType": "bytes32",
          "name": "requestId",
          "type": "bytes32"
        }
      ],
      "name": "PurchaseRequestReceived",
      "type": "event"
    },
    {
      "inputs": [
        {
          "internalType": "bytes32",
          "name": "_requestId",
          "type": "bytes32"
        },
        {
          "internalType": "uint256",
          "name": "_price",
          "type": "uint256"
        }
      ],
      "name": "fulFillPrice",
      "outputs": [],
      "stateMutability": "nonpayable",
      "type": "function"
    },
    {
      "inputs": [
        {
          "internalType": "uint256",
          "name": "cid",
          "type": "uint256"
        }
      ],
      "name": "getCurrentPriceForCID",
      "outputs": [
        {
          "internalType": "uint256",
          "name": "",
          "type": "uint256"
        }
      ],
      "stateMutability": "view",
      "type": "function"
    },
    {
      "inputs": [
        {
          "internalType": "uint256",
          "name": "cid",
          "type": "uint256"
        },
        {
          "internalType": "contract IPurchaseGatewayCaller",
          "name": "caller",
          "type": "address"
        }
      ],
      "name": "requestPurchase",
      "outputs": [
        {
          "internalType": "bytes32",
          "name": "",
          "type": "bytes32"
        }
      ],
      "stateMutability": "payable",
      "type": "function"
    },
    {
      "inputs": [
        {
          "internalType": "string",
          "name": "source",
          "type": "string"
        }
      ],
      "name": "stringToBytes32",
      "outputs": [
        {
          "internalType": "bytes32",
          "name": "result",
          "type": "bytes32"
        }
      ],
      "stateMutability": "pure",
      "type": "function"
    },
    {
      "inputs": [
        {
          "internalType": "bytes4",
          "name": "interfaceId",
          "type": "bytes4"
        }
      ],
      "name": "supportsInterface",
      "outputs": [
        {
          "internalType": "bool",
          "name": "",
          "type": "bool"
        }
      ],
      "stateMutability": "view",
      "type": "function"
    }
  ],
  "transactionHash": "0xa98d3685d3802a17b7928236e6b5cacb960c466729c8a1b54f85fe24c36cfb90",
  "args": [
    "0xc57b33452b4f7bb189bb5afae9cc4aba1f7a4fd8",
    "6b88e0402e5d415eb946e528b8e0c7ba",
    "100000000000000000",
    "0x01BE23585060835E02B77ef475b0Cc51aA1e0709"
  ],
  "solcInputHash": "b5c37554aef7e4b60a68459d5806154f",
  "bytecode": "0x608060405260016004553480156200001657600080fd5b506040516200285e3803806200285e83398181016040528101906200003c91906200030d565b600073ffffffffffffffffffffffffffffffffffffffff168173ffffffffffffffffffffffffffffffffffffffff161415620000885762000082620000d360201b60201c565b6200009a565b62000099816200017b60201b60201c565b5b620000ab84620001bf60201b60201c565b620000bc836200020360201b60201c565b60068190555081600781905550505050506200052f565b6200017973c89bd4e1632d3a43cb03aaad5262cbe4038bc57173ffffffffffffffffffffffffffffffffffffffff166338cc48316040518163ffffffff1660e01b815260040160206040518083038186803b1580156200013257600080fd5b505afa15801562000147573d6000803e3d6000fd5b505050506040513d601f19601f820116820180604052508101906200016d9190620002db565b6200017b60201b60201c565b565b80600260006101000a81548173ffffffffffffffffffffffffffffffffffffffff021916908373ffffffffffffffffffffffffffffffffffffffff16021790555050565b80600360006101000a81548173ffffffffffffffffffffffffffffffffffffffff021916908373ffffffffffffffffffffffffffffffffffffffff16021790555050565b60008082905060008151141562000221576000801b9150506200022a565b60208301519150505b919050565b6000620002466200024084620003c7565b6200039e565b905082815260208101848484011115620002655762000264620004db565b5b620002728482856200043b565b509392505050565b6000815190506200028b81620004fb565b92915050565b600082601f830112620002a957620002a8620004d6565b5b8151620002bb8482602086016200022f565b91505092915050565b600081519050620002d58162000515565b92915050565b600060208284031215620002f457620002f3620004e5565b5b600062000304848285016200027a565b91505092915050565b600080600080608085870312156200032a5762000329620004e5565b5b60006200033a878288016200027a565b945050602085015167ffffffffffffffff8111156200035e576200035d620004e0565b5b6200036c8782880162000291565b93505060406200037f87828801620002c4565b925050606062000392878288016200027a565b91505092959194509250565b6000620003aa620003bd565b9050620003b8828262000471565b919050565b6000604051905090565b600067ffffffffffffffff821115620003e557620003e4620004a7565b5b620003f082620004ea565b9050602081019050919050565b60006200040a8262000411565b9050919050565b600073ffffffffffffffffffffffffffffffffffffffff82169050919050565b6000819050919050565b60005b838110156200045b5780820151818401526020810190506200043e565b838111156200046b576000848401525b50505050565b6200047c82620004ea565b810181811067ffffffffffffffff821117156200049e576200049d620004a7565b5b80604052505050565b7f4e487b7100000000000000000000000000000000000000000000000000000000600052604160045260246000fd5b600080fd5b600080fd5b600080fd5b600080fd5b6000601f19601f8301169050919050565b6200050681620003fd565b81146200051257600080fd5b50565b620005208162000431565b81146200052c57600080fd5b50565b61231f806200053f6000396000f3fe60806040526004361061004a5760003560e01c806301ffc9a71461004f578063053cef8b1461008c578063386b78df146100bc578063cfb51928146100f9578063f24be89714610136575b600080fd5b34801561005b57600080fd5b50610076600480360381019061007191906115cc565b61015f565b60405161008391906119ee565b60405180910390f35b6100a660048036038101906100a1919061166f565b6101c9565b6040516100b39190611a09565b60405180910390f35b3480156100c857600080fd5b506100e360048036038101906100de9190611642565b61041a565b6040516100f09190611b2d565b60405180910390f35b34801561010557600080fd5b50610120600480360381019061011b91906115f9565b610437565b60405161012d9190611a09565b60405180910390f35b34801561014257600080fd5b5061015d6004803603810190610158919061158c565b610461565b005b60007fcf1c7fc3000000000000000000000000000000000000000000000000000000007bffffffffffffffffffffffffffffffffffffffffffffffffffffffff1916827bffffffffffffffffffffffffffffffffffffffffffffffffffffffff1916149050919050565b6000806101e06006543063f24be89760e01b61064f565b90506102446040518060400160405280600381526020017f67657400000000000000000000000000000000000000000000000000000000008152506040518060600160405280603c81526020016122ae603c9139836106809092919063ffffffff16565b6102c36040518060400160405280600481526020017f70617468000000000000000000000000000000000000000000000000000000008152506040518060400160405280600981526020017f5241572e50524943450000000000000000000000000000000000000000000000815250836106809092919063ffffffff16565b60006102d1826007546106b3565b905060405180608001604052808573ffffffffffffffffffffffffffffffffffffffff1681526020018681526020013373ffffffffffffffffffffffffffffffffffffffff168152602001348152506008600083815260200190815260200160002060008201518160000160006101000a81548173ffffffffffffffffffffffffffffffffffffffff021916908373ffffffffffffffffffffffffffffffffffffffff1602179055506020820151816001015560408201518160020160006101000a81548173ffffffffffffffffffffffffffffffffffffffff021916908373ffffffffffffffffffffffffffffffffffffffff160217905550606082015181600301559050507f7160f0855aa85bdddd226d103a7d303d89c6297f1be7661bbd0c47fb0359375d816040516104079190611a09565b60405180910390a1809250505092915050565b600060096000838152602001908152602001600020549050919050565b600080829050600081511415610453576000801b91505061045c565b60208301519150505b919050565b816005600082815260200190815260200160002060009054906101000a900473ffffffffffffffffffffffffffffffffffffffff1673ffffffffffffffffffffffffffffffffffffffff163373ffffffffffffffffffffffffffffffffffffffff1614610503576040517f08c379a00000000000000000000000000000000000000000000000000000000081526004016104fa90611b0d565b60405180910390fd5b6005600082815260200190815260200160002060006101000a81549073ffffffffffffffffffffffffffffffffffffffff0219169055807f7cc135e0cebb02c3480ae5d74d377283180a2601f8f644edf7987b009316c63a60405160405180910390a28160096000600860008781526020019081526020016000206001015481526020019081526020016000208190555061059d836106ea565b60086000848152602001908152602001600020600080820160006101000a81549073ffffffffffffffffffffffffffffffffffffffff021916905560018201600090556002820160006101000a81549073ffffffffffffffffffffffffffffffffffffffff0219169055600382016000905550507f55c9a11c43870e5cd5e3be21ec8c649c289294abcd13c1cd5b054a48bceda9f98383604051610642929190611a24565b60405180910390a1505050565b6106576113bd565b61065f6113bd565b610676858585846108cf909392919063ffffffff16565b9150509392505050565b61069782846080015161097f90919063ffffffff16565b6106ae81846080015161097f90919063ffffffff16565b505050565b60006106e2600360009054906101000a900473ffffffffffffffffffffffffffffffffffffffff1684846109a4565b905092915050565b60006106f5826109c4565b9050600060096000600860008681526020019081526020016000206001015481526020019081526020016000205411610763576040517f08c379a000000000000000000000000000000000000000000000000000000000815260040161075a90611aad565b60405180910390fd5b600960006008600085815260200190815260200160002060010154815260200190815260200160002054600860008481526020019081526020016000206003015410156107e5576040517f08c379a00000000000000000000000000000000000000000000000000000000081526004016107dc90611acd565b60405180910390fd5b600081905060008173ffffffffffffffffffffffffffffffffffffffff16600960006008600088815260200190815260200160002060010154815260200190815260200160002054604051610839906118ed565b60006040518083038185875af1925050503d8060008114610876576040519150601f19603f3d011682016040523d82523d6000602084013e61087b565b606091505b50509050806108bf576040517f08c379a00000000000000000000000000000000000000000000000000000000081526004016108b690611a8d565b60405180910390fd5b6108c98484610b6b565b50505050565b6108d76113bd565b6108e78560800151610100610d2e565b508385600001818152505082856020019073ffffffffffffffffffffffffffffffffffffffff16908173ffffffffffffffffffffffffffffffffffffffff16815250508185604001907bffffffffffffffffffffffffffffffffffffffffffffffffffffffff191690817bffffffffffffffffffffffffffffffffffffffffffffffffffffffff191681525050849050949350505050565b61098c8260038351610d98565b61099f8183610edd90919063ffffffff16565b505050565b60006109bb8484846001634042994660e01b610eff565b90509392505050565b60008060006008600085815260200190815260200160002060000160009054906101000a900473ffffffffffffffffffffffffffffffffffffffff1673ffffffffffffffffffffffffffffffffffffffff166008600086815260200190815260200160002060010154604051602401610a3d9190611b2d565b6040516020818303038152906040527fdbacc237000000000000000000000000000000000000000000000000000000007bffffffffffffffffffffffffffffffffffffffffffffffffffffffff19166020820180517bffffffffffffffffffffffffffffffffffffffffffffffffffffffff8381831617835250505050604051610ac791906118aa565b6000604051808303816000865af19150503d8060008114610b04576040519150601f19603f3d011682016040523d82523d6000602084013e610b09565b606091505b509150915081610b4e576040517f08c379a0000000000000000000000000000000000000000000000000000000008152600401610b4590611a6d565b60405180910390fd5b80806020019051810190610b629190611532565b92505050919050565b60006008600084815260200190815260200160002060000160009054906101000a900473ffffffffffffffffffffffffffffffffffffffff1673ffffffffffffffffffffffffffffffffffffffff166008600085815260200190815260200160002060020160009054906101000a900473ffffffffffffffffffffffffffffffffffffffff166008600086815260200190815260200160002060010154604051602401610c19929190611902565b6040516020818303038152906040527ffa752a47000000000000000000000000000000000000000000000000000000007bffffffffffffffffffffffffffffffffffffffffffffffffffffffff19166020820180517bffffffffffffffffffffffffffffffffffffffffffffffffffffffff8381831617835250505050604051610ca391906118aa565b6000604051808303816000865af19150503d8060008114610ce0576040519150601f19603f3d011682016040523d82523d6000602084013e610ce5565b606091505b5050905080610d29576040517f08c379a0000000000000000000000000000000000000000000000000000000008152600401610d2090611aed565b60405180910390fd5b505050565b610d3661142a565b6000602083610d459190611f92565b14610d7157602082610d579190611f92565b6020610d639190611df7565b82610d6e9190611bd6565b91505b81836020018181525050604051808452600081528281016020016040525082905092915050565b60178111610dc557610dbf8160058460ff16901b60ff16178461116790919063ffffffff16565b50610ed8565b60ff8111610e0757610dea601860058460ff16901b178461116790919063ffffffff16565b50610e01816001856111879092919063ffffffff16565b50610ed7565b61ffff8111610e4a57610e2d601960058460ff16901b178461116790919063ffffffff16565b50610e44816002856111879092919063ffffffff16565b50610ed6565b63ffffffff8111610e8f57610e72601a60058460ff16901b178461116790919063ffffffff16565b50610e89816004856111879092919063ffffffff16565b50610ed5565b67ffffffffffffffff8111610ed457610ebb601b60058460ff16901b178461116790919063ffffffff16565b50610ed2816008856111879092919063ffffffff16565b505b5b5b5b5b505050565b610ee561142a565b610ef7838460000151518485516111a9565b905092915050565b600030600454604051602001610f169291906118c1565b604051602081830303815290604052805190602001209050600454856060018181525050856005600083815260200190815260200160002060006101000a81548173ffffffffffffffffffffffffffffffffffffffff021916908373ffffffffffffffffffffffffffffffffffffffff160217905550807fb5e6e01e79f91267dc17b4e6314d5d4d03593d2ceee0fbb452b750bd70ea5af960405160405180910390a2600082600080886000015189602001518a604001518b606001518a8d6080015160000151604051602401610ff498979695949392919061192b565b604051602081830303815290604052907bffffffffffffffffffffffffffffffffffffffffffffffffffffffff19166020820180517bffffffffffffffffffffffffffffffffffffffffffffffffffffffff83818316178352505050509050600260009054906101000a900473ffffffffffffffffffffffffffffffffffffffff1673ffffffffffffffffffffffffffffffffffffffff16634000aea08887846040518463ffffffff1660e01b81526004016110b2939291906119b0565b602060405180830381600087803b1580156110cc57600080fd5b505af11580156110e0573d6000803e3d6000fd5b505050506040513d601f19601f82011682018060405250810190611104919061155f565b611143576040517f08c379a000000000000000000000000000000000000000000000000000000000815260040161113a90611a4d565b60405180910390fd5b6001600460008282546111569190611bd6565b925050819055505095945050505050565b61116f61142a565b61117f8384600001515184611298565b905092915050565b61118f61142a565b6111a08485600001515185856112ef565b90509392505050565b6111b161142a565b82518211156111bf57600080fd5b846020015182856111d09190611bd6565b1115611205576112048560026111f5886020015188876111f09190611bd6565b61137d565b6111ff9190611d9d565b611399565b5b6000808651805187602083010193508088870111156112245787860182525b60208701925050505b6020841061126b57805182526020826112469190611bd6565b91506020816112559190611bd6565b90506020846112649190611df7565b935061122d565b60006001856020036101000a03905080198251168184511681811785525050508692505050949350505050565b6112a061142a565b836020015183106112c6576112c584600286602001516112c09190611d9d565b611399565b5b83518051602085830101848153818614156112e2576001820183525b5050508390509392505050565b6112f761142a565b846020015184836113089190611bd6565b11156113305761132f85600286856113209190611bd6565b61132a9190611d9d565b611399565b5b60006001836101006113429190611c7f565b61134c9190611df7565b9050855183868201018583198251161781528151858801111561136f5784870182525b505085915050949350505050565b60008183111561138f57829050611393565b8190505b92915050565b6000826000015190506113ac8383610d2e565b506113b78382610edd565b50505050565b6040518060a0016040528060008019168152602001600073ffffffffffffffffffffffffffffffffffffffff16815260200160007bffffffffffffffffffffffffffffffffffffffffffffffffffffffff191681526020016000815260200161142461142a565b81525090565b604051806040016040528060608152602001600081525090565b600061145761145284611b6d565b611b48565b90508281526020810184848401111561147357611472612055565b5b61147e848285611ef1565b509392505050565b60008151905061149581612223565b92915050565b6000815190506114aa8161223a565b92915050565b6000813590506114bf81612251565b92915050565b6000813590506114d481612268565b92915050565b6000813590506114e98161227f565b92915050565b600082601f83011261150457611503612050565b5b8135611514848260208601611444565b91505092915050565b60008135905061152c81612296565b92915050565b6000602082840312156115485761154761205f565b5b600061155684828501611486565b91505092915050565b6000602082840312156115755761157461205f565b5b60006115838482850161149b565b91505092915050565b600080604083850312156115a3576115a261205f565b5b60006115b1858286016114b0565b92505060206115c28582860161151d565b9150509250929050565b6000602082840312156115e2576115e161205f565b5b60006115f0848285016114c5565b91505092915050565b60006020828403121561160f5761160e61205f565b5b600082013567ffffffffffffffff81111561162d5761162c61205a565b5b611639848285016114ef565b91505092915050565b6000602082840312156116585761165761205f565b5b60006116668482850161151d565b91505092915050565b600080604083850312156116865761168561205f565b5b60006116948582860161151d565b92505060206116a5858286016114da565b9150509250929050565b6116b881611e2b565b82525050565b6116c781611e4f565b82525050565b6116d681611e5b565b82525050565b6116e581611e65565b82525050565b60006116f682611b9e565b6117008185611ba9565b9350611710818560208601611f00565b61171981612064565b840191505092915050565b600061172f82611b9e565b6117398185611bba565b9350611749818560208601611f00565b80840191505092915050565b61176661176182611ecd565b611f64565b82525050565b6000611779602383611bc5565b91506117848261208f565b604082019050919050565b600061179c600e83611bc5565b91506117a7826120de565b602082019050919050565b60006117bf602283611bc5565b91506117ca82612107565b604082019050919050565b60006117e2601183611bc5565b91506117ed82612156565b602082019050919050565b6000611805600e83611bc5565b91506118108261217f565b602082019050919050565b6000611828601583611bc5565b9150611833826121a8565b602082019050919050565b600061184b600083611bba565b9150611856826121d1565b600082019050919050565b600061186e602883611bc5565b9150611879826121d4565b604082019050919050565b61188d81611ec3565b82525050565b6118a461189f82611ec3565b611f88565b82525050565b60006118b68284611724565b915081905092915050565b60006118cd8285611755565b6014820191506118dd8284611893565b6020820191508190509392505050565b60006118f88261183e565b9150819050919050565b600060408201905061191760008301856116af565b6119246020830184611884565b9392505050565b600061010082019050611941600083018b6116af565b61194e602083018a611884565b61195b60408301896116cd565b61196860608301886116af565b61197560808301876116dc565b61198260a0830186611884565b61198f60c0830185611884565b81810360e08301526119a181846116eb565b90509998505050505050505050565b60006060820190506119c560008301866116af565b6119d26020830185611884565b81810360408301526119e481846116eb565b9050949350505050565b6000602082019050611a0360008301846116be565b92915050565b6000602082019050611a1e60008301846116cd565b92915050565b6000604082019050611a3960008301856116cd565b611a466020830184611884565b9392505050565b60006020820190508181036000830152611a668161176c565b9050919050565b60006020820190508181036000830152611a868161178f565b9050919050565b60006020820190508181036000830152611aa6816117b2565b9050919050565b60006020820190508181036000830152611ac6816117d5565b9050919050565b60006020820190508181036000830152611ae6816117f8565b9050919050565b60006020820190508181036000830152611b068161181b565b9050919050565b60006020820190508181036000830152611b2681611861565b9050919050565b6000602082019050611b426000830184611884565b92915050565b6000611b52611b63565b9050611b5e8282611f33565b919050565b6000604051905090565b600067ffffffffffffffff821115611b8857611b87612021565b5b611b9182612064565b9050602081019050919050565b600081519050919050565b600082825260208201905092915050565b600081905092915050565b600082825260208201905092915050565b6000611be182611ec3565b9150611bec83611ec3565b9250827fffffffffffffffffffffffffffffffffffffffffffffffffffffffffffffffff03821115611c2157611c20611fc3565b5b828201905092915050565b6000808291508390505b6001851115611c7657808604811115611c5257611c51611fc3565b5b6001851615611c615780820291505b8081029050611c6f85612082565b9450611c36565b94509492505050565b6000611c8a82611ec3565b9150611c9583611ec3565b9250611cc27fffffffffffffffffffffffffffffffffffffffffffffffffffffffffffffffff8484611cca565b905092915050565b600082611cda5760019050611d96565b81611ce85760009050611d96565b8160018114611cfe5760028114611d0857611d37565b6001915050611d96565b60ff841115611d1a57611d19611fc3565b5b8360020a915084821115611d3157611d30611fc3565b5b50611d96565b5060208310610133831016604e8410600b8410161715611d6c5782820a905083811115611d6757611d66611fc3565b5b611d96565b611d798484846001611c2c565b92509050818404811115611d9057611d8f611fc3565b5b81810290505b9392505050565b6000611da882611ec3565b9150611db383611ec3565b9250817fffffffffffffffffffffffffffffffffffffffffffffffffffffffffffffffff0483118215151615611dec57611deb611fc3565b5b828202905092915050565b6000611e0282611ec3565b9150611e0d83611ec3565b925082821015611e2057611e1f611fc3565b5b828203905092915050565b6000611e3682611ea3565b9050919050565b6000611e4882611ea3565b9050919050565b60008115159050919050565b6000819050919050565b60007fffffffff0000000000000000000000000000000000000000000000000000000082169050919050565b6000611e9c82611e2b565b9050919050565b600073ffffffffffffffffffffffffffffffffffffffff82169050919050565b6000819050919050565b6000611ed882611edf565b9050919050565b6000611eea82611ea3565b9050919050565b82818337600083830152505050565b60005b83811015611f1e578082015181840152602081019050611f03565b83811115611f2d576000848401525b50505050565b611f3c82612064565b810181811067ffffffffffffffff82111715611f5b57611f5a612021565b5b80604052505050565b6000611f6f82611f76565b9050919050565b6000611f8182612075565b9050919050565b6000819050919050565b6000611f9d82611ec3565b9150611fa883611ec3565b925082611fb857611fb7611ff2565b5b828206905092915050565b7f4e487b7100000000000000000000000000000000000000000000000000000000600052601160045260246000fd5b7f4e487b7100000000000000000000000000000000000000000000000000000000600052601260045260246000fd5b7f4e487b7100000000000000000000000000000000000000000000000000000000600052604160045260246000fd5b600080fd5b600080fd5b600080fd5b600080fd5b6000601f19601f8301169050919050565b60008160601b9050919050565b60008160011c9050919050565b7f756e61626c6520746f207472616e73666572416e6443616c6c20746f206f726160008201527f636c650000000000000000000000000000000000000000000000000000000000602082015250565b7f496e76616c69642063616c6c6565000000000000000000000000000000000000600082015250565b7f4661696c656420746f207472616e7366657220746f6b656e20746f2073656c6c60008201527f6572000000000000000000000000000000000000000000000000000000000000602082015250565b7f496e76616c696420434944207072696365000000000000000000000000000000600082015250565b7f4e6f7420656e6f75676820455448000000000000000000000000000000000000600082015250565b7f43616e6e6f74207472616e7366657220746f6b656e0000000000000000000000600082015250565b50565b7f536f75726365206d75737420626520746865206f7261636c65206f662074686560008201527f2072657175657374000000000000000000000000000000000000000000000000602082015250565b61222c81611e3d565b811461223757600080fd5b50565b61224381611e4f565b811461224e57600080fd5b50565b61225a81611e5b565b811461226557600080fd5b50565b61227181611e65565b811461227c57600080fd5b50565b61228881611e91565b811461229357600080fd5b50565b61229f81611ec3565b81146122aa57600080fd5b5056fe68747470733a2f2f72756e2e6d6f636b792e696f2f76332f30663836663264662d306661622d343932622d623265632d396339343362346363656431a264697066735822122088e42cefc952c0b4023d11102967e8a5f20f68e5a4549e1429ebdfe7d5345b6b64736f6c63430008060033",
  "devdoc": {
    "kind": "dev",
    "methods": {
      "fulFillPrice(bytes32,uint256)": {
        "details": "emit PurchaseRequestDone event when delegate callback is done",
        "params": {
          "_price": "the price returned by API",
          "_requestId": "chain link request identifier."
        }
      },
      "getCurrentPriceForCID(uint256)": {
        "params": {
          "cid": "IPFS content unique identifier."
        },
        "returns": {
          "_0": "current NFT price"
        }
      },
      "requestPurchase(uint256,address)": {
        "params": {
          "caller": "origin contract",
          "cid": "IPFS content unique identifier."
        }
      },
      "supportsInterface(bytes4)": {
        "details": "Returns true if this contract implements the interface defined by `interfaceId`. See the corresponding https://eips.ethereum.org/EIPS/eip-165#how-interfaces-are-identified[EIP section] to learn more about how these ids are created. This function call must use less than 30 000 gas."
      }
    },
    "version": 1
  },
  "userdoc": {
    "kind": "user",
    "methods": {
      "fulFillPrice(bytes32,uint256)": {
        "notice": "Receive the response in form of multiple-variable"
      },
      "getCurrentPriceForCID(uint256)": {
        "notice": "Return current NFT price by cid"
      },
      "requestPurchase(uint256,address)": {
        "notice": "Create a Chainlink request to retrieve API response. Add the request into mapping to keep tracking of caller."
      }
    },
    "version": 1
  },
  "storageLayout": {
    "storage": [
      {
        "astId": 318,
        "contract": "contracts/chainlink/PurchaseGateway.sol:PurchaseGateway",
        "label": "ens",
        "offset": 0,
        "slot": "0",
        "type": "t_contract(ENSInterface)912"
      },
      {
        "astId": 320,
        "contract": "contracts/chainlink/PurchaseGateway.sol:PurchaseGateway",
        "label": "ensNode",
        "offset": 0,
        "slot": "1",
        "type": "t_bytes32"
      },
      {
        "astId": 323,
        "contract": "contracts/chainlink/PurchaseGateway.sol:PurchaseGateway",
        "label": "link",
        "offset": 0,
        "slot": "2",
        "type": "t_contract(LinkTokenInterface)1007"
      },
      {
        "astId": 326,
        "contract": "contracts/chainlink/PurchaseGateway.sol:PurchaseGateway",
        "label": "oracle",
        "offset": 0,
        "slot": "3",
        "type": "t_contract(OperatorInterface)1089"
      },
      {
        "astId": 329,
        "contract": "contracts/chainlink/PurchaseGateway.sol:PurchaseGateway",
        "label": "requestCount",
        "offset": 0,
        "slot": "4",
        "type": "t_uint256"
      },
      {
        "astId": 333,
        "contract": "contracts/chainlink/PurchaseGateway.sol:PurchaseGateway",
        "label": "pendingRequests",
        "offset": 0,
        "slot": "5",
        "type": "t_mapping(t_bytes32,t_address)"
      },
      {
        "astId": 2310,
        "contract": "contracts/chainlink/PurchaseGateway.sol:PurchaseGateway",
        "label": "_jobId",
        "offset": 0,
        "slot": "6",
        "type": "t_bytes32"
      },
      {
        "astId": 2312,
        "contract": "contracts/chainlink/PurchaseGateway.sol:PurchaseGateway",
        "label": "_fees",
        "offset": 0,
        "slot": "7",
        "type": "t_uint256"
      },
      {
        "astId": 2330,
        "contract": "contracts/chainlink/PurchaseGateway.sol:PurchaseGateway",
        "label": "requests",
        "offset": 0,
        "slot": "8",
        "type": "t_mapping(t_bytes32,t_struct(RequestCommitment)2325_storage)"
      },
      {
        "astId": 2334,
        "contract": "contracts/chainlink/PurchaseGateway.sol:PurchaseGateway",
        "label": "prices",
        "offset": 0,
        "slot": "9",
        "type": "t_mapping(t_uint256,t_uint256)"
      }
    ],
    "types": {
      "t_address": {
        "encoding": "inplace",
        "label": "address",
        "numberOfBytes": "20"
      },
      "t_bytes32": {
        "encoding": "inplace",
        "label": "bytes32",
        "numberOfBytes": "32"
      },
      "t_contract(ENSInterface)912": {
        "encoding": "inplace",
        "label": "contract ENSInterface",
        "numberOfBytes": "20"
      },
      "t_contract(LinkTokenInterface)1007": {
        "encoding": "inplace",
        "label": "contract LinkTokenInterface",
        "numberOfBytes": "20"
      },
      "t_contract(OperatorInterface)1089": {
        "encoding": "inplace",
        "label": "contract OperatorInterface",
        "numberOfBytes": "20"
      },
      "t_mapping(t_bytes32,t_address)": {
        "encoding": "mapping",
        "key": "t_bytes32",
        "label": "mapping(bytes32 => address)",
        "numberOfBytes": "32",
        "value": "t_address"
      },
      "t_mapping(t_bytes32,t_struct(RequestCommitment)2325_storage)": {
        "encoding": "mapping",
        "key": "t_bytes32",
        "label": "mapping(bytes32 => struct PurchaseGateway.RequestCommitment)",
        "numberOfBytes": "32",
        "value": "t_struct(RequestCommitment)2325_storage"
      },
      "t_mapping(t_uint256,t_uint256)": {
        "encoding": "mapping",
        "key": "t_uint256",
        "label": "mapping(uint256 => uint256)",
        "numberOfBytes": "32",
        "value": "t_uint256"
      },
      "t_struct(RequestCommitment)2325_storage": {
        "encoding": "inplace",
        "label": "struct PurchaseGateway.RequestCommitment",
        "members": [
          {
            "astId": 2317,
            "contract": "contracts/chainlink/PurchaseGateway.sol:PurchaseGateway",
            "label": "caller",
            "offset": 0,
            "slot": "0",
            "type": "t_address"
          },
          {
            "astId": 2320,
            "contract": "contracts/chainlink/PurchaseGateway.sol:PurchaseGateway",
            "label": "cid",
            "offset": 0,
            "slot": "1",
            "type": "t_uint256"
          },
          {
            "astId": 2322,
            "contract": "contracts/chainlink/PurchaseGateway.sol:PurchaseGateway",
            "label": "buyer",
            "offset": 0,
            "slot": "2",
            "type": "t_address"
          },
          {
            "astId": 2324,
            "contract": "contracts/chainlink/PurchaseGateway.sol:PurchaseGateway",
            "label": "bid",
            "offset": 0,
            "slot": "3",
            "type": "t_uint256"
          }
        ],
        "numberOfBytes": "128"
      },
      "t_uint256": {
        "encoding": "inplace",
        "label": "uint256",
        "numberOfBytes": "32"
      }
    }
  }
}