{
  "address": "0x8B5aeAeB2C929eA7c1b27B8daf28Ebf0BF25E0aD",
  "abi": [
    {
      "inputs": [],
      "name": "InvalidPurchaseOperation",
      "type": "error"
    },
    {
      "anonymous": false,
      "inputs": [
        {
          "indexed": true,
          "internalType": "address",
          "name": "account",
          "type": "address"
        },
        {
          "indexed": true,
          "internalType": "address",
          "name": "operator",
          "type": "address"
        },
        {
          "indexed": false,
          "internalType": "bool",
          "name": "approved",
          "type": "bool"
        }
      ],
      "name": "ApprovalForAll",
      "type": "event"
    },
    {
      "anonymous": false,
      "inputs": [
        {
          "indexed": true,
          "internalType": "address",
          "name": "operator",
          "type": "address"
        },
        {
          "indexed": false,
          "internalType": "uint256",
          "name": "cid",
          "type": "uint256"
        },
        {
          "indexed": false,
          "internalType": "uint256",
          "name": "approved",
          "type": "uint256"
        }
      ],
      "name": "ApprovalForCID",
      "type": "event"
    },
    {
      "anonymous": false,
      "inputs": [
        {
          "indexed": true,
          "internalType": "address",
          "name": "creator",
          "type": "address"
        },
        {
          "indexed": false,
          "internalType": "uint256",
          "name": "cid",
          "type": "uint256"
        }
      ],
      "name": "CreatorForCID",
      "type": "event"
    },
    {
      "anonymous": false,
      "inputs": [
        {
          "indexed": true,
          "internalType": "bytes32",
          "name": "role",
          "type": "bytes32"
        },
        {
          "indexed": true,
          "internalType": "bytes32",
          "name": "previousAdminRole",
          "type": "bytes32"
        },
        {
          "indexed": true,
          "internalType": "bytes32",
          "name": "newAdminRole",
          "type": "bytes32"
        }
      ],
      "name": "RoleAdminChanged",
      "type": "event"
    },
    {
      "anonymous": false,
      "inputs": [
        {
          "indexed": true,
          "internalType": "bytes32",
          "name": "role",
          "type": "bytes32"
        },
        {
          "indexed": true,
          "internalType": "address",
          "name": "account",
          "type": "address"
        },
        {
          "indexed": true,
          "internalType": "address",
          "name": "sender",
          "type": "address"
        }
      ],
      "name": "RoleGranted",
      "type": "event"
    },
    {
      "anonymous": false,
      "inputs": [
        {
          "indexed": true,
          "internalType": "bytes32",
          "name": "role",
          "type": "bytes32"
        },
        {
          "indexed": true,
          "internalType": "address",
          "name": "account",
          "type": "address"
        },
        {
          "indexed": true,
          "internalType": "address",
          "name": "sender",
          "type": "address"
        }
      ],
      "name": "RoleRevoked",
      "type": "event"
    },
    {
      "anonymous": false,
      "inputs": [
        {
          "indexed": true,
          "internalType": "address",
          "name": "operator",
          "type": "address"
        },
        {
          "indexed": true,
          "internalType": "address",
          "name": "from",
          "type": "address"
        },
        {
          "indexed": true,
          "internalType": "address",
          "name": "to",
          "type": "address"
        },
        {
          "indexed": false,
          "internalType": "uint256[]",
          "name": "ids",
          "type": "uint256[]"
        },
        {
          "indexed": false,
          "internalType": "uint256[]",
          "name": "values",
          "type": "uint256[]"
        }
      ],
      "name": "TransferBatch",
      "type": "event"
    },
    {
      "anonymous": false,
      "inputs": [
        {
          "indexed": true,
          "internalType": "address",
          "name": "operator",
          "type": "address"
        },
        {
          "indexed": true,
          "internalType": "address",
          "name": "from",
          "type": "address"
        },
        {
          "indexed": true,
          "internalType": "address",
          "name": "to",
          "type": "address"
        },
        {
          "indexed": false,
          "internalType": "uint256",
          "name": "id",
          "type": "uint256"
        },
        {
          "indexed": false,
          "internalType": "uint256",
          "name": "value",
          "type": "uint256"
        }
      ],
      "name": "TransferSingle",
      "type": "event"
    },
    {
      "anonymous": false,
      "inputs": [
        {
          "indexed": false,
          "internalType": "string",
          "name": "value",
          "type": "string"
        },
        {
          "indexed": true,
          "internalType": "uint256",
          "name": "id",
          "type": "uint256"
        }
      ],
      "name": "URI",
      "type": "event"
    },
    {
      "inputs": [],
      "name": "DEFAULT_ADMIN_ROLE",
      "outputs": [
        {
          "internalType": "bytes32",
          "name": "",
          "type": "bytes32"
        }
      ],
      "stateMutability": "view",
      "type": "function"
    },
    {
      "inputs": [],
      "name": "NFT_MINTER_ROLE",
      "outputs": [
        {
          "internalType": "bytes32",
          "name": "",
          "type": "bytes32"
        }
      ],
      "stateMutability": "view",
      "type": "function"
    },
    {
      "inputs": [
        {
          "internalType": "address",
          "name": "account",
          "type": "address"
        },
        {
          "internalType": "uint256",
          "name": "id",
          "type": "uint256"
        }
      ],
      "name": "balanceOf",
      "outputs": [
        {
          "internalType": "uint256",
          "name": "",
          "type": "uint256"
        }
      ],
      "stateMutability": "view",
      "type": "function"
    },
    {
      "inputs": [
        {
          "internalType": "address[]",
          "name": "accounts",
          "type": "address[]"
        },
        {
          "internalType": "uint256[]",
          "name": "ids",
          "type": "uint256[]"
        }
      ],
      "name": "balanceOfBatch",
      "outputs": [
        {
          "internalType": "uint256[]",
          "name": "",
          "type": "uint256[]"
        }
      ],
      "stateMutability": "view",
      "type": "function"
    },
    {
      "inputs": [
        {
          "internalType": "address",
          "name": "account",
          "type": "address"
        },
        {
          "internalType": "uint256",
          "name": "cid",
          "type": "uint256"
        }
      ],
      "name": "burn",
      "outputs": [],
      "stateMutability": "nonpayable",
      "type": "function"
    },
    {
      "inputs": [
        {
          "internalType": "address",
          "name": "account",
          "type": "address"
        },
        {
          "internalType": "uint256[]",
          "name": "ids",
          "type": "uint256[]"
        },
        {
          "internalType": "uint256[]",
          "name": "amounts",
          "type": "uint256[]"
        }
      ],
      "name": "burnBatch",
      "outputs": [],
      "stateMutability": "nonpayable",
      "type": "function"
    },
    {
      "inputs": [
        {
          "internalType": "bytes32",
          "name": "role",
          "type": "bytes32"
        }
      ],
      "name": "getRoleAdmin",
      "outputs": [
        {
          "internalType": "bytes32",
          "name": "",
          "type": "bytes32"
        }
      ],
      "stateMutability": "view",
      "type": "function"
    },
    {
      "inputs": [
        {
          "internalType": "bytes32",
          "name": "role",
          "type": "bytes32"
        },
        {
          "internalType": "address",
          "name": "account",
          "type": "address"
        }
      ],
      "name": "grantRole",
      "outputs": [],
      "stateMutability": "nonpayable",
      "type": "function"
    },
    {
      "inputs": [
        {
          "internalType": "bytes32",
          "name": "role",
          "type": "bytes32"
        },
        {
          "internalType": "address",
          "name": "account",
          "type": "address"
        }
      ],
      "name": "hasRole",
      "outputs": [
        {
          "internalType": "bool",
          "name": "",
          "type": "bool"
        }
      ],
      "stateMutability": "view",
      "type": "function"
    },
    {
      "inputs": [
        {
          "internalType": "uint256",
          "name": "cid",
          "type": "uint256"
        }
      ],
      "name": "holderOf",
      "outputs": [
        {
          "internalType": "address",
          "name": "",
          "type": "address"
        }
      ],
      "stateMutability": "view",
      "type": "function"
    },
    {
      "inputs": [],
      "name": "initialize",
      "outputs": [],
      "stateMutability": "nonpayable",
      "type": "function"
    },
    {
      "inputs": [
        {
          "internalType": "address",
          "name": "operator",
          "type": "address"
        },
        {
          "internalType": "uint256",
          "name": "cid",
          "type": "uint256"
        }
      ],
      "name": "isApprovedFor",
      "outputs": [
        {
          "internalType": "bool",
          "name": "",
          "type": "bool"
        }
      ],
      "stateMutability": "view",
      "type": "function"
    },
    {
      "inputs": [
        {
          "internalType": "address",
          "name": "account",
          "type": "address"
        },
        {
          "internalType": "address",
          "name": "operator",
          "type": "address"
        }
      ],
      "name": "isApprovedForAll",
      "outputs": [
        {
          "internalType": "bool",
          "name": "",
          "type": "bool"
        }
      ],
      "stateMutability": "view",
      "type": "function"
    },
    {
      "inputs": [
        {
          "internalType": "address",
          "name": "account",
          "type": "address"
        },
        {
          "internalType": "uint256",
          "name": "cid",
          "type": "uint256"
        }
      ],
      "name": "mint",
      "outputs": [],
      "stateMutability": "nonpayable",
      "type": "function"
    },
    {
      "inputs": [
        {
          "internalType": "address",
          "name": "to",
          "type": "address"
        },
        {
          "internalType": "uint256[]",
          "name": "cids",
          "type": "uint256[]"
        }
      ],
      "name": "mintBatch",
      "outputs": [],
      "stateMutability": "nonpayable",
      "type": "function"
    },
    {
      "inputs": [
        {
          "internalType": "bytes32",
          "name": "role",
          "type": "bytes32"
        },
        {
          "internalType": "address",
          "name": "account",
          "type": "address"
        }
      ],
      "name": "renounceRole",
      "outputs": [],
      "stateMutability": "nonpayable",
      "type": "function"
    },
    {
      "inputs": [
        {
          "internalType": "bytes32",
          "name": "role",
          "type": "bytes32"
        },
        {
          "internalType": "address",
          "name": "account",
          "type": "address"
        }
      ],
      "name": "revokeRole",
      "outputs": [],
      "stateMutability": "nonpayable",
      "type": "function"
    },
    {
      "inputs": [
        {
          "internalType": "address",
          "name": "from",
          "type": "address"
        },
        {
          "internalType": "address",
          "name": "to",
          "type": "address"
        },
        {
          "internalType": "uint256[]",
          "name": "ids",
          "type": "uint256[]"
        },
        {
          "internalType": "uint256[]",
          "name": "amounts",
          "type": "uint256[]"
        },
        {
          "internalType": "bytes",
          "name": "data",
          "type": "bytes"
        }
      ],
      "name": "safeBatchTransferFrom",
      "outputs": [],
      "stateMutability": "nonpayable",
      "type": "function"
    },
    {
      "inputs": [
        {
          "internalType": "uint256",
          "name": "cid",
          "type": "uint256"
        }
      ],
      "name": "safePurchase",
      "outputs": [],
      "stateMutability": "payable",
      "type": "function"
    },
    {
      "inputs": [
        {
          "internalType": "address",
          "name": "from",
          "type": "address"
        },
        {
          "internalType": "address",
          "name": "to",
          "type": "address"
        },
        {
          "internalType": "uint256",
          "name": "id",
          "type": "uint256"
        },
        {
          "internalType": "uint256",
          "name": "amount",
          "type": "uint256"
        },
        {
          "internalType": "bytes",
          "name": "data",
          "type": "bytes"
        }
      ],
      "name": "safeTransferFrom",
      "outputs": [],
      "stateMutability": "nonpayable",
      "type": "function"
    },
    {
      "inputs": [
        {
          "internalType": "address",
          "name": "operator",
          "type": "address"
        },
        {
          "internalType": "uint256",
          "name": "cid",
          "type": "uint256"
        },
        {
          "internalType": "uint256",
          "name": "approved",
          "type": "uint256"
        }
      ],
      "name": "setApprovalFor",
      "outputs": [],
      "stateMutability": "nonpayable",
      "type": "function"
    },
    {
      "inputs": [
        {
          "internalType": "address",
          "name": "operator",
          "type": "address"
        },
        {
          "internalType": "bool",
          "name": "approved",
          "type": "bool"
        }
      ],
      "name": "setApprovalForAll",
      "outputs": [],
      "stateMutability": "nonpayable",
      "type": "function"
    },
    {
      "inputs": [
        {
          "internalType": "uint256",
          "name": "cid",
          "type": "uint256"
        },
        {
          "internalType": "address",
          "name": "holder",
          "type": "address"
        }
      ],
      "name": "setHolder",
      "outputs": [],
      "stateMutability": "nonpayable",
      "type": "function"
    },
    {
      "inputs": [
        {
          "internalType": "string",
          "name": "newuri",
          "type": "string"
        }
      ],
      "name": "setURI",
      "outputs": [],
      "stateMutability": "nonpayable",
      "type": "function"
    },
    {
      "inputs": [
        {
          "internalType": "bytes4",
          "name": "interfaceId",
          "type": "bytes4"
        }
      ],
      "name": "supportsInterface",
      "outputs": [
        {
          "internalType": "bool",
          "name": "",
          "type": "bool"
        }
      ],
      "stateMutability": "view",
      "type": "function"
    },
    {
      "inputs": [
        {
          "internalType": "address",
          "name": "from",
          "type": "address"
        },
        {
          "internalType": "address",
          "name": "to",
          "type": "address"
        },
        {
          "internalType": "uint256",
          "name": "cid",
          "type": "uint256"
        }
      ],
      "name": "transfer",
      "outputs": [],
      "stateMutability": "nonpayable",
      "type": "function"
    },
    {
      "inputs": [],
      "name": "upgrade",
      "outputs": [],
      "stateMutability": "nonpayable",
      "type": "function"
    },
    {
      "inputs": [
        {
          "internalType": "uint256",
          "name": "_tokenId",
          "type": "uint256"
        }
      ],
      "name": "uri",
      "outputs": [
        {
          "internalType": "string",
          "name": "",
          "type": "string"
        }
      ],
      "stateMutability": "view",
      "type": "function"
    },
    {
      "inputs": [],
      "name": "version",
      "outputs": [
        {
          "internalType": "uint32",
          "name": "",
          "type": "uint32"
        }
      ],
      "stateMutability": "view",
      "type": "function"
    }
  ],
  "transactionHash": "0x7172c6321b357930d7bcfd14a0c43746a0634ee90bfe1010dd8e576ac079d9b8",
  "args": [],
  "numDeployments": 1,
  "solcInputHash": "e00f59eaaeab903cd44bd11a029fcca4",
  "bytecode": "0x608060405234801561001057600080fd5b50613243806100206000396000f3fe6080604052600436106101c15760003560e01c8063738f5469116100f7578063ba3dad8411610095578063d55ec69711610064578063d55ec6971461054a578063dbacc2371461055f578063e985e9c5146105ad578063f242432a146105f657600080fd5b8063ba3dad84146104c8578063beabacc8146104e8578063c0833ee414610508578063d547741f1461052a57600080fd5b806391d14854116100d157806391d14854146104535780639dc29fac14610473578063a217fddf14610493578063a22cb465146104a857600080fd5b8063738f54691461040b57806375ceb3411461041e5780638129fc1c1461043e57600080fd5b80632f2ff15d1161016457806340c10f191161013e57806340c10f191461036c5780634e1273f41461038c57806354fd4d50146103b95780636b20c454146103eb57600080fd5b80632f2ff15d146102e857806336568abe14610308578063390ff1341461032857600080fd5b80630e89341c116101a05780630e89341c1461024b578063248a9ca3146102785780632ce62e50146102a85780632eb2c2d6146102c857600080fd5b8062fdd58e146101c657806301ffc9a7146101f957806302fe530514610229575b600080fd5b3480156101d257600080fd5b506101e66101e13660046128cb565b610616565b6040519081526020015b60405180910390f35b34801561020557600080fd5b50610219610214366004612a2a565b6106af565b60405190151581526020016101f0565b34801561023557600080fd5b50610249610244366004612a64565b6106c0565b005b34801561025757600080fd5b5061026b6102663660046129ee565b61071c565b6040516101f09190612cba565b34801561028457600080fd5b506101e66102933660046129ee565b60009081526097602052604090206001015490565b3480156102b457600080fd5b506102496102c3366004612a07565b610752565b3480156102d457600080fd5b506102496102e3366004612686565b61080b565b3480156102f457600080fd5b50610249610303366004612a07565b6108a2565b34801561031457600080fd5b50610249610323366004612a07565b6108cd565b34801561033457600080fd5b506102196103433660046128cb565b600090815260c9602090815260408083206001600160a01b039490941683529290522054151590565b34801561037857600080fd5b506102496103873660046128cb565b61094b565b34801561039857600080fd5b506103ac6103a7366004612928565b610a20565b6040516101f09190612c79565b3480156103c557600080fd5b5060cb546103d69063ffffffff1681565b60405163ffffffff90911681526020016101f0565b3480156103f757600080fd5b5061024961040636600461281c565b610b49565b6102496104193660046129ee565b610ba2565b34801561042a57600080fd5b506102496104393660046127cf565b610ed6565b34801561044a57600080fd5b5061024961110d565b34801561045f57600080fd5b5061021961046e366004612a07565b611226565b34801561047f57600080fd5b5061024961048e3660046128cb565b611251565b34801561049f57600080fd5b506101e6600081565b3480156104b457600080fd5b506102496104c336600461288f565b6112ca565b3480156104d457600080fd5b506102496104e33660046128f5565b6112d5565b3480156104f457600080fd5b5061024961050336600461272f565b6113dc565b34801561051457600080fd5b506101e66000805160206131ee83398151915281565b34801561053657600080fd5b50610249610545366004612a07565b611437565b34801561055657600080fd5b5061024961145d565b34801561056b57600080fd5b5061059561057a3660046129ee565b600090815260ca60205260409020546001600160a01b031690565b6040516001600160a01b0390911681526020016101f0565b3480156105b957600080fd5b506102196105c8366004612653565b6001600160a01b03918216600090815260666020908152604080832093909416825291909152205460ff1690565b34801561060257600080fd5b5061024961061136600461276b565b6114eb565b60006001600160a01b0383166106875760405162461bcd60e51b815260206004820152602b60248201527f455243313135353a2062616c616e636520717565727920666f7220746865207a60448201526a65726f206164647265737360a81b60648201526084015b60405180910390fd5b5060009081526065602090815260408083206001600160a01b03949094168352929052205490565b60006106ba82611572565b92915050565b6106cb600033611226565b6107105760405162461bcd60e51b81526020600482015260166024820152752aa9249031b0b73737ba103132903ab83230ba32b21760511b604482015260640161067e565b61071981611597565b50565b606080610728836115aa565b90508060405160200161073b9190612b1b565b604051602081830303815290604052915050919050565b61075d600033611226565b6107a95760405162461bcd60e51b815260206004820152601960248201527f486f6c6465722063616e6e6f7420626520757064617465642e00000000000000604482015260640161067e565b600082815260ca602090815260409182902080546001600160a01b0319166001600160a01b03851690811790915591518481527f497a8b06bdd19be11ad7dbb925855a5758d606d5125110e299244ece51726bca910160405180910390a25050565b6001600160a01b038516331480610827575061082785336105c8565b61088e5760405162461bcd60e51b815260206004820152603260248201527f455243313135353a207472616e736665722063616c6c6572206973206e6f74206044820152711bdddb995c881b9bdc88185c1c1c9bdd995960721b606482015260840161067e565b61089b85858585856116ba565b5050505050565b6000828152609760205260409020600101546108be8133611859565b6108c883836118bd565b505050565b6001600160a01b038116331461093d5760405162461bcd60e51b815260206004820152602f60248201527f416363657373436f6e74726f6c3a2063616e206f6e6c792072656e6f756e636560448201526e103937b632b9903337b91039b2b63360891b606482015260840161067e565b6109478282611943565b5050565b600081815260ca60205260409020546001600160a01b0316156109805760405162461bcd60e51b815260040161067e90612d15565b6109986000805160206131ee83398151915233611226565b6109dc5760405162461bcd60e51b81526020600482015260156024820152741391950818d85b9b9bdd0818994818dc99585d1959605a1b604482015260640161067e565b600081815260ca6020908152604080832080546001600160a01b0319166001600160a01b0387161790558051918201905290815261094790839083906001906119aa565b60608151835114610a855760405162461bcd60e51b815260206004820152602960248201527f455243313135353a206163636f756e747320616e6420696473206c656e677468604482015268040dad2e6dac2e8c6d60bb1b606482015260840161067e565b600083516001600160401b03811115610aa057610aa06130fc565b604051908082528060200260200182016040528015610ac9578160200160208202803683370190505b50905060005b8451811015610b4157610b14858281518110610aed57610aed6130e6565b6020026020010151858381518110610b0757610b076130e6565b6020026020010151610616565b828281518110610b2657610b266130e6565b6020908102919091010152610b3a81613091565b9050610acf565b509392505050565b610b54600033611226565b610b975760405162461bcd60e51b81526020600482015260146024820152731391950818d85b9b9bdd08189948189d5c9b995960621b604482015260640161067e565b6108c8838383611a6a565b600081815260ca60205260409020546001600160a01b0316610bf45760405162461bcd60e51b815260206004820152600b60248201526a125b9d985b1a590818da5960aa1b604482015260640161067e565b600081815260ca60205260409020546001600160a01b0316331415610c4b5760405162461bcd60e51b815260206004820152600d60248201526c24b73b30b634b210313abcb2b960991b604482015260640161067e565b600081815260c960209081526040808320338452909152902054610cb15760405162461bcd60e51b815260206004820181905260248201527f43616c6c6572206973206e6f74206f776e6572206e6f7220617070726f766564604482015260640161067e565b600081815260c9602090815260408083203384529091529020543414610d195760405162461bcd60e51b815260206004820152601f60248201527f496e76616c696420616d6f756e7420666f7220617070726f7665642062696400604482015260640161067e565b600081815260ca60205260408082205490516001600160a01b039091169190829034908381818185875af1925050503d8060008114610d74576040519150601f19603f3d011682016040523d82523d6000602084013e610d79565b606091505b5050905080610dd65760405162461bcd60e51b8152602060048201526024808201527f4661696c656420746f207472616e73666572207061796d656e7420746f207365604482015263363632b960e11b606482015260840161067e565b6000610de28385610616565b1115610e3f57610e3a60ca600085815260200190815260200160002060009054906101000a90046001600160a01b03163385600160ff166040518060400160405280600381526020016203078360ec1b815250611be9565b610e99565b610e6a3384600160ff166040518060400160405280600381526020016203078360ec1b8152506119aa565b6040805184815260016020820152339160009183916000805160206131ce833981519152910160405180910390a45b5050600081815260c9602090815260408083203380855290835281842084905593835260ca909152902080546001600160a01b0319169091179055565b610eee6000805160206131ee83398151915233611226565b610f325760405162461bcd60e51b81526020600482015260156024820152741391950818d85b9b9bdd0818994818dc99585d1959605a1b604482015260640161067e565b600081516001600160401b03811115610f4d57610f4d6130fc565b604051908082528060200260200182016040528015610f76578160200160208202803683370190505b509050600082516001600160401b03811115610f9457610f946130fc565b604051908082528060200260200182016040528015610fbd578160200160208202803683370190505b50905060005b83518110156110eb5760006001600160a01b031660ca6000868481518110610fed57610fed6130e6565b6020908102919091018101518252810191909152604001600020546001600160a01b03161461102e5760405162461bcd60e51b815260040161067e90612d15565b838181518110611040576110406130e6565b602002602001015183828151811061105a5761105a6130e6565b6020026020010181815250508460ca600085848151811061107d5761107d6130e6565b6020026020010151815260200190815260200160002060006101000a8154816001600160a01b0302191690836001600160a01b03160217905550600160ff168282815181106110ce576110ce6130e6565b6020908102919091010152806110e381613091565b915050610fc3565b5061110784838360405180602001604052806000815250611cf8565b50505050565b600054610100900460ff166111285760005460ff161561112c565b303b155b61118f5760405162461bcd60e51b815260206004820152602e60248201527f496e697469616c697a61626c653a20636f6e747261637420697320616c72656160448201526d191e481a5b9a5d1a585b1a5e995960921b606482015260840161067e565b600054610100900460ff161580156111b1576000805461ffff19166101011790555b6111ef6040518060400160405280601881526020017f697066733a2f2f66307b69647d2f696e6465782e6a736f6e0000000000000000815250611e44565b6111fa600033611e74565b6112126000805160206131ee83398151915233611e74565b8015610719576000805461ff001916905550565b60009182526097602090815260408084206001600160a01b0393909316845291905290205460ff1690565b61125c600033611226565b61129f5760405162461bcd60e51b81526020600482015260146024820152731391950818d85b9b9bdd08189948189d5c9b995960621b604482015260640161067e565b6112ab82826001611e7e565b600090815260ca6020526040902080546001600160a01b031916905550565b610947338383611f72565b336001600160a01b03841614156112fe5760405162461bcd60e51b815260040161067e90612ebb565b600082815260ca60205260409020546001600160a01b0316336001600160a01b0316146113795760405162461bcd60e51b815260206004820152602360248201527f4f6e6c79206f776e65722063616e2073657420617070726f76616c20666f722060448201526210d25160ea1b606482015260840161067e565b600082815260c9602090815260408083206001600160a01b0387168085529083529281902084905580518581529182018490527f0a5d49223cdca66ecee577e644907f9d77e9f5c6743247ebddd0c002ba8083b2910160405180910390a2505050565b611408838383600160ff166040518060400160405280600381526020016203078360ec1b8152506114eb565b600090815260ca6020526040902080546001600160a01b0319166001600160a01b039290921691909117905550565b6000828152609760205260409020600101546114538133611859565b6108c88383611943565b611468600033611226565b6114b45760405162461bcd60e51b815260206004820152601a60248201527f56657273696f6e2063616e6e6f7420626520757064617465642e000000000000604482015260640161067e565b60cb805463ffffffff169060006114ca836130ac565b91906101000a81548163ffffffff021916908363ffffffff16021790555050565b6001600160a01b038516331480611507575061150785336105c8565b6115655760405162461bcd60e51b815260206004820152602960248201527f455243313135353a2063616c6c6572206973206e6f74206f776e6572206e6f7260448201526808185c1c1c9bdd995960ba1b606482015260840161067e565b61089b8585858585611be9565b60006001600160e01b03198216637965db0b60e01b14806106ba57506106ba82612011565b80516109479060679060208401906124aa565b6060816115ce5750506040805180820190915260018152600360fc1b602082015290565b8160005b81156115f157806115e281613091565b915050600482901c91506115d2565b600f6000826001600160401b0381111561160d5761160d6130fc565b6040519080825280601f01601f191660200182016040528015611637576020820181803683370190505b509050825b86156116b0578683166009811161166057611658816030612fb0565b60f81b61166f565b61166b816037612fb0565b60f81b5b8361167984613013565b9350838151811061168c5761168c6130e6565b60200101906001600160f81b031916908160001a905350600488901c97505061163c565b5095945050505050565b81518351146116db5760405162461bcd60e51b815260040161067e90612f04565b6001600160a01b0384166117015760405162461bcd60e51b815260040161067e90612d9e565b3360005b84518110156117eb576000858281518110611722576117226130e6565b602002602001015190506000858381518110611740576117406130e6565b60209081029190910181015160008481526065835260408082206001600160a01b038e1683529093529190912054909150818110156117915760405162461bcd60e51b815260040161067e90612e26565b60008381526065602090815260408083206001600160a01b038e8116855292528083208585039055908b168252812080548492906117d0908490612fb0565b92505081905550505050806117e490613091565b9050611705565b50846001600160a01b0316866001600160a01b0316826001600160a01b03167f4a39dc06d4c0dbc64b70af90fd698a233a518aa5d07e595d983b8c0526c8f7fb878760405161183b929190612c8c565b60405180910390a4611851818787878787612061565b505050505050565b6118638282611226565b6109475761187b816001600160a01b031660146121cc565b6118868360206121cc565b604051602001611897929190612b61565b60408051601f198184030181529082905262461bcd60e51b825261067e91600401612cba565b6118c78282611226565b6109475760008281526097602090815260408083206001600160a01b03851684529091529020805460ff191660011790556118ff3390565b6001600160a01b0316816001600160a01b0316837f2f8788117e7eff1d82e926ec794901d17c78024a50270940304540a733656f0d60405160405180910390a45050565b61194d8282611226565b156109475760008281526097602090815260408083206001600160a01b0385168085529252808320805460ff1916905551339285917ff6391f5c32d9c69d2a47ea670b442974b53935d1edc7fd64eb21e047a839171b9190a45050565b6001600160a01b0384166119d05760405162461bcd60e51b815260040161067e90612f4c565b336119ea816000876119e18861236e565b61089b8861236e565b60008481526065602090815260408083206001600160a01b038916845290915281208054859290611a1c908490612fb0565b909155505060408051858152602081018590526001600160a01b0380881692600092918516916000805160206131ce833981519152910160405180910390a461089b816000878787876123b9565b6001600160a01b038316611a905760405162461bcd60e51b815260040161067e90612de3565b8051825114611ab15760405162461bcd60e51b815260040161067e90612f04565b604080516020810190915260009081905233905b8351811015611b8a576000848281518110611ae257611ae26130e6565b602002602001015190506000848381518110611b0057611b006130e6565b60209081029190910181015160008481526065835260408082206001600160a01b038c168352909352919091205490915081811015611b515760405162461bcd60e51b815260040161067e90612d5a565b60009283526065602090815260408085206001600160a01b038b1686529091529092209103905580611b8281613091565b915050611ac5565b5060006001600160a01b0316846001600160a01b0316826001600160a01b03167f4a39dc06d4c0dbc64b70af90fd698a233a518aa5d07e595d983b8c0526c8f7fb8686604051611bdb929190612c8c565b60405180910390a450505050565b6001600160a01b038416611c0f5760405162461bcd60e51b815260040161067e90612d9e565b33611c1f8187876119e18861236e565b60008481526065602090815260408083206001600160a01b038a16845290915290205483811015611c625760405162461bcd60e51b815260040161067e90612e26565b60008581526065602090815260408083206001600160a01b038b8116855292528083208785039055908816825281208054869290611ca1908490612fb0565b909155505060408051868152602081018690526001600160a01b03808916928a821692918616916000805160206131ce833981519152910160405180910390a4611cef8288888888886123b9565b50505050505050565b6001600160a01b038416611d1e5760405162461bcd60e51b815260040161067e90612f4c565b8151835114611d3f5760405162461bcd60e51b815260040161067e90612f04565b3360005b8451811015611ddc57838181518110611d5e57611d5e6130e6565b602002602001015160656000878481518110611d7c57611d7c6130e6565b602002602001015181526020019081526020016000206000886001600160a01b03166001600160a01b031681526020019081526020016000206000828254611dc49190612fb0565b90915550819050611dd481613091565b915050611d43565b50846001600160a01b031660006001600160a01b0316826001600160a01b03167f4a39dc06d4c0dbc64b70af90fd698a233a518aa5d07e595d983b8c0526c8f7fb8787604051611e2d929190612c8c565b60405180910390a461089b81600087878787612061565b600054610100900460ff16611e6b5760405162461bcd60e51b815260040161067e90612e70565b61071981612483565b61094782826118bd565b6001600160a01b038316611ea45760405162461bcd60e51b815260040161067e90612de3565b33611ed481856000611eb58761236e565b611ebe8761236e565b5050604080516020810190915260009052505050565b60008381526065602090815260408083206001600160a01b038816845290915290205482811015611f175760405162461bcd60e51b815260040161067e90612d5a565b60008481526065602090815260408083206001600160a01b03898116808652918452828520888703905582518981529384018890529092908616916000805160206131ce833981519152910160405180910390a45050505050565b816001600160a01b0316836001600160a01b03161415611fa45760405162461bcd60e51b815260040161067e90612ebb565b6001600160a01b03838116600081815260666020908152604080832094871680845294825291829020805460ff191686151590811790915591519182527f17307eab39ab6107e8899845ad3d59bd9653f200f220920489ca2b5937696c31910160405180910390a3505050565b60006001600160e01b03198216636cdb3d1360e11b148061204257506001600160e01b031982166303a24d0760e21b145b806106ba57506301ffc9a760e01b6001600160e01b03198316146106ba565b6001600160a01b0384163b156118515760405163bc197c8160e01b81526001600160a01b0385169063bc197c81906120a59089908990889088908890600401612bd6565b602060405180830381600087803b1580156120bf57600080fd5b505af19250505080156120ef575060408051601f3d908101601f191682019092526120ec91810190612a47565b60015b61219c576120fb613112565b806308c379a01415612135575061211061312e565b8061211b5750612137565b8060405162461bcd60e51b815260040161067e9190612cba565b505b60405162461bcd60e51b815260206004820152603460248201527f455243313135353a207472616e7366657220746f206e6f6e20455243313135356044820152732932b1b2b4bb32b91034b6b83632b6b2b73a32b960611b606482015260840161067e565b6001600160e01b0319811663bc197c8160e01b14611cef5760405162461bcd60e51b815260040161067e90612ccd565b606060006121db836002612fc8565b6121e6906002612fb0565b6001600160401b038111156121fd576121fd6130fc565b6040519080825280601f01601f191660200182016040528015612227576020820181803683370190505b509050600360fc1b81600081518110612242576122426130e6565b60200101906001600160f81b031916908160001a905350600f60fb1b81600181518110612271576122716130e6565b60200101906001600160f81b031916908160001a9053506000612295846002612fc8565b6122a0906001612fb0565b90505b6001811115612318576f181899199a1a9b1b9c1cb0b131b232b360811b85600f16601081106122d4576122d46130e6565b1a60f81b8282815181106122ea576122ea6130e6565b60200101906001600160f81b031916908160001a90535060049490941c9361231181613013565b90506122a3565b5083156123675760405162461bcd60e51b815260206004820181905260248201527f537472696e67733a20686578206c656e67746820696e73756666696369656e74604482015260640161067e565b9392505050565b604080516001808252818301909252606091600091906020808301908036833701905050905082816000815181106123a8576123a86130e6565b602090810291909101015292915050565b6001600160a01b0384163b156118515760405163f23a6e6160e01b81526001600160a01b0385169063f23a6e61906123fd9089908990889088908890600401612c34565b602060405180830381600087803b15801561241757600080fd5b505af1925050508015612447575060408051601f3d908101601f1916820190925261244491810190612a47565b60015b612453576120fb613112565b6001600160e01b0319811663f23a6e6160e01b14611cef5760405162461bcd60e51b815260040161067e90612ccd565b600054610100900460ff166107105760405162461bcd60e51b815260040161067e90612e70565b8280546124b69061302a565b90600052602060002090601f0160209004810192826124d8576000855561251e565b82601f106124f157805160ff191683800117855561251e565b8280016001018555821561251e579182015b8281111561251e578251825591602001919060010190612503565b5061252a92915061252e565b5090565b5b8082111561252a576000815560010161252f565b60006001600160401b0383111561255c5761255c6130fc565b604051612573601f8501601f191660200182613065565b80915083815284848401111561258857600080fd5b83836020830137600060208583010152509392505050565b80356001600160a01b03811681146125b757600080fd5b919050565b600082601f8301126125cd57600080fd5b813560206125da82612f8d565b6040516125e78282613065565b8381528281019150858301600585901b8701840188101561260757600080fd5b60005b858110156126265781358452928401929084019060010161260a565b5090979650505050505050565b600082601f83011261264457600080fd5b61236783833560208501612543565b6000806040838503121561266657600080fd5b61266f836125a0565b915061267d602084016125a0565b90509250929050565b600080600080600060a0868803121561269e57600080fd5b6126a7866125a0565b94506126b5602087016125a0565b935060408601356001600160401b03808211156126d157600080fd5b6126dd89838a016125bc565b945060608801359150808211156126f357600080fd5b6126ff89838a016125bc565b9350608088013591508082111561271557600080fd5b5061272288828901612633565b9150509295509295909350565b60008060006060848603121561274457600080fd5b61274d846125a0565b925061275b602085016125a0565b9150604084013590509250925092565b600080600080600060a0868803121561278357600080fd5b61278c866125a0565b945061279a602087016125a0565b9350604086013592506060860135915060808601356001600160401b038111156127c357600080fd5b61272288828901612633565b600080604083850312156127e257600080fd5b6127eb836125a0565b915060208301356001600160401b0381111561280657600080fd5b612812858286016125bc565b9150509250929050565b60008060006060848603121561283157600080fd5b61283a846125a0565b925060208401356001600160401b038082111561285657600080fd5b612862878388016125bc565b9350604086013591508082111561287857600080fd5b50612885868287016125bc565b9150509250925092565b600080604083850312156128a257600080fd5b6128ab836125a0565b9150602083013580151581146128c057600080fd5b809150509250929050565b600080604083850312156128de57600080fd5b6128e7836125a0565b946020939093013593505050565b60008060006060848603121561290a57600080fd5b612913846125a0565b95602085013595506040909401359392505050565b6000806040838503121561293b57600080fd5b82356001600160401b038082111561295257600080fd5b818501915085601f83011261296657600080fd5b8135602061297382612f8d565b6040516129808282613065565b8381528281019150858301600585901b870184018b10156129a057600080fd5b600096505b848710156129ca576129b6816125a0565b8352600196909601959183019183016129a5565b50965050860135925050808211156129e157600080fd5b50612812858286016125bc565b600060208284031215612a0057600080fd5b5035919050565b60008060408385031215612a1a57600080fd5b8235915061267d602084016125a0565b600060208284031215612a3c57600080fd5b8135612367816131b7565b600060208284031215612a5957600080fd5b8151612367816131b7565b600060208284031215612a7657600080fd5b81356001600160401b03811115612a8c57600080fd5b8201601f81018413612a9d57600080fd5b612aac84823560208401612543565b949350505050565b600081518084526020808501945080840160005b83811015612ae457815187529582019590820190600101612ac8565b509495945050505050565b60008151808452612b07816020860160208601612fe7565b601f01601f19169290920160200192915050565b680697066733a2f2f66360bc1b815260008251612b3f816009850160208701612fe7565b6a17b4b73232bc173539b7b760a91b6009939091019283015250601401919050565b7f416363657373436f6e74726f6c3a206163636f756e7420000000000000000000815260008351612b99816017850160208801612fe7565b7001034b99036b4b9b9b4b733903937b6329607d1b6017918401918201528351612bca816028840160208801612fe7565b01602801949350505050565b6001600160a01b0386811682528516602082015260a060408201819052600090612c0290830186612ab4565b8281036060840152612c148186612ab4565b90508281036080840152612c288185612aef565b98975050505050505050565b6001600160a01b03868116825285166020820152604081018490526060810183905260a060808201819052600090612c6e90830184612aef565b979650505050505050565b6020815260006123676020830184612ab4565b604081526000612c9f6040830185612ab4565b8281036020840152612cb18185612ab4565b95945050505050565b6020815260006123676020830184612aef565b60208082526028908201527f455243313135353a204552433131353552656365697665722072656a656374656040820152676420746f6b656e7360c01b606082015260800190565b60208082526025908201527f5468697320746f6b656e2049442068617320616c7265616479206265656e206d6040820152641a5b9d195960da1b606082015260800190565b60208082526024908201527f455243313135353a206275726e20616d6f756e7420657863656564732062616c604082015263616e636560e01b606082015260800190565b60208082526025908201527f455243313135353a207472616e7366657220746f20746865207a65726f206164604082015264647265737360d81b606082015260800190565b60208082526023908201527f455243313135353a206275726e2066726f6d20746865207a65726f206164647260408201526265737360e81b606082015260800190565b6020808252602a908201527f455243313135353a20696e73756666696369656e742062616c616e636520666f60408201526939103a3930b739b332b960b11b606082015260800190565b6020808252602b908201527f496e697469616c697a61626c653a20636f6e7472616374206973206e6f74206960408201526a6e697469616c697a696e6760a81b606082015260800190565b60208082526029908201527f455243313135353a2073657474696e6720617070726f76616c20737461747573604082015268103337b91039b2b63360b91b606082015260800190565b60208082526028908201527f455243313135353a2069647320616e6420616d6f756e7473206c656e677468206040820152670dad2e6dac2e8c6d60c31b606082015260800190565b60208082526021908201527f455243313135353a206d696e7420746f20746865207a65726f206164647265736040820152607360f81b606082015260800190565b60006001600160401b03821115612fa657612fa66130fc565b5060051b60200190565b60008219821115612fc357612fc36130d0565b500190565b6000816000190483118215151615612fe257612fe26130d0565b500290565b60005b83811015613002578181015183820152602001612fea565b838111156111075750506000910152565b600081613022576130226130d0565b506000190190565b600181811c9082168061303e57607f821691505b6020821081141561305f57634e487b7160e01b600052602260045260246000fd5b50919050565b601f8201601f191681016001600160401b038111828210171561308a5761308a6130fc565b6040525050565b60006000198214156130a5576130a56130d0565b5060010190565b600063ffffffff808316818114156130c6576130c66130d0565b6001019392505050565b634e487b7160e01b600052601160045260246000fd5b634e487b7160e01b600052603260045260246000fd5b634e487b7160e01b600052604160045260246000fd5b600060033d111561312b5760046000803e5060005160e01c5b90565b600060443d101561313c5790565b6040516003193d81016004833e81513d6001600160401b03816024840111818411171561316b57505050505090565b82850191508151818111156131835750505050505090565b843d870101602082850101111561319d5750505050505090565b6131ac60208286010187613065565b509095945050505050565b6001600160e01b03198116811461071957600080fdfec3d58168c5ae7397731d063d5bbf3d657854427343f4c083240f7aacaa2d0f623a5b873628a2c49bf313473942acc8932f6f84c76b74bf3db0e4d8b51277a623a26469706673582212209a5244aade7e81710824c83a2313b6355c9fdbdcadc97614e7db7fd68781a91d64736f6c63430008060033",
  "devdoc": {
    "kind": "dev",
    "methods": {
      "balanceOf(address,uint256)": {
        "details": "See {IERC1155-balanceOf}. Requirements: - `account` cannot be the zero address."
      },
      "balanceOfBatch(address[],uint256[])": {
        "details": "See {IERC1155-balanceOfBatch}. Requirements: - `accounts` and `ids` must have the same length."
      },
      "getRoleAdmin(bytes32)": {
        "details": "Returns the admin role that controls `role`. See {grantRole} and {revokeRole}. To change a role's admin, use {_setRoleAdmin}."
      },
      "grantRole(bytes32,address)": {
        "details": "Grants `role` to `account`. If `account` had not been already granted `role`, emits a {RoleGranted} event. Requirements: - the caller must have ``role``'s admin role."
      },
      "hasRole(bytes32,address)": {
        "details": "Returns `true` if `account` has been granted `role`."
      },
      "isApprovedFor(address,uint256)": {
        "details": "See {IERC1155-isApprovedForAll}."
      },
      "isApprovedForAll(address,address)": {
        "details": "See {IERC1155-isApprovedForAll}."
      },
      "renounceRole(bytes32,address)": {
        "details": "Revokes `role` from the calling account. Roles are often managed via {grantRole} and {revokeRole}: this function's purpose is to provide a mechanism for accounts to lose their privileges if they are compromised (such as when a trusted device is misplaced). If the calling account had been revoked `role`, emits a {RoleRevoked} event. Requirements: - the caller must be `account`."
      },
      "revokeRole(bytes32,address)": {
        "details": "Revokes `role` from `account`. If `account` had been granted `role`, emits a {RoleRevoked} event. Requirements: - the caller must have ``role``'s admin role."
      },
      "safeBatchTransferFrom(address,address,uint256[],uint256[],bytes)": {
        "details": "See {IERC1155-safeBatchTransferFrom}."
      },
      "safePurchase(uint256)": {
        "details": "emit PurchaseResponseReceived on purchase ready to get done",
        "params": {
          "cid": "IPFS content unique identifier."
        }
      },
      "safeTransferFrom(address,address,uint256,uint256,bytes)": {
        "details": "See {IERC1155-safeTransferFrom}."
      },
      "setApprovalFor(address,uint256,uint256)": {
        "details": "See {IERC1155-setApprovalForAll}.",
        "params": {
          "approved": "bid amount for cid",
          "cid": "NFT id",
          "operator": "current buyer"
        }
      },
      "setApprovalForAll(address,bool)": {
        "details": "See {IERC1155-setApprovalForAll}."
      }
    },
    "version": 1
  },
  "userdoc": {
    "kind": "user",
    "methods": {
      "safePurchase(uint256)": {
        "notice": "Check for safe transfer using custom approval"
      },
      "setApprovalFor(address,uint256,uint256)": {
        "notice": "This works like setApprovalForAll with cid reference instead of sender Why this? ApprovalForAll set approval for every action from operator. In our case we need allow actions for specific cid and operator"
      }
    },
    "version": 1
  },
  "storageLayout": {
    "storage": [
      {
        "astId": 408,
        "contract": "contracts/1155-WNFT.sol:WNFT",
        "label": "_initialized",
        "offset": 0,
        "slot": "0",
        "type": "t_bool"
      },
      {
        "astId": 411,
        "contract": "contracts/1155-WNFT.sol:WNFT",
        "label": "_initializing",
        "offset": 1,
        "slot": "0",
        "type": "t_bool"
      },
      {
        "astId": 2055,
        "contract": "contracts/1155-WNFT.sol:WNFT",
        "label": "__gap",
        "offset": 0,
        "slot": "1",
        "type": "t_array(t_uint256)50_storage"
      },
      {
        "astId": 2302,
        "contract": "contracts/1155-WNFT.sol:WNFT",
        "label": "__gap",
        "offset": 0,
        "slot": "51",
        "type": "t_array(t_uint256)50_storage"
      },
      {
        "astId": 504,
        "contract": "contracts/1155-WNFT.sol:WNFT",
        "label": "_balances",
        "offset": 0,
        "slot": "101",
        "type": "t_mapping(t_uint256,t_mapping(t_address,t_uint256))"
      },
      {
        "astId": 510,
        "contract": "contracts/1155-WNFT.sol:WNFT",
        "label": "_operatorApprovals",
        "offset": 0,
        "slot": "102",
        "type": "t_mapping(t_address,t_mapping(t_address,t_bool))"
      },
      {
        "astId": 512,
        "contract": "contracts/1155-WNFT.sol:WNFT",
        "label": "_uri",
        "offset": 0,
        "slot": "103",
        "type": "t_string_storage"
      },
      {
        "astId": 1592,
        "contract": "contracts/1155-WNFT.sol:WNFT",
        "label": "__gap",
        "offset": 0,
        "slot": "104",
        "type": "t_array(t_uint256)47_storage"
      },
      {
        "astId": 39,
        "contract": "contracts/1155-WNFT.sol:WNFT",
        "label": "_roles",
        "offset": 0,
        "slot": "151",
        "type": "t_mapping(t_bytes32,t_struct(RoleData)34_storage)"
      },
      {
        "astId": 327,
        "contract": "contracts/1155-WNFT.sol:WNFT",
        "label": "__gap",
        "offset": 0,
        "slot": "152",
        "type": "t_array(t_uint256)49_storage"
      },
      {
        "astId": 2344,
        "contract": "contracts/1155-WNFT.sol:WNFT",
        "label": "_nftApprovals",
        "offset": 0,
        "slot": "201",
        "type": "t_mapping(t_uint256,t_mapping(t_address,t_uint256))"
      },
      {
        "astId": 2363,
        "contract": "contracts/1155-WNFT.sol:WNFT",
        "label": "holders",
        "offset": 0,
        "slot": "202",
        "type": "t_mapping(t_uint256,t_address)"
      },
      {
        "astId": 2365,
        "contract": "contracts/1155-WNFT.sol:WNFT",
        "label": "version",
        "offset": 0,
        "slot": "203",
        "type": "t_uint32"
      }
    ],
    "types": {
      "t_address": {
        "encoding": "inplace",
        "label": "address",
        "numberOfBytes": "20"
      },
      "t_array(t_uint256)47_storage": {
        "base": "t_uint256",
        "encoding": "inplace",
        "label": "uint256[47]",
        "numberOfBytes": "1504"
      },
      "t_array(t_uint256)49_storage": {
        "base": "t_uint256",
        "encoding": "inplace",
        "label": "uint256[49]",
        "numberOfBytes": "1568"
      },
      "t_array(t_uint256)50_storage": {
        "base": "t_uint256",
        "encoding": "inplace",
        "label": "uint256[50]",
        "numberOfBytes": "1600"
      },
      "t_bool": {
        "encoding": "inplace",
        "label": "bool",
        "numberOfBytes": "1"
      },
      "t_bytes32": {
        "encoding": "inplace",
        "label": "bytes32",
        "numberOfBytes": "32"
      },
      "t_mapping(t_address,t_bool)": {
        "encoding": "mapping",
        "key": "t_address",
        "label": "mapping(address => bool)",
        "numberOfBytes": "32",
        "value": "t_bool"
      },
      "t_mapping(t_address,t_mapping(t_address,t_bool))": {
        "encoding": "mapping",
        "key": "t_address",
        "label": "mapping(address => mapping(address => bool))",
        "numberOfBytes": "32",
        "value": "t_mapping(t_address,t_bool)"
      },
      "t_mapping(t_address,t_uint256)": {
        "encoding": "mapping",
        "key": "t_address",
        "label": "mapping(address => uint256)",
        "numberOfBytes": "32",
        "value": "t_uint256"
      },
      "t_mapping(t_bytes32,t_struct(RoleData)34_storage)": {
        "encoding": "mapping",
        "key": "t_bytes32",
        "label": "mapping(bytes32 => struct AccessControlUpgradeable.RoleData)",
        "numberOfBytes": "32",
        "value": "t_struct(RoleData)34_storage"
      },
      "t_mapping(t_uint256,t_address)": {
        "encoding": "mapping",
        "key": "t_uint256",
        "label": "mapping(uint256 => address)",
        "numberOfBytes": "32",
        "value": "t_address"
      },
      "t_mapping(t_uint256,t_mapping(t_address,t_uint256))": {
        "encoding": "mapping",
        "key": "t_uint256",
        "label": "mapping(uint256 => mapping(address => uint256))",
        "numberOfBytes": "32",
        "value": "t_mapping(t_address,t_uint256)"
      },
      "t_string_storage": {
        "encoding": "bytes",
        "label": "string",
        "numberOfBytes": "32"
      },
      "t_struct(RoleData)34_storage": {
        "encoding": "inplace",
        "label": "struct AccessControlUpgradeable.RoleData",
        "members": [
          {
            "astId": 31,
            "contract": "contracts/1155-WNFT.sol:WNFT",
            "label": "members",
            "offset": 0,
            "slot": "0",
            "type": "t_mapping(t_address,t_bool)"
          },
          {
            "astId": 33,
            "contract": "contracts/1155-WNFT.sol:WNFT",
            "label": "adminRole",
            "offset": 0,
            "slot": "1",
            "type": "t_bytes32"
          }
        ],
        "numberOfBytes": "64"
      },
      "t_uint256": {
        "encoding": "inplace",
        "label": "uint256",
        "numberOfBytes": "32"
      },
      "t_uint32": {
        "encoding": "inplace",
        "label": "uint32",
        "numberOfBytes": "4"
      }
    }
  }
}