{
  "address": "0x14C9dd88A49CE97692f0B4fab52Fa160B1caa542",
  "abi": [
    {
      "inputs": [
        {
          "internalType": "uint256",
          "name": "initialSupply",
          "type": "uint256"
        }
      ],
      "stateMutability": "nonpayable",
      "type": "constructor"
    },
    {
      "anonymous": false,
      "inputs": [
        {
          "indexed": true,
          "internalType": "address",
          "name": "owner",
          "type": "address"
        },
        {
          "indexed": true,
          "internalType": "address",
          "name": "spender",
          "type": "address"
        },
        {
          "indexed": false,
          "internalType": "uint256",
          "name": "value",
          "type": "uint256"
        }
      ],
      "name": "Approval",
      "type": "event"
    },
    {
      "anonymous": false,
      "inputs": [
        {
          "indexed": true,
          "internalType": "bytes32",
          "name": "role",
          "type": "bytes32"
        },
        {
          "indexed": true,
          "internalType": "bytes32",
          "name": "previousAdminRole",
          "type": "bytes32"
        },
        {
          "indexed": true,
          "internalType": "bytes32",
          "name": "newAdminRole",
          "type": "bytes32"
        }
      ],
      "name": "RoleAdminChanged",
      "type": "event"
    },
    {
      "anonymous": false,
      "inputs": [
        {
          "indexed": true,
          "internalType": "bytes32",
          "name": "role",
          "type": "bytes32"
        },
        {
          "indexed": true,
          "internalType": "address",
          "name": "account",
          "type": "address"
        },
        {
          "indexed": true,
          "internalType": "address",
          "name": "sender",
          "type": "address"
        }
      ],
      "name": "RoleGranted",
      "type": "event"
    },
    {
      "anonymous": false,
      "inputs": [
        {
          "indexed": true,
          "internalType": "bytes32",
          "name": "role",
          "type": "bytes32"
        },
        {
          "indexed": true,
          "internalType": "address",
          "name": "account",
          "type": "address"
        },
        {
          "indexed": true,
          "internalType": "address",
          "name": "sender",
          "type": "address"
        }
      ],
      "name": "RoleRevoked",
      "type": "event"
    },
    {
      "anonymous": false,
      "inputs": [
        {
          "indexed": true,
          "internalType": "address",
          "name": "from",
          "type": "address"
        },
        {
          "indexed": true,
          "internalType": "address",
          "name": "to",
          "type": "address"
        },
        {
          "indexed": false,
          "internalType": "uint256",
          "name": "value",
          "type": "uint256"
        }
      ],
      "name": "Transfer",
      "type": "event"
    },
    {
      "inputs": [],
      "name": "DEFAULT_ADMIN_ROLE",
      "outputs": [
        {
          "internalType": "bytes32",
          "name": "",
          "type": "bytes32"
        }
      ],
      "stateMutability": "view",
      "type": "function"
    },
    {
      "inputs": [
        {
          "internalType": "address",
          "name": "owner",
          "type": "address"
        },
        {
          "internalType": "address",
          "name": "spender",
          "type": "address"
        }
      ],
      "name": "allowance",
      "outputs": [
        {
          "internalType": "uint256",
          "name": "",
          "type": "uint256"
        }
      ],
      "stateMutability": "view",
      "type": "function"
    },
    {
      "inputs": [
        {
          "internalType": "address",
          "name": "spender",
          "type": "address"
        },
        {
          "internalType": "uint256",
          "name": "amount",
          "type": "uint256"
        }
      ],
      "name": "approve",
      "outputs": [
        {
          "internalType": "bool",
          "name": "",
          "type": "bool"
        }
      ],
      "stateMutability": "nonpayable",
      "type": "function"
    },
    {
      "inputs": [
        {
          "internalType": "address",
          "name": "account",
          "type": "address"
        }
      ],
      "name": "balanceOf",
      "outputs": [
        {
          "internalType": "uint256",
          "name": "",
          "type": "uint256"
        }
      ],
      "stateMutability": "view",
      "type": "function"
    },
    {
      "inputs": [
        {
          "internalType": "address",
          "name": "account",
          "type": "address"
        },
        {
          "internalType": "uint256",
          "name": "amount",
          "type": "uint256"
        }
      ],
      "name": "burn",
      "outputs": [],
      "stateMutability": "nonpayable",
      "type": "function"
    },
    {
      "inputs": [],
      "name": "decimals",
      "outputs": [
        {
          "internalType": "uint8",
          "name": "",
          "type": "uint8"
        }
      ],
      "stateMutability": "view",
      "type": "function"
    },
    {
      "inputs": [
        {
          "internalType": "address",
          "name": "spender",
          "type": "address"
        },
        {
          "internalType": "uint256",
          "name": "subtractedValue",
          "type": "uint256"
        }
      ],
      "name": "decreaseAllowance",
      "outputs": [
        {
          "internalType": "bool",
          "name": "",
          "type": "bool"
        }
      ],
      "stateMutability": "nonpayable",
      "type": "function"
    },
    {
      "inputs": [
        {
          "internalType": "bytes32",
          "name": "role",
          "type": "bytes32"
        }
      ],
      "name": "getRoleAdmin",
      "outputs": [
        {
          "internalType": "bytes32",
          "name": "",
          "type": "bytes32"
        }
      ],
      "stateMutability": "view",
      "type": "function"
    },
    {
      "inputs": [
        {
          "internalType": "bytes32",
          "name": "role",
          "type": "bytes32"
        },
        {
          "internalType": "address",
          "name": "account",
          "type": "address"
        }
      ],
      "name": "grantRole",
      "outputs": [],
      "stateMutability": "nonpayable",
      "type": "function"
    },
    {
      "inputs": [
        {
          "internalType": "bytes32",
          "name": "role",
          "type": "bytes32"
        },
        {
          "internalType": "address",
          "name": "account",
          "type": "address"
        }
      ],
      "name": "hasRole",
      "outputs": [
        {
          "internalType": "bool",
          "name": "",
          "type": "bool"
        }
      ],
      "stateMutability": "view",
      "type": "function"
    },
    {
      "inputs": [
        {
          "internalType": "address",
          "name": "spender",
          "type": "address"
        },
        {
          "internalType": "uint256",
          "name": "addedValue",
          "type": "uint256"
        }
      ],
      "name": "increaseAllowance",
      "outputs": [
        {
          "internalType": "bool",
          "name": "",
          "type": "bool"
        }
      ],
      "stateMutability": "nonpayable",
      "type": "function"
    },
    {
      "inputs": [
        {
          "internalType": "address",
          "name": "account",
          "type": "address"
        },
        {
          "internalType": "uint256",
          "name": "amount",
          "type": "uint256"
        }
      ],
      "name": "mint",
      "outputs": [],
      "stateMutability": "nonpayable",
      "type": "function"
    },
    {
      "inputs": [],
      "name": "name",
      "outputs": [
        {
          "internalType": "string",
          "name": "",
          "type": "string"
        }
      ],
      "stateMutability": "view",
      "type": "function"
    },
    {
      "inputs": [
        {
          "internalType": "bytes32",
          "name": "role",
          "type": "bytes32"
        },
        {
          "internalType": "address",
          "name": "account",
          "type": "address"
        }
      ],
      "name": "renounceRole",
      "outputs": [],
      "stateMutability": "nonpayable",
      "type": "function"
    },
    {
      "inputs": [
        {
          "internalType": "bytes32",
          "name": "role",
          "type": "bytes32"
        },
        {
          "internalType": "address",
          "name": "account",
          "type": "address"
        }
      ],
      "name": "revokeRole",
      "outputs": [],
      "stateMutability": "nonpayable",
      "type": "function"
    },
    {
      "inputs": [
        {
          "internalType": "bytes4",
          "name": "interfaceId",
          "type": "bytes4"
        }
      ],
      "name": "supportsInterface",
      "outputs": [
        {
          "internalType": "bool",
          "name": "",
          "type": "bool"
        }
      ],
      "stateMutability": "view",
      "type": "function"
    },
    {
      "inputs": [],
      "name": "symbol",
      "outputs": [
        {
          "internalType": "string",
          "name": "",
          "type": "string"
        }
      ],
      "stateMutability": "view",
      "type": "function"
    },
    {
      "inputs": [],
      "name": "totalSupply",
      "outputs": [
        {
          "internalType": "uint256",
          "name": "",
          "type": "uint256"
        }
      ],
      "stateMutability": "view",
      "type": "function"
    },
    {
      "inputs": [
        {
          "internalType": "address",
          "name": "recipient",
          "type": "address"
        },
        {
          "internalType": "uint256",
          "name": "amount",
          "type": "uint256"
        }
      ],
      "name": "transfer",
      "outputs": [
        {
          "internalType": "bool",
          "name": "",
          "type": "bool"
        }
      ],
      "stateMutability": "nonpayable",
      "type": "function"
    },
    {
      "inputs": [
        {
          "internalType": "address",
          "name": "sender",
          "type": "address"
        },
        {
          "internalType": "address",
          "name": "recipient",
          "type": "address"
        },
        {
          "internalType": "uint256",
          "name": "amount",
          "type": "uint256"
        }
      ],
      "name": "transferFrom",
      "outputs": [
        {
          "internalType": "bool",
          "name": "",
          "type": "bool"
        }
      ],
      "stateMutability": "nonpayable",
      "type": "function"
    },
    {
      "inputs": [],
      "name": "upgrade",
      "outputs": [],
      "stateMutability": "nonpayable",
      "type": "function"
    },
    {
      "inputs": [],
      "name": "version",
      "outputs": [
        {
          "internalType": "uint32",
          "name": "",
          "type": "uint32"
        }
      ],
      "stateMutability": "view",
      "type": "function"
    }
  ],
  "transactionHash": "0xc82f1230cb4f26e1ace68e46531da4f73adfd425f3738313026ddf8b25c8589c",
  "args": [
    2000
  ],
  "solcInputHash": "362d69736b302802f8293d8dfedbe1c3",
  "bytecode": "0x60806040523480156200001157600080fd5b5060405162002e3238038062002e328339818101604052810190620000379190620004ca565b6040518060400160405280601281526020017f5761746368497420566964656f20436f696e00000000000000000000000000008152506040518060400160405280600381526020017f57564300000000000000000000000000000000000000000000000000000000008152508160039080519060200190620000bb92919062000403565b508060049080519060200190620000d492919062000403565b505050620000ec6000801b336200010560201b60201c565b620000fe33826200011b60201b60201c565b50620006c7565b6200011782826200029460201b60201c565b5050565b600073ffffffffffffffffffffffffffffffffffffffff168273ffffffffffffffffffffffffffffffffffffffff1614156200018e576040517f08c379a0000000000000000000000000000000000000000000000000000000008152600401620001859062000534565b60405180910390fd5b620001a2600083836200038660201b60201c565b8060026000828254620001b6919062000584565b92505081905550806000808473ffffffffffffffffffffffffffffffffffffffff1673ffffffffffffffffffffffffffffffffffffffff16815260200190815260200160002060008282546200020d919062000584565b925050819055508173ffffffffffffffffffffffffffffffffffffffff16600073ffffffffffffffffffffffffffffffffffffffff167fddf252ad1be2c89b69c2b068fc378daa952ba7f163c4a11628f55a4df523b3ef8360405162000274919062000556565b60405180910390a362000290600083836200038b60201b60201c565b5050565b620002a682826200039060201b60201c565b620003825760016005600084815260200190815260200160002060000160008373ffffffffffffffffffffffffffffffffffffffff1673ffffffffffffffffffffffffffffffffffffffff16815260200190815260200160002060006101000a81548160ff02191690831515021790555062000327620003fb60201b60201c565b73ffffffffffffffffffffffffffffffffffffffff168173ffffffffffffffffffffffffffffffffffffffff16837f2f8788117e7eff1d82e926ec794901d17c78024a50270940304540a733656f0d60405160405180910390a45b5050565b505050565b505050565b60006005600084815260200190815260200160002060000160008373ffffffffffffffffffffffffffffffffffffffff1673ffffffffffffffffffffffffffffffffffffffff16815260200190815260200160002060009054906101000a900460ff16905092915050565b600033905090565b8280546200041190620005eb565b90600052602060002090601f01602090048101928262000435576000855562000481565b82601f106200045057805160ff191683800117855562000481565b8280016001018555821562000481579182015b828111156200048057825182559160200191906001019062000463565b5b50905062000490919062000494565b5090565b5b80821115620004af57600081600090555060010162000495565b5090565b600081519050620004c481620006ad565b92915050565b600060208284031215620004e357620004e26200067f565b5b6000620004f384828501620004b3565b91505092915050565b60006200050b601f8362000573565b9150620005188262000684565b602082019050919050565b6200052e81620005e1565b82525050565b600060208201905081810360008301526200054f81620004fc565b9050919050565b60006020820190506200056d600083018462000523565b92915050565b600082825260208201905092915050565b60006200059182620005e1565b91506200059e83620005e1565b9250827fffffffffffffffffffffffffffffffffffffffffffffffffffffffffffffffff03821115620005d657620005d562000621565b5b828201905092915050565b6000819050919050565b600060028204905060018216806200060457607f821691505b602082108114156200061b576200061a62000650565b5b50919050565b7f4e487b7100000000000000000000000000000000000000000000000000000000600052601160045260246000fd5b7f4e487b7100000000000000000000000000000000000000000000000000000000600052602260045260246000fd5b600080fd5b7f45524332303a206d696e7420746f20746865207a65726f206164647265737300600082015250565b620006b881620005e1565b8114620006c457600080fd5b50565b61275b80620006d76000396000f3fe608060405234801561001057600080fd5b50600436106101425760003560e01c806354fd4d50116100b8578063a217fddf1161007c578063a217fddf1461039d578063a457c2d7146103bb578063a9059cbb146103eb578063d547741f1461041b578063d55ec69714610437578063dd62ed3e1461044157610142565b806354fd4d50146102e557806370a082311461030357806391d148541461033357806395d89b41146103635780639dc29fac1461038157610142565b8063248a9ca31161010a578063248a9ca3146102135780632f2ff15d14610243578063313ce5671461025f57806336568abe1461027d578063395093511461029957806340c10f19146102c957610142565b806301ffc9a71461014757806306fdde0314610177578063095ea7b31461019557806318160ddd146101c557806323b872dd146101e3575b600080fd5b610161600480360381019061015c9190611a40565b610471565b60405161016e9190611d69565b60405180910390f35b61017f6104eb565b60405161018c9190611d9f565b60405180910390f35b6101af60048036038101906101aa9190611993565b61057d565b6040516101bc9190611d69565b60405180910390f35b6101cd61059b565b6040516101da9190611f61565b60405180910390f35b6101fd60048036038101906101f89190611940565b6105a5565b60405161020a9190611d69565b60405180910390f35b61022d600480360381019061022891906119d3565b61069d565b60405161023a9190611d84565b60405180910390f35b61025d60048036038101906102589190611a00565b6106bd565b005b6102676106e6565b6040516102749190611f97565b60405180910390f35b61029760048036038101906102929190611a00565b6106ef565b005b6102b360048036038101906102ae9190611993565b610772565b6040516102c09190611d69565b60405180910390f35b6102e360048036038101906102de9190611993565b61081e565b005b6102ed61082c565b6040516102fa9190611f7c565b60405180910390f35b61031d600480360381019061031891906118d3565b610842565b60405161032a9190611f61565b60405180910390f35b61034d60048036038101906103489190611a00565b61088a565b60405161035a9190611d69565b60405180910390f35b61036b6108f5565b6040516103789190611d9f565b60405180910390f35b61039b60048036038101906103969190611993565b610987565b005b6103a5610995565b6040516103b29190611d84565b60405180910390f35b6103d560048036038101906103d09190611993565b61099c565b6040516103e29190611d69565b60405180910390f35b61040560048036038101906104009190611993565b610a87565b6040516104129190611d69565b60405180910390f35b61043560048036038101906104309190611a00565b610aa5565b005b61043f610ace565b005b61045b60048036038101906104569190611900565b610b5d565b6040516104689190611f61565b60405180910390f35b60007f7965db0b000000000000000000000000000000000000000000000000000000007bffffffffffffffffffffffffffffffffffffffffffffffffffffffff1916827bffffffffffffffffffffffffffffffffffffffffffffffffffffffff191614806104e457506104e382610be4565b5b9050919050565b6060600380546104fa906121b5565b80601f0160208091040260200160405190810160405280929190818152602001828054610526906121b5565b80156105735780601f1061054857610100808354040283529160200191610573565b820191906000526020600020905b81548152906001019060200180831161055657829003601f168201915b5050505050905090565b600061059161058a610c4e565b8484610c56565b6001905092915050565b6000600254905090565b60006105b2848484610e21565b6000600160008673ffffffffffffffffffffffffffffffffffffffff1673ffffffffffffffffffffffffffffffffffffffff16815260200190815260200160002060006105fd610c4e565b73ffffffffffffffffffffffffffffffffffffffff1673ffffffffffffffffffffffffffffffffffffffff1681526020019081526020016000205490508281101561067d576040517f08c379a000000000000000000000000000000000000000000000000000000000815260040161067490611e61565b60405180910390fd5b61069185610689610c4e565b858403610c56565b60019150509392505050565b600060056000838152602001908152602001600020600101549050919050565b6106c68261069d565b6106d7816106d2610c4e565b6110a2565b6106e1838361113f565b505050565b60006012905090565b6106f7610c4e565b73ffffffffffffffffffffffffffffffffffffffff168173ffffffffffffffffffffffffffffffffffffffff1614610764576040517f08c379a000000000000000000000000000000000000000000000000000000000815260040161075b90611f21565b60405180910390fd5b61076e8282611220565b5050565b600061081461077f610c4e565b84846001600061078d610c4e565b73ffffffffffffffffffffffffffffffffffffffff1673ffffffffffffffffffffffffffffffffffffffff16815260200190815260200160002060008873ffffffffffffffffffffffffffffffffffffffff1673ffffffffffffffffffffffffffffffffffffffff1681526020019081526020016000205461080f9190611fd9565b610c56565b6001905092915050565b6108288282611302565b5050565b600660019054906101000a900463ffffffff1681565b60008060008373ffffffffffffffffffffffffffffffffffffffff1673ffffffffffffffffffffffffffffffffffffffff168152602001908152602001600020549050919050565b60006005600084815260200190815260200160002060000160008373ffffffffffffffffffffffffffffffffffffffff1673ffffffffffffffffffffffffffffffffffffffff16815260200190815260200160002060009054906101000a900460ff16905092915050565b606060048054610904906121b5565b80601f0160208091040260200160405190810160405280929190818152602001828054610930906121b5565b801561097d5780601f106109525761010080835404028352916020019161097d565b820191906000526020600020905b81548152906001019060200180831161096057829003601f168201915b5050505050905090565b6109918282611462565b5050565b6000801b81565b600080600160006109ab610c4e565b73ffffffffffffffffffffffffffffffffffffffff1673ffffffffffffffffffffffffffffffffffffffff16815260200190815260200160002060008573ffffffffffffffffffffffffffffffffffffffff1673ffffffffffffffffffffffffffffffffffffffff16815260200190815260200160002054905082811015610a68576040517f08c379a0000000000000000000000000000000000000000000000000000000008152600401610a5f90611f01565b60405180910390fd5b610a7c610a73610c4e565b85858403610c56565b600191505092915050565b6000610a9b610a94610c4e565b8484610e21565b6001905092915050565b610aae8261069d565b610abf81610aba610c4e565b6110a2565b610ac98383611220565b505050565b610adb6000801b3361088a565b610b1a576040517f08c379a0000000000000000000000000000000000000000000000000000000008152600401610b1190611ee1565b60405180910390fd5b6006600181819054906101000a900463ffffffff1680929190610b3c906121e7565b91906101000a81548163ffffffff021916908363ffffffff16021790555050565b6000600160008473ffffffffffffffffffffffffffffffffffffffff1673ffffffffffffffffffffffffffffffffffffffff16815260200190815260200160002060008373ffffffffffffffffffffffffffffffffffffffff1673ffffffffffffffffffffffffffffffffffffffff16815260200190815260200160002054905092915050565b60007f01ffc9a7000000000000000000000000000000000000000000000000000000007bffffffffffffffffffffffffffffffffffffffffffffffffffffffff1916827bffffffffffffffffffffffffffffffffffffffffffffffffffffffff1916149050919050565b600033905090565b600073ffffffffffffffffffffffffffffffffffffffff168373ffffffffffffffffffffffffffffffffffffffff161415610cc6576040517f08c379a0000000000000000000000000000000000000000000000000000000008152600401610cbd90611ec1565b60405180910390fd5b600073ffffffffffffffffffffffffffffffffffffffff168273ffffffffffffffffffffffffffffffffffffffff161415610d36576040517f08c379a0000000000000000000000000000000000000000000000000000000008152600401610d2d90611e21565b60405180910390fd5b80600160008573ffffffffffffffffffffffffffffffffffffffff1673ffffffffffffffffffffffffffffffffffffffff16815260200190815260200160002060008473ffffffffffffffffffffffffffffffffffffffff1673ffffffffffffffffffffffffffffffffffffffff168152602001908152602001600020819055508173ffffffffffffffffffffffffffffffffffffffff168373ffffffffffffffffffffffffffffffffffffffff167f8c5be1e5ebec7d5bd14f71427d1e84f3dd0314c0f7b2291e5b200ac8c7c3b92583604051610e149190611f61565b60405180910390a3505050565b600073ffffffffffffffffffffffffffffffffffffffff168373ffffffffffffffffffffffffffffffffffffffff161415610e91576040517f08c379a0000000000000000000000000000000000000000000000000000000008152600401610e8890611ea1565b60405180910390fd5b600073ffffffffffffffffffffffffffffffffffffffff168273ffffffffffffffffffffffffffffffffffffffff161415610f01576040517f08c379a0000000000000000000000000000000000000000000000000000000008152600401610ef890611de1565b60405180910390fd5b610f0c838383611639565b60008060008573ffffffffffffffffffffffffffffffffffffffff1673ffffffffffffffffffffffffffffffffffffffff16815260200190815260200160002054905081811015610f92576040517f08c379a0000000000000000000000000000000000000000000000000000000008152600401610f8990611e41565b60405180910390fd5b8181036000808673ffffffffffffffffffffffffffffffffffffffff1673ffffffffffffffffffffffffffffffffffffffff16815260200190815260200160002081905550816000808573ffffffffffffffffffffffffffffffffffffffff1673ffffffffffffffffffffffffffffffffffffffff16815260200190815260200160002060008282546110259190611fd9565b925050819055508273ffffffffffffffffffffffffffffffffffffffff168473ffffffffffffffffffffffffffffffffffffffff167fddf252ad1be2c89b69c2b068fc378daa952ba7f163c4a11628f55a4df523b3ef846040516110899190611f61565b60405180910390a361109c84848461163e565b50505050565b6110ac828261088a565b61113b576110d18173ffffffffffffffffffffffffffffffffffffffff166014611643565b6110df8360001c6020611643565b6040516020016110f0929190611d2f565b6040516020818303038152906040526040517f08c379a00000000000000000000000000000000000000000000000000000000081526004016111329190611d9f565b60405180910390fd5b5050565b611149828261088a565b61121c5760016005600084815260200190815260200160002060000160008373ffffffffffffffffffffffffffffffffffffffff1673ffffffffffffffffffffffffffffffffffffffff16815260200190815260200160002060006101000a81548160ff0219169083151502179055506111c1610c4e565b73ffffffffffffffffffffffffffffffffffffffff168173ffffffffffffffffffffffffffffffffffffffff16837f2f8788117e7eff1d82e926ec794901d17c78024a50270940304540a733656f0d60405160405180910390a45b5050565b61122a828261088a565b156112fe5760006005600084815260200190815260200160002060000160008373ffffffffffffffffffffffffffffffffffffffff1673ffffffffffffffffffffffffffffffffffffffff16815260200190815260200160002060006101000a81548160ff0219169083151502179055506112a3610c4e565b73ffffffffffffffffffffffffffffffffffffffff168173ffffffffffffffffffffffffffffffffffffffff16837ff6391f5c32d9c69d2a47ea670b442974b53935d1edc7fd64eb21e047a839171b60405160405180910390a45b5050565b600073ffffffffffffffffffffffffffffffffffffffff168273ffffffffffffffffffffffffffffffffffffffff161415611372576040517f08c379a000000000000000000000000000000000000000000000000000000000815260040161136990611f41565b60405180910390fd5b61137e60008383611639565b80600260008282546113909190611fd9565b92505081905550806000808473ffffffffffffffffffffffffffffffffffffffff1673ffffffffffffffffffffffffffffffffffffffff16815260200190815260200160002060008282546113e59190611fd9565b925050819055508173ffffffffffffffffffffffffffffffffffffffff16600073ffffffffffffffffffffffffffffffffffffffff167fddf252ad1be2c89b69c2b068fc378daa952ba7f163c4a11628f55a4df523b3ef8360405161144a9190611f61565b60405180910390a361145e6000838361163e565b5050565b600073ffffffffffffffffffffffffffffffffffffffff168273ffffffffffffffffffffffffffffffffffffffff1614156114d2576040517f08c379a00000000000000000000000000000000000000000000000000000000081526004016114c990611e81565b60405180910390fd5b6114de82600083611639565b60008060008473ffffffffffffffffffffffffffffffffffffffff1673ffffffffffffffffffffffffffffffffffffffff16815260200190815260200160002054905081811015611564576040517f08c379a000000000000000000000000000000000000000000000000000000000815260040161155b90611e01565b60405180910390fd5b8181036000808573ffffffffffffffffffffffffffffffffffffffff1673ffffffffffffffffffffffffffffffffffffffff1681526020019081526020016000208190555081600260008282546115bb9190612089565b92505081905550600073ffffffffffffffffffffffffffffffffffffffff168373ffffffffffffffffffffffffffffffffffffffff167fddf252ad1be2c89b69c2b068fc378daa952ba7f163c4a11628f55a4df523b3ef846040516116209190611f61565b60405180910390a36116348360008461163e565b505050565b505050565b505050565b606060006002836002611656919061202f565b6116609190611fd9565b67ffffffffffffffff811115611679576116786122a1565b5b6040519080825280601f01601f1916602001820160405280156116ab5781602001600182028036833780820191505090505b5090507f3000000000000000000000000000000000000000000000000000000000000000816000815181106116e3576116e2612272565b5b60200101907effffffffffffffffffffffffffffffffffffffffffffffffffffffffffffff1916908160001a9053507f78000000000000000000000000000000000000000000000000000000000000008160018151811061174757611746612272565b5b60200101907effffffffffffffffffffffffffffffffffffffffffffffffffffffffffffff1916908160001a90535060006001846002611787919061202f565b6117919190611fd9565b90505b6001811115611831577f3031323334353637383961626364656600000000000000000000000000000000600f8616601081106117d3576117d2612272565b5b1a60f81b8282815181106117ea576117e9612272565b5b60200101907effffffffffffffffffffffffffffffffffffffffffffffffffffffffffffff1916908160001a905350600485901c94508061182a9061218b565b9050611794565b5060008414611875576040517f08c379a000000000000000000000000000000000000000000000000000000000815260040161186c90611dc1565b60405180910390fd5b8091505092915050565b60008135905061188e816126c9565b92915050565b6000813590506118a3816126e0565b92915050565b6000813590506118b8816126f7565b92915050565b6000813590506118cd8161270e565b92915050565b6000602082840312156118e9576118e86122d0565b5b60006118f78482850161187f565b91505092915050565b60008060408385031215611917576119166122d0565b5b60006119258582860161187f565b92505060206119368582860161187f565b9150509250929050565b600080600060608486031215611959576119586122d0565b5b60006119678682870161187f565b93505060206119788682870161187f565b9250506040611989868287016118be565b9150509250925092565b600080604083850312156119aa576119a96122d0565b5b60006119b88582860161187f565b92505060206119c9858286016118be565b9150509250929050565b6000602082840312156119e9576119e86122d0565b5b60006119f784828501611894565b91505092915050565b60008060408385031215611a1757611a166122d0565b5b6000611a2585828601611894565b9250506020611a368582860161187f565b9150509250929050565b600060208284031215611a5657611a556122d0565b5b6000611a64848285016118a9565b91505092915050565b611a76816120cf565b82525050565b611a85816120db565b82525050565b6000611a9682611fb2565b611aa08185611fbd565b9350611ab0818560208601612158565b611ab9816122d5565b840191505092915050565b6000611acf82611fb2565b611ad98185611fce565b9350611ae9818560208601612158565b80840191505092915050565b6000611b02602083611fbd565b9150611b0d826122e6565b602082019050919050565b6000611b25602383611fbd565b9150611b308261230f565b604082019050919050565b6000611b48602283611fbd565b9150611b538261235e565b604082019050919050565b6000611b6b602283611fbd565b9150611b76826123ad565b604082019050919050565b6000611b8e602683611fbd565b9150611b99826123fc565b604082019050919050565b6000611bb1602883611fbd565b9150611bbc8261244b565b604082019050919050565b6000611bd4602183611fbd565b9150611bdf8261249a565b604082019050919050565b6000611bf7602583611fbd565b9150611c02826124e9565b604082019050919050565b6000611c1a602483611fbd565b9150611c2582612538565b604082019050919050565b6000611c3d601783611fce565b9150611c4882612587565b601782019050919050565b6000611c60601a83611fbd565b9150611c6b826125b0565b602082019050919050565b6000611c83602583611fbd565b9150611c8e826125d9565b604082019050919050565b6000611ca6601183611fce565b9150611cb182612628565b601182019050919050565b6000611cc9602f83611fbd565b9150611cd482612651565b604082019050919050565b6000611cec601f83611fbd565b9150611cf7826126a0565b602082019050919050565b611d0b81612131565b82525050565b611d1a8161213b565b82525050565b611d298161214b565b82525050565b6000611d3a82611c30565b9150611d468285611ac4565b9150611d5182611c99565b9150611d5d8284611ac4565b91508190509392505050565b6000602082019050611d7e6000830184611a6d565b92915050565b6000602082019050611d996000830184611a7c565b92915050565b60006020820190508181036000830152611db98184611a8b565b905092915050565b60006020820190508181036000830152611dda81611af5565b9050919050565b60006020820190508181036000830152611dfa81611b18565b9050919050565b60006020820190508181036000830152611e1a81611b3b565b9050919050565b60006020820190508181036000830152611e3a81611b5e565b9050919050565b60006020820190508181036000830152611e5a81611b81565b9050919050565b60006020820190508181036000830152611e7a81611ba4565b9050919050565b60006020820190508181036000830152611e9a81611bc7565b9050919050565b60006020820190508181036000830152611eba81611bea565b9050919050565b60006020820190508181036000830152611eda81611c0d565b9050919050565b60006020820190508181036000830152611efa81611c53565b9050919050565b60006020820190508181036000830152611f1a81611c76565b9050919050565b60006020820190508181036000830152611f3a81611cbc565b9050919050565b60006020820190508181036000830152611f5a81611cdf565b9050919050565b6000602082019050611f766000830184611d02565b92915050565b6000602082019050611f916000830184611d11565b92915050565b6000602082019050611fac6000830184611d20565b92915050565b600081519050919050565b600082825260208201905092915050565b600081905092915050565b6000611fe482612131565b9150611fef83612131565b9250827fffffffffffffffffffffffffffffffffffffffffffffffffffffffffffffffff0382111561202457612023612214565b5b828201905092915050565b600061203a82612131565b915061204583612131565b9250817fffffffffffffffffffffffffffffffffffffffffffffffffffffffffffffffff048311821515161561207e5761207d612214565b5b828202905092915050565b600061209482612131565b915061209f83612131565b9250828210156120b2576120b1612214565b5b828203905092915050565b60006120c882612111565b9050919050565b60008115159050919050565b6000819050919050565b60007fffffffff0000000000000000000000000000000000000000000000000000000082169050919050565b600073ffffffffffffffffffffffffffffffffffffffff82169050919050565b6000819050919050565b600063ffffffff82169050919050565b600060ff82169050919050565b60005b8381101561217657808201518184015260208101905061215b565b83811115612185576000848401525b50505050565b600061219682612131565b915060008214156121aa576121a9612214565b5b600182039050919050565b600060028204905060018216806121cd57607f821691505b602082108114156121e1576121e0612243565b5b50919050565b60006121f28261213b565b915063ffffffff82141561220957612208612214565b5b600182019050919050565b7f4e487b7100000000000000000000000000000000000000000000000000000000600052601160045260246000fd5b7f4e487b7100000000000000000000000000000000000000000000000000000000600052602260045260246000fd5b7f4e487b7100000000000000000000000000000000000000000000000000000000600052603260045260246000fd5b7f4e487b7100000000000000000000000000000000000000000000000000000000600052604160045260246000fd5b600080fd5b6000601f19601f8301169050919050565b7f537472696e67733a20686578206c656e67746820696e73756666696369656e74600082015250565b7f45524332303a207472616e7366657220746f20746865207a65726f206164647260008201527f6573730000000000000000000000000000000000000000000000000000000000602082015250565b7f45524332303a206275726e20616d6f756e7420657863656564732062616c616e60008201527f6365000000000000000000000000000000000000000000000000000000000000602082015250565b7f45524332303a20617070726f766520746f20746865207a65726f20616464726560008201527f7373000000000000000000000000000000000000000000000000000000000000602082015250565b7f45524332303a207472616e7366657220616d6f756e742065786365656473206260008201527f616c616e63650000000000000000000000000000000000000000000000000000602082015250565b7f45524332303a207472616e7366657220616d6f756e742065786365656473206160008201527f6c6c6f77616e6365000000000000000000000000000000000000000000000000602082015250565b7f45524332303a206275726e2066726f6d20746865207a65726f2061646472657360008201527f7300000000000000000000000000000000000000000000000000000000000000602082015250565b7f45524332303a207472616e736665722066726f6d20746865207a65726f20616460008201527f6472657373000000000000000000000000000000000000000000000000000000602082015250565b7f45524332303a20617070726f76652066726f6d20746865207a65726f2061646460008201527f7265737300000000000000000000000000000000000000000000000000000000602082015250565b7f416363657373436f6e74726f6c3a206163636f756e7420000000000000000000600082015250565b7f56657273696f6e2063616e6e6f7420626520757064617465642e000000000000600082015250565b7f45524332303a2064656372656173656420616c6c6f77616e63652062656c6f7760008201527f207a65726f000000000000000000000000000000000000000000000000000000602082015250565b7f206973206d697373696e6720726f6c6520000000000000000000000000000000600082015250565b7f416363657373436f6e74726f6c3a2063616e206f6e6c792072656e6f756e636560008201527f20726f6c657320666f722073656c660000000000000000000000000000000000602082015250565b7f45524332303a206d696e7420746f20746865207a65726f206164647265737300600082015250565b6126d2816120bd565b81146126dd57600080fd5b50565b6126e9816120db565b81146126f457600080fd5b50565b612700816120e5565b811461270b57600080fd5b50565b61271781612131565b811461272257600080fd5b5056fea264697066735822122080f55dff8e9217c5ae859328a7df657f356962a89fd8d29db6a21eeda0983c7e64736f6c63430008060033",
  "devdoc": {
    "kind": "dev",
    "methods": {
      "allowance(address,address)": {
        "details": "See {IERC20-allowance}."
      },
      "approve(address,uint256)": {
        "details": "See {IERC20-approve}. Requirements: - `spender` cannot be the zero address."
      },
      "balanceOf(address)": {
        "details": "See {IERC20-balanceOf}."
      },
      "decimals()": {
        "details": "Returns the number of decimals used to get its user representation. For example, if `decimals` equals `2`, a balance of `505` tokens should be displayed to a user as `5.05` (`505 / 10 ** 2`). Tokens usually opt for a value of 18, imitating the relationship between Ether and Wei. This is the value {ERC20} uses, unless this function is overridden; NOTE: This information is only used for _display_ purposes: it in no way affects any of the arithmetic of the contract, including {IERC20-balanceOf} and {IERC20-transfer}."
      },
      "decreaseAllowance(address,uint256)": {
        "details": "Atomically decreases the allowance granted to `spender` by the caller. This is an alternative to {approve} that can be used as a mitigation for problems described in {IERC20-approve}. Emits an {Approval} event indicating the updated allowance. Requirements: - `spender` cannot be the zero address. - `spender` must have allowance for the caller of at least `subtractedValue`."
      },
      "getRoleAdmin(bytes32)": {
        "details": "Returns the admin role that controls `role`. See {grantRole} and {revokeRole}. To change a role's admin, use {_setRoleAdmin}."
      },
      "grantRole(bytes32,address)": {
        "details": "Grants `role` to `account`. If `account` had not been already granted `role`, emits a {RoleGranted} event. Requirements: - the caller must have ``role``'s admin role."
      },
      "hasRole(bytes32,address)": {
        "details": "Returns `true` if `account` has been granted `role`."
      },
      "increaseAllowance(address,uint256)": {
        "details": "Atomically increases the allowance granted to `spender` by the caller. This is an alternative to {approve} that can be used as a mitigation for problems described in {IERC20-approve}. Emits an {Approval} event indicating the updated allowance. Requirements: - `spender` cannot be the zero address."
      },
      "name()": {
        "details": "Returns the name of the token."
      },
      "renounceRole(bytes32,address)": {
        "details": "Revokes `role` from the calling account. Roles are often managed via {grantRole} and {revokeRole}: this function's purpose is to provide a mechanism for accounts to lose their privileges if they are compromised (such as when a trusted device is misplaced). If the calling account had been granted `role`, emits a {RoleRevoked} event. Requirements: - the caller must be `account`."
      },
      "revokeRole(bytes32,address)": {
        "details": "Revokes `role` from `account`. If `account` had been granted `role`, emits a {RoleRevoked} event. Requirements: - the caller must have ``role``'s admin role."
      },
      "supportsInterface(bytes4)": {
        "details": "See {IERC165-supportsInterface}."
      },
      "symbol()": {
        "details": "Returns the symbol of the token, usually a shorter version of the name."
      },
      "totalSupply()": {
        "details": "See {IERC20-totalSupply}."
      },
      "transfer(address,uint256)": {
        "details": "See {IERC20-transfer}. Requirements: - `recipient` cannot be the zero address. - the caller must have a balance of at least `amount`."
      },
      "transferFrom(address,address,uint256)": {
        "details": "See {IERC20-transferFrom}. Emits an {Approval} event indicating the updated allowance. This is not required by the EIP. See the note at the beginning of {ERC20}. Requirements: - `sender` and `recipient` cannot be the zero address. - `sender` must have a balance of at least `amount`. - the caller must have allowance for ``sender``'s tokens of at least `amount`."
      }
    },
    "version": 1
  },
  "userdoc": {
    "kind": "user",
    "methods": {},
    "version": 1
  },
  "storageLayout": {
    "storage": [
      {
        "astId": 4907,
        "contract": "contracts/20-WVC.sol:WVC",
        "label": "_balances",
        "offset": 0,
        "slot": "0",
        "type": "t_mapping(t_address,t_uint256)"
      },
      {
        "astId": 4913,
        "contract": "contracts/20-WVC.sol:WVC",
        "label": "_allowances",
        "offset": 0,
        "slot": "1",
        "type": "t_mapping(t_address,t_mapping(t_address,t_uint256))"
      },
      {
        "astId": 4915,
        "contract": "contracts/20-WVC.sol:WVC",
        "label": "_totalSupply",
        "offset": 0,
        "slot": "2",
        "type": "t_uint256"
      },
      {
        "astId": 4917,
        "contract": "contracts/20-WVC.sol:WVC",
        "label": "_name",
        "offset": 0,
        "slot": "3",
        "type": "t_string_storage"
      },
      {
        "astId": 4919,
        "contract": "contracts/20-WVC.sol:WVC",
        "label": "_symbol",
        "offset": 0,
        "slot": "4",
        "type": "t_string_storage"
      },
      {
        "astId": 4408,
        "contract": "contracts/20-WVC.sol:WVC",
        "label": "_roles",
        "offset": 0,
        "slot": "5",
        "type": "t_mapping(t_bytes32,t_struct(RoleData)4403_storage)"
      },
      {
        "astId": 6408,
        "contract": "contracts/20-WVC.sol:WVC",
        "label": "initialized",
        "offset": 0,
        "slot": "6",
        "type": "t_bool"
      },
      {
        "astId": 6410,
        "contract": "contracts/20-WVC.sol:WVC",
        "label": "version",
        "offset": 1,
        "slot": "6",
        "type": "t_uint32"
      }
    ],
    "types": {
      "t_address": {
        "encoding": "inplace",
        "label": "address",
        "numberOfBytes": "20"
      },
      "t_bool": {
        "encoding": "inplace",
        "label": "bool",
        "numberOfBytes": "1"
      },
      "t_bytes32": {
        "encoding": "inplace",
        "label": "bytes32",
        "numberOfBytes": "32"
      },
      "t_mapping(t_address,t_bool)": {
        "encoding": "mapping",
        "key": "t_address",
        "label": "mapping(address => bool)",
        "numberOfBytes": "32",
        "value": "t_bool"
      },
      "t_mapping(t_address,t_mapping(t_address,t_uint256))": {
        "encoding": "mapping",
        "key": "t_address",
        "label": "mapping(address => mapping(address => uint256))",
        "numberOfBytes": "32",
        "value": "t_mapping(t_address,t_uint256)"
      },
      "t_mapping(t_address,t_uint256)": {
        "encoding": "mapping",
        "key": "t_address",
        "label": "mapping(address => uint256)",
        "numberOfBytes": "32",
        "value": "t_uint256"
      },
      "t_mapping(t_bytes32,t_struct(RoleData)4403_storage)": {
        "encoding": "mapping",
        "key": "t_bytes32",
        "label": "mapping(bytes32 => struct AccessControl.RoleData)",
        "numberOfBytes": "32",
        "value": "t_struct(RoleData)4403_storage"
      },
      "t_string_storage": {
        "encoding": "bytes",
        "label": "string",
        "numberOfBytes": "32"
      },
      "t_struct(RoleData)4403_storage": {
        "encoding": "inplace",
        "label": "struct AccessControl.RoleData",
        "members": [
          {
            "astId": 4400,
            "contract": "contracts/20-WVC.sol:WVC",
            "label": "members",
            "offset": 0,
            "slot": "0",
            "type": "t_mapping(t_address,t_bool)"
          },
          {
            "astId": 4402,
            "contract": "contracts/20-WVC.sol:WVC",
            "label": "adminRole",
            "offset": 0,
            "slot": "1",
            "type": "t_bytes32"
          }
        ],
        "numberOfBytes": "64"
      },
      "t_uint256": {
        "encoding": "inplace",
        "label": "uint256",
        "numberOfBytes": "32"
      },
      "t_uint32": {
        "encoding": "inplace",
        "label": "uint32",
        "numberOfBytes": "4"
      }
    }
  }
}