{
  "address": "0xCE446F4B8e548a6dfbe6f7Bc5a7325Fd57469B10",
  "abi": [
    {
      "inputs": [
        {
          "internalType": "address",
          "name": "oracle",
          "type": "address"
        },
        {
          "internalType": "string",
          "name": "jobId",
          "type": "string"
        },
        {
          "internalType": "uint256",
          "name": "fees",
          "type": "uint256"
        },
        {
          "internalType": "address",
          "name": "link",
          "type": "address"
        }
      ],
      "stateMutability": "nonpayable",
      "type": "constructor"
    },
    {
      "inputs": [],
      "name": "FailedChainLinkDelegation",
      "type": "error"
    },
    {
      "anonymous": false,
      "inputs": [
        {
          "indexed": true,
          "internalType": "bytes32",
          "name": "id",
          "type": "bytes32"
        }
      ],
      "name": "ChainlinkCancelled",
      "type": "event"
    },
    {
      "anonymous": false,
      "inputs": [
        {
          "indexed": true,
          "internalType": "bytes32",
          "name": "id",
          "type": "bytes32"
        }
      ],
      "name": "ChainlinkFulfilled",
      "type": "event"
    },
    {
      "anonymous": false,
      "inputs": [
        {
          "indexed": true,
          "internalType": "bytes32",
          "name": "id",
          "type": "bytes32"
        }
      ],
      "name": "ChainlinkRequested",
      "type": "event"
    },
    {
      "anonymous": false,
      "inputs": [
        {
          "indexed": false,
          "internalType": "bytes32",
          "name": "requestId",
          "type": "bytes32"
        },
        {
          "indexed": false,
          "internalType": "uint256",
          "name": "price",
          "type": "uint256"
        }
      ],
      "name": "PurchaseRequestDone",
      "type": "event"
    },
    {
      "anonymous": false,
      "inputs": [
        {
          "indexed": false,
          "internalType": "bytes32",
          "name": "requestId",
          "type": "bytes32"
        }
      ],
      "name": "PurchaseRequestReceived",
      "type": "event"
    },
    {
      "inputs": [
        {
          "internalType": "bytes32",
          "name": "_requestId",
          "type": "bytes32"
        },
        {
          "internalType": "uint256",
          "name": "_price",
          "type": "uint256"
        }
      ],
      "name": "fulFillPrice",
      "outputs": [],
      "stateMutability": "nonpayable",
      "type": "function"
    },
    {
      "inputs": [
        {
          "internalType": "uint256",
          "name": "cid",
          "type": "uint256"
        }
      ],
      "name": "getCurrentPriceForCID",
      "outputs": [
        {
          "internalType": "uint256",
          "name": "",
          "type": "uint256"
        }
      ],
      "stateMutability": "view",
      "type": "function"
    },
    {
      "inputs": [
        {
          "internalType": "uint256",
          "name": "cid",
          "type": "uint256"
        },
        {
          "internalType": "contract IPurchaseGatewayCaller",
          "name": "caller",
          "type": "address"
        }
      ],
      "name": "requestPurchase",
      "outputs": [
        {
          "internalType": "bytes32",
          "name": "",
          "type": "bytes32"
        }
      ],
      "stateMutability": "payable",
      "type": "function"
    },
    {
      "inputs": [
        {
          "internalType": "string",
          "name": "source",
          "type": "string"
        }
      ],
      "name": "stringToBytes32",
      "outputs": [
        {
          "internalType": "bytes32",
          "name": "result",
          "type": "bytes32"
        }
      ],
      "stateMutability": "pure",
      "type": "function"
    },
    {
      "inputs": [
        {
          "internalType": "bytes4",
          "name": "interfaceId",
          "type": "bytes4"
        }
      ],
      "name": "supportsInterface",
      "outputs": [
        {
          "internalType": "bool",
          "name": "",
          "type": "bool"
        }
      ],
      "stateMutability": "view",
      "type": "function"
    }
  ],
  "transactionHash": "0x838acd04d742bd0babff409ccf1a0f7a2485683b0c4ec5950a4cc0a2a1218a91",
  "args": [
    "0xc57b33452b4f7bb189bb5afae9cc4aba1f7a4fd8",
    "d5270d1c311941d0b08bead21fea7747",
    "100000000000000000",
    "0xa36085F69e2889c224210F603D836748e7dC0088"
  ],
  "solcInputHash": "fda5615d0e0e61fed83f1f81b146c5ba",
  "bytecode": "0x608060405260016004553480156200001657600080fd5b50604051620021fb380380620021fb83398181016040528101906200003c91906200030d565b600073ffffffffffffffffffffffffffffffffffffffff168173ffffffffffffffffffffffffffffffffffffffff161415620000885762000082620000d360201b60201c565b6200009a565b62000099816200017b60201b60201c565b5b620000ab84620001bf60201b60201c565b620000bc836200020360201b60201c565b60068190555081600781905550505050506200052f565b6200017973c89bd4e1632d3a43cb03aaad5262cbe4038bc57173ffffffffffffffffffffffffffffffffffffffff166338cc48316040518163ffffffff1660e01b815260040160206040518083038186803b1580156200013257600080fd5b505afa15801562000147573d6000803e3d6000fd5b505050506040513d601f19601f820116820180604052508101906200016d9190620002db565b6200017b60201b60201c565b565b80600260006101000a81548173ffffffffffffffffffffffffffffffffffffffff021916908373ffffffffffffffffffffffffffffffffffffffff16021790555050565b80600360006101000a81548173ffffffffffffffffffffffffffffffffffffffff021916908373ffffffffffffffffffffffffffffffffffffffff16021790555050565b60008082905060008151141562000221576000801b9150506200022a565b60208301519150505b919050565b6000620002466200024084620003c7565b6200039e565b905082815260208101848484011115620002655762000264620004db565b5b620002728482856200043b565b509392505050565b6000815190506200028b81620004fb565b92915050565b600082601f830112620002a957620002a8620004d6565b5b8151620002bb8482602086016200022f565b91505092915050565b600081519050620002d58162000515565b92915050565b600060208284031215620002f457620002f3620004e5565b5b600062000304848285016200027a565b91505092915050565b600080600080608085870312156200032a5762000329620004e5565b5b60006200033a878288016200027a565b945050602085015167ffffffffffffffff8111156200035e576200035d620004e0565b5b6200036c8782880162000291565b93505060406200037f87828801620002c4565b925050606062000392878288016200027a565b91505092959194509250565b6000620003aa620003bd565b9050620003b8828262000471565b919050565b6000604051905090565b600067ffffffffffffffff821115620003e557620003e4620004a7565b5b620003f082620004ea565b9050602081019050919050565b60006200040a8262000411565b9050919050565b600073ffffffffffffffffffffffffffffffffffffffff82169050919050565b6000819050919050565b60005b838110156200045b5780820151818401526020810190506200043e565b838111156200046b576000848401525b50505050565b6200047c82620004ea565b810181811067ffffffffffffffff821117156200049e576200049d620004a7565b5b80604052505050565b7f4e487b7100000000000000000000000000000000000000000000000000000000600052604160045260246000fd5b600080fd5b600080fd5b600080fd5b600080fd5b6000601f19601f8301169050919050565b6200050681620003fd565b81146200051257600080fd5b50565b620005208162000431565b81146200052c57600080fd5b50565b611cbc806200053f6000396000f3fe60806040526004361061004a5760003560e01c806301ffc9a71461004f578063053cef8b1461008c578063386b78df146100bc578063cfb51928146100f9578063f24be89714610136575b600080fd5b34801561005b57600080fd5b5061007660048036038101906100719190611201565b61015f565b604051610083919061154a565b60405180910390f35b6100a660048036038101906100a191906112a4565b6101c9565b6040516100b39190611565565b60405180910390f35b3480156100c857600080fd5b506100e360048036038101906100de9190611277565b61041a565b6040516100f091906115e9565b60405180910390f35b34801561010557600080fd5b50610120600480360381019061011b919061122e565b610437565b60405161012d9190611565565b60405180910390f35b34801561014257600080fd5b5061015d600480360381019061015891906111c1565b610461565b005b60007fcf1c7fc3000000000000000000000000000000000000000000000000000000007bffffffffffffffffffffffffffffffffffffffffffffffffffffffff1916827bffffffffffffffffffffffffffffffffffffffffffffffffffffffff1916149050919050565b6000806101e06006543063f24be89760e01b610815565b90506102446040518060400160405280600381526020017f67657400000000000000000000000000000000000000000000000000000000008152506040518060600160405280603c8152602001611c4b603c9139836108469092919063ffffffff16565b6102c36040518060400160405280600481526020017f70617468000000000000000000000000000000000000000000000000000000008152506040518060400160405280600981526020017f5241572e50524943450000000000000000000000000000000000000000000000815250836108469092919063ffffffff16565b60006102d182600754610879565b905060405180608001604052808573ffffffffffffffffffffffffffffffffffffffff1681526020018681526020013373ffffffffffffffffffffffffffffffffffffffff168152602001348152506008600083815260200190815260200160002060008201518160000160006101000a81548173ffffffffffffffffffffffffffffffffffffffff021916908373ffffffffffffffffffffffffffffffffffffffff1602179055506020820151816001015560408201518160020160006101000a81548173ffffffffffffffffffffffffffffffffffffffff021916908373ffffffffffffffffffffffffffffffffffffffff160217905550606082015181600301559050507f7160f0855aa85bdddd226d103a7d303d89c6297f1be7661bbd0c47fb0359375d816040516104079190611565565b60405180910390a1809250505092915050565b600060096000838152602001908152602001600020549050919050565b600080829050600081511415610453576000801b91505061045c565b60208301519150505b919050565b816005600082815260200190815260200160002060009054906101000a900473ffffffffffffffffffffffffffffffffffffffff1673ffffffffffffffffffffffffffffffffffffffff163373ffffffffffffffffffffffffffffffffffffffff1614610503576040517f08c379a00000000000000000000000000000000000000000000000000000000081526004016104fa906115c9565b60405180910390fd5b6005600082815260200190815260200160002060006101000a81549073ffffffffffffffffffffffffffffffffffffffff0219169055807f7cc135e0cebb02c3480ae5d74d377283180a2601f8f644edf7987b009316c63a60405160405180910390a28160096000600860008781526020019081526020016000206001015481526020019081526020016000208190555060006008600085815260200190815260200160002060000160009054906101000a900473ffffffffffffffffffffffffffffffffffffffff1673ffffffffffffffffffffffffffffffffffffffff166008600086815260200190815260200160002060030154306008600088815260200190815260200160002060020160009054906101000a900473ffffffffffffffffffffffffffffffffffffffff16600860008981526020019081526020016000206001015460405160240161065b93929190611450565b6040516020818303038152906040527f1b7684dc000000000000000000000000000000000000000000000000000000007bffffffffffffffffffffffffffffffffffffffffffffffffffffffff19166020820180517bffffffffffffffffffffffffffffffffffffffffffffffffffffffff83818316178352505050506040516106e5919061140d565b60006040518083038185875af1925050503d8060008114610722576040519150601f19603f3d011682016040523d82523d6000602084013e610727565b606091505b5050905080610762576040517fadf5f05800000000000000000000000000000000000000000000000000000000815260040160405180910390fd5b60086000858152602001908152602001600020600080820160006101000a81549073ffffffffffffffffffffffffffffffffffffffff021916905560018201600090556002820160006101000a81549073ffffffffffffffffffffffffffffffffffffffff0219169055600382016000905550507f55c9a11c43870e5cd5e3be21ec8c649c289294abcd13c1cd5b054a48bceda9f98484604051610807929190611580565b60405180910390a150505050565b61081d611034565b610825611034565b61083c858585846108b0909392919063ffffffff16565b9150509392505050565b61085d82846080015161096090919063ffffffff16565b61087481846080015161096090919063ffffffff16565b505050565b60006108a8600360009054906101000a900473ffffffffffffffffffffffffffffffffffffffff168484610985565b905092915050565b6108b8611034565b6108c885608001516101006109a5565b508385600001818152505082856020019073ffffffffffffffffffffffffffffffffffffffff16908173ffffffffffffffffffffffffffffffffffffffff16815250508185604001907bffffffffffffffffffffffffffffffffffffffffffffffffffffffff191690817bffffffffffffffffffffffffffffffffffffffffffffffffffffffff191681525050849050949350505050565b61096d8260038351610a0f565b6109808183610b5490919063ffffffff16565b505050565b600061099c8484846001634042994660e01b610b76565b90509392505050565b6109ad6110a1565b60006020836109bc9190611a3c565b146109e8576020826109ce9190611a3c565b60206109da91906118b3565b826109e59190611692565b91505b81836020018181525050604051808452600081528281016020016040525082905092915050565b60178111610a3c57610a368160058460ff16901b60ff161784610dde90919063ffffffff16565b50610b4f565b60ff8111610a7e57610a61601860058460ff16901b1784610dde90919063ffffffff16565b50610a7881600185610dfe9092919063ffffffff16565b50610b4e565b61ffff8111610ac157610aa4601960058460ff16901b1784610dde90919063ffffffff16565b50610abb81600285610dfe9092919063ffffffff16565b50610b4d565b63ffffffff8111610b0657610ae9601a60058460ff16901b1784610dde90919063ffffffff16565b50610b0081600485610dfe9092919063ffffffff16565b50610b4c565b67ffffffffffffffff8111610b4b57610b32601b60058460ff16901b1784610dde90919063ffffffff16565b50610b4981600885610dfe9092919063ffffffff16565b505b5b5b5b5b505050565b610b5c6110a1565b610b6e83846000015151848551610e20565b905092915050565b600030600454604051602001610b8d929190611424565b604051602081830303815290604052805190602001209050600454856060018181525050856005600083815260200190815260200160002060006101000a81548173ffffffffffffffffffffffffffffffffffffffff021916908373ffffffffffffffffffffffffffffffffffffffff160217905550807fb5e6e01e79f91267dc17b4e6314d5d4d03593d2ceee0fbb452b750bd70ea5af960405160405180910390a2600082600080886000015189602001518a604001518b606001518a8d6080015160000151604051602401610c6b989796959493929190611487565b604051602081830303815290604052907bffffffffffffffffffffffffffffffffffffffffffffffffffffffff19166020820180517bffffffffffffffffffffffffffffffffffffffffffffffffffffffff83818316178352505050509050600260009054906101000a900473ffffffffffffffffffffffffffffffffffffffff1673ffffffffffffffffffffffffffffffffffffffff16634000aea08887846040518463ffffffff1660e01b8152600401610d299392919061150c565b602060405180830381600087803b158015610d4357600080fd5b505af1158015610d57573d6000803e3d6000fd5b505050506040513d601f19601f82011682018060405250810190610d7b9190611194565b610dba576040517f08c379a0000000000000000000000000000000000000000000000000000000008152600401610db1906115a9565b60405180910390fd5b600160046000828254610dcd9190611692565b925050819055505095945050505050565b610de66110a1565b610df68384600001515184610f0f565b905092915050565b610e066110a1565b610e17848560000151518585610f66565b90509392505050565b610e286110a1565b8251821115610e3657600080fd5b84602001518285610e479190611692565b1115610e7c57610e7b856002610e6c88602001518887610e679190611692565b610ff4565b610e769190611859565b611010565b5b600080865180518760208301019350808887011115610e9b5787860182525b60208701925050505b60208410610ee25780518252602082610ebd9190611692565b9150602081610ecc9190611692565b9050602084610edb91906118b3565b9350610ea4565b60006001856020036101000a03905080198251168184511681811785525050508692505050949350505050565b610f176110a1565b83602001518310610f3d57610f3c8460028660200151610f379190611859565b611010565b5b8351805160208583010184815381861415610f59576001820183525b5050508390509392505050565b610f6e6110a1565b84602001518483610f7f9190611692565b1115610fa757610fa68560028685610f979190611692565b610fa19190611859565b611010565b5b6000600183610100610fb9919061173b565b610fc391906118b3565b90508551838682010185831982511617815281518588011115610fe65784870182525b505085915050949350505050565b6000818311156110065782905061100a565b8190505b92915050565b60008260000151905061102383836109a5565b5061102e8382610b54565b50505050565b6040518060a0016040528060008019168152602001600073ffffffffffffffffffffffffffffffffffffffff16815260200160007bffffffffffffffffffffffffffffffffffffffffffffffffffffffff191681526020016000815260200161109b6110a1565b81525090565b604051806040016040528060608152602001600081525090565b60006110ce6110c984611629565b611604565b9050828152602081018484840111156110ea576110e9611aff565b5b6110f584828561199b565b509392505050565b60008151905061110c81611bd7565b92915050565b60008135905061112181611bee565b92915050565b60008135905061113681611c05565b92915050565b60008135905061114b81611c1c565b92915050565b600082601f83011261116657611165611afa565b5b81356111768482602086016110bb565b91505092915050565b60008135905061118e81611c33565b92915050565b6000602082840312156111aa576111a9611b09565b5b60006111b8848285016110fd565b91505092915050565b600080604083850312156111d8576111d7611b09565b5b60006111e685828601611112565b92505060206111f78582860161117f565b9150509250929050565b60006020828403121561121757611216611b09565b5b600061122584828501611127565b91505092915050565b60006020828403121561124457611243611b09565b5b600082013567ffffffffffffffff81111561126257611261611b04565b5b61126e84828501611151565b91505092915050565b60006020828403121561128d5761128c611b09565b5b600061129b8482850161117f565b91505092915050565b600080604083850312156112bb576112ba611b09565b5b60006112c98582860161117f565b92505060206112da8582860161113c565b9150509250929050565b6112ed816118e7565b82525050565b6112fc816118f9565b82525050565b61130b81611905565b82525050565b61131a8161190f565b82525050565b600061132b8261165a565b6113358185611665565b93506113458185602086016119aa565b61134e81611b0e565b840191505092915050565b60006113648261165a565b61136e8185611676565b935061137e8185602086016119aa565b80840191505092915050565b61139b61139682611977565b611a0e565b82525050565b60006113ae602383611681565b91506113b982611b39565b604082019050919050565b60006113d1602883611681565b91506113dc82611b88565b604082019050919050565b6113f08161196d565b82525050565b6114076114028261196d565b611a32565b82525050565b60006114198284611359565b915081905092915050565b6000611430828561138a565b60148201915061144082846113f6565b6020820191508190509392505050565b600060608201905061146560008301866112e4565b61147260208301856112e4565b61147f60408301846113e7565b949350505050565b60006101008201905061149d600083018b6112e4565b6114aa602083018a6113e7565b6114b76040830189611302565b6114c460608301886112e4565b6114d16080830187611311565b6114de60a08301866113e7565b6114eb60c08301856113e7565b81810360e08301526114fd8184611320565b90509998505050505050505050565b600060608201905061152160008301866112e4565b61152e60208301856113e7565b81810360408301526115408184611320565b9050949350505050565b600060208201905061155f60008301846112f3565b92915050565b600060208201905061157a6000830184611302565b92915050565b60006040820190506115956000830185611302565b6115a260208301846113e7565b9392505050565b600060208201905081810360008301526115c2816113a1565b9050919050565b600060208201905081810360008301526115e2816113c4565b9050919050565b60006020820190506115fe60008301846113e7565b92915050565b600061160e61161f565b905061161a82826119dd565b919050565b6000604051905090565b600067ffffffffffffffff82111561164457611643611acb565b5b61164d82611b0e565b9050602081019050919050565b600081519050919050565b600082825260208201905092915050565b600081905092915050565b600082825260208201905092915050565b600061169d8261196d565b91506116a88361196d565b9250827fffffffffffffffffffffffffffffffffffffffffffffffffffffffffffffffff038211156116dd576116dc611a6d565b5b828201905092915050565b6000808291508390505b60018511156117325780860481111561170e5761170d611a6d565b5b600185161561171d5780820291505b808102905061172b85611b2c565b94506116f2565b94509492505050565b60006117468261196d565b91506117518361196d565b925061177e7fffffffffffffffffffffffffffffffffffffffffffffffffffffffffffffffff8484611786565b905092915050565b6000826117965760019050611852565b816117a45760009050611852565b81600181146117ba57600281146117c4576117f3565b6001915050611852565b60ff8411156117d6576117d5611a6d565b5b8360020a9150848211156117ed576117ec611a6d565b5b50611852565b5060208310610133831016604e8410600b84101617156118285782820a90508381111561182357611822611a6d565b5b611852565b61183584848460016116e8565b9250905081840481111561184c5761184b611a6d565b5b81810290505b9392505050565b60006118648261196d565b915061186f8361196d565b9250817fffffffffffffffffffffffffffffffffffffffffffffffffffffffffffffffff04831182151516156118a8576118a7611a6d565b5b828202905092915050565b60006118be8261196d565b91506118c98361196d565b9250828210156118dc576118db611a6d565b5b828203905092915050565b60006118f28261194d565b9050919050565b60008115159050919050565b6000819050919050565b60007fffffffff0000000000000000000000000000000000000000000000000000000082169050919050565b6000611946826118e7565b9050919050565b600073ffffffffffffffffffffffffffffffffffffffff82169050919050565b6000819050919050565b600061198282611989565b9050919050565b60006119948261194d565b9050919050565b82818337600083830152505050565b60005b838110156119c85780820151818401526020810190506119ad565b838111156119d7576000848401525b50505050565b6119e682611b0e565b810181811067ffffffffffffffff82111715611a0557611a04611acb565b5b80604052505050565b6000611a1982611a20565b9050919050565b6000611a2b82611b1f565b9050919050565b6000819050919050565b6000611a478261196d565b9150611a528361196d565b925082611a6257611a61611a9c565b5b828206905092915050565b7f4e487b7100000000000000000000000000000000000000000000000000000000600052601160045260246000fd5b7f4e487b7100000000000000000000000000000000000000000000000000000000600052601260045260246000fd5b7f4e487b7100000000000000000000000000000000000000000000000000000000600052604160045260246000fd5b600080fd5b600080fd5b600080fd5b600080fd5b6000601f19601f8301169050919050565b60008160601b9050919050565b60008160011c9050919050565b7f756e61626c6520746f207472616e73666572416e6443616c6c20746f206f726160008201527f636c650000000000000000000000000000000000000000000000000000000000602082015250565b7f536f75726365206d75737420626520746865206f7261636c65206f662074686560008201527f2072657175657374000000000000000000000000000000000000000000000000602082015250565b611be0816118f9565b8114611beb57600080fd5b50565b611bf781611905565b8114611c0257600080fd5b50565b611c0e8161190f565b8114611c1957600080fd5b50565b611c258161193b565b8114611c3057600080fd5b50565b611c3c8161196d565b8114611c4757600080fd5b5056fe68747470733a2f2f72756e2e6d6f636b792e696f2f76332f61653238366161302d633831642d343031302d393532662d393039343238613335666162a26469706673582212202d26274a0368f2992fe017cf1568900e666cc7fdf6be23141a92bb09da1cd12864736f6c63430008060033",
  "devdoc": {
    "kind": "dev",
    "methods": {
      "fulFillPrice(bytes32,uint256)": {
        "details": "emit PurchaseRequestDone event when delegate callback is done",
        "params": {
          "_price": "the price returned by API",
          "_requestId": "chain link request identifier."
        }
      },
      "getCurrentPriceForCID(uint256)": {
        "params": {
          "cid": "IPFS content unique identifier."
        },
        "returns": {
          "_0": "current NFT price"
        }
      },
      "requestPurchase(uint256,address)": {
        "params": {
          "caller": "origin contract",
          "cid": "IPFS content unique identifier."
        }
      },
      "supportsInterface(bytes4)": {
        "details": "Returns true if this contract implements the interface defined by `interfaceId`. See the corresponding https://eips.ethereum.org/EIPS/eip-165#how-interfaces-are-identified[EIP section] to learn more about how these ids are created. This function call must use less than 30 000 gas."
      }
    },
    "version": 1
  },
  "userdoc": {
    "kind": "user",
    "methods": {
      "fulFillPrice(bytes32,uint256)": {
        "notice": "Receive the response in form of multiple-variable"
      },
      "getCurrentPriceForCID(uint256)": {
        "notice": "Return current NFT price by cid"
      },
      "requestPurchase(uint256,address)": {
        "notice": "Create a Chainlink request to retrieve API response. Add the request into mapping to keep tracking of caller."
      }
    },
    "version": 1
  },
  "storageLayout": {
    "storage": [
      {
        "astId": 318,
        "contract": "contracts/chainlink/PurchaseGateway.sol:PurchaseGateway",
        "label": "ens",
        "offset": 0,
        "slot": "0",
        "type": "t_contract(ENSInterface)912"
      },
      {
        "astId": 320,
        "contract": "contracts/chainlink/PurchaseGateway.sol:PurchaseGateway",
        "label": "ensNode",
        "offset": 0,
        "slot": "1",
        "type": "t_bytes32"
      },
      {
        "astId": 323,
        "contract": "contracts/chainlink/PurchaseGateway.sol:PurchaseGateway",
        "label": "link",
        "offset": 0,
        "slot": "2",
        "type": "t_contract(LinkTokenInterface)1007"
      },
      {
        "astId": 326,
        "contract": "contracts/chainlink/PurchaseGateway.sol:PurchaseGateway",
        "label": "oracle",
        "offset": 0,
        "slot": "3",
        "type": "t_contract(OperatorInterface)1089"
      },
      {
        "astId": 329,
        "contract": "contracts/chainlink/PurchaseGateway.sol:PurchaseGateway",
        "label": "requestCount",
        "offset": 0,
        "slot": "4",
        "type": "t_uint256"
      },
      {
        "astId": 333,
        "contract": "contracts/chainlink/PurchaseGateway.sol:PurchaseGateway",
        "label": "pendingRequests",
        "offset": 0,
        "slot": "5",
        "type": "t_mapping(t_bytes32,t_address)"
      },
      {
        "astId": 2180,
        "contract": "contracts/chainlink/PurchaseGateway.sol:PurchaseGateway",
        "label": "_jobId",
        "offset": 0,
        "slot": "6",
        "type": "t_bytes32"
      },
      {
        "astId": 2182,
        "contract": "contracts/chainlink/PurchaseGateway.sol:PurchaseGateway",
        "label": "_fees",
        "offset": 0,
        "slot": "7",
        "type": "t_uint256"
      },
      {
        "astId": 2197,
        "contract": "contracts/chainlink/PurchaseGateway.sol:PurchaseGateway",
        "label": "requests",
        "offset": 0,
        "slot": "8",
        "type": "t_mapping(t_bytes32,t_struct(RequestCommitment)2192_storage)"
      },
      {
        "astId": 2201,
        "contract": "contracts/chainlink/PurchaseGateway.sol:PurchaseGateway",
        "label": "prices",
        "offset": 0,
        "slot": "9",
        "type": "t_mapping(t_uint256,t_uint256)"
      }
    ],
    "types": {
      "t_address": {
        "encoding": "inplace",
        "label": "address",
        "numberOfBytes": "20"
      },
      "t_bytes32": {
        "encoding": "inplace",
        "label": "bytes32",
        "numberOfBytes": "32"
      },
      "t_contract(ENSInterface)912": {
        "encoding": "inplace",
        "label": "contract ENSInterface",
        "numberOfBytes": "20"
      },
      "t_contract(LinkTokenInterface)1007": {
        "encoding": "inplace",
        "label": "contract LinkTokenInterface",
        "numberOfBytes": "20"
      },
      "t_contract(OperatorInterface)1089": {
        "encoding": "inplace",
        "label": "contract OperatorInterface",
        "numberOfBytes": "20"
      },
      "t_mapping(t_bytes32,t_address)": {
        "encoding": "mapping",
        "key": "t_bytes32",
        "label": "mapping(bytes32 => address)",
        "numberOfBytes": "32",
        "value": "t_address"
      },
      "t_mapping(t_bytes32,t_struct(RequestCommitment)2192_storage)": {
        "encoding": "mapping",
        "key": "t_bytes32",
        "label": "mapping(bytes32 => struct PurchaseGateway.RequestCommitment)",
        "numberOfBytes": "32",
        "value": "t_struct(RequestCommitment)2192_storage"
      },
      "t_mapping(t_uint256,t_uint256)": {
        "encoding": "mapping",
        "key": "t_uint256",
        "label": "mapping(uint256 => uint256)",
        "numberOfBytes": "32",
        "value": "t_uint256"
      },
      "t_struct(RequestCommitment)2192_storage": {
        "encoding": "inplace",
        "label": "struct PurchaseGateway.RequestCommitment",
        "members": [
          {
            "astId": 2184,
            "contract": "contracts/chainlink/PurchaseGateway.sol:PurchaseGateway",
            "label": "caller",
            "offset": 0,
            "slot": "0",
            "type": "t_address"
          },
          {
            "astId": 2187,
            "contract": "contracts/chainlink/PurchaseGateway.sol:PurchaseGateway",
            "label": "cid",
            "offset": 0,
            "slot": "1",
            "type": "t_uint256"
          },
          {
            "astId": 2189,
            "contract": "contracts/chainlink/PurchaseGateway.sol:PurchaseGateway",
            "label": "buyer",
            "offset": 0,
            "slot": "2",
            "type": "t_address"
          },
          {
            "astId": 2191,
            "contract": "contracts/chainlink/PurchaseGateway.sol:PurchaseGateway",
            "label": "bid",
            "offset": 0,
            "slot": "3",
            "type": "t_uint256"
          }
        ],
        "numberOfBytes": "128"
      },
      "t_uint256": {
        "encoding": "inplace",
        "label": "uint256",
        "numberOfBytes": "32"
      }
    }
  }
}