{
  "address": "0xf4944629CE82157344fc7Cb174384F969Ec24Ae0",
  "abi": [
    {
      "anonymous": false,
      "inputs": [
        {
          "indexed": true,
          "internalType": "address",
          "name": "owner",
          "type": "address"
        },
        {
          "indexed": true,
          "internalType": "address",
          "name": "spender",
          "type": "address"
        },
        {
          "indexed": false,
          "internalType": "uint256",
          "name": "value",
          "type": "uint256"
        }
      ],
      "name": "Approval",
      "type": "event"
    },
    {
      "anonymous": false,
      "inputs": [
        {
          "indexed": true,
          "internalType": "bytes32",
          "name": "role",
          "type": "bytes32"
        },
        {
          "indexed": true,
          "internalType": "bytes32",
          "name": "previousAdminRole",
          "type": "bytes32"
        },
        {
          "indexed": true,
          "internalType": "bytes32",
          "name": "newAdminRole",
          "type": "bytes32"
        }
      ],
      "name": "RoleAdminChanged",
      "type": "event"
    },
    {
      "anonymous": false,
      "inputs": [
        {
          "indexed": true,
          "internalType": "bytes32",
          "name": "role",
          "type": "bytes32"
        },
        {
          "indexed": true,
          "internalType": "address",
          "name": "account",
          "type": "address"
        },
        {
          "indexed": true,
          "internalType": "address",
          "name": "sender",
          "type": "address"
        }
      ],
      "name": "RoleGranted",
      "type": "event"
    },
    {
      "anonymous": false,
      "inputs": [
        {
          "indexed": true,
          "internalType": "bytes32",
          "name": "role",
          "type": "bytes32"
        },
        {
          "indexed": true,
          "internalType": "address",
          "name": "account",
          "type": "address"
        },
        {
          "indexed": true,
          "internalType": "address",
          "name": "sender",
          "type": "address"
        }
      ],
      "name": "RoleRevoked",
      "type": "event"
    },
    {
      "anonymous": false,
      "inputs": [
        {
          "indexed": true,
          "internalType": "address",
          "name": "from",
          "type": "address"
        },
        {
          "indexed": true,
          "internalType": "address",
          "name": "to",
          "type": "address"
        },
        {
          "indexed": false,
          "internalType": "uint256",
          "name": "value",
          "type": "uint256"
        }
      ],
      "name": "Transfer",
      "type": "event"
    },
    {
      "inputs": [],
      "name": "DEFAULT_ADMIN_ROLE",
      "outputs": [
        {
          "internalType": "bytes32",
          "name": "",
          "type": "bytes32"
        }
      ],
      "stateMutability": "view",
      "type": "function"
    },
    {
      "inputs": [
        {
          "internalType": "address",
          "name": "owner",
          "type": "address"
        },
        {
          "internalType": "address",
          "name": "spender",
          "type": "address"
        }
      ],
      "name": "allowance",
      "outputs": [
        {
          "internalType": "uint256",
          "name": "",
          "type": "uint256"
        }
      ],
      "stateMutability": "view",
      "type": "function"
    },
    {
      "inputs": [
        {
          "internalType": "address",
          "name": "spender",
          "type": "address"
        },
        {
          "internalType": "uint256",
          "name": "amount",
          "type": "uint256"
        }
      ],
      "name": "approve",
      "outputs": [
        {
          "internalType": "bool",
          "name": "",
          "type": "bool"
        }
      ],
      "stateMutability": "nonpayable",
      "type": "function"
    },
    {
      "inputs": [
        {
          "internalType": "address",
          "name": "account",
          "type": "address"
        }
      ],
      "name": "balanceOf",
      "outputs": [
        {
          "internalType": "uint256",
          "name": "",
          "type": "uint256"
        }
      ],
      "stateMutability": "view",
      "type": "function"
    },
    {
      "inputs": [
        {
          "internalType": "address",
          "name": "account",
          "type": "address"
        },
        {
          "internalType": "uint256",
          "name": "amount",
          "type": "uint256"
        }
      ],
      "name": "burn",
      "outputs": [],
      "stateMutability": "nonpayable",
      "type": "function"
    },
    {
      "inputs": [],
      "name": "decimals",
      "outputs": [
        {
          "internalType": "uint8",
          "name": "",
          "type": "uint8"
        }
      ],
      "stateMutability": "view",
      "type": "function"
    },
    {
      "inputs": [
        {
          "internalType": "address",
          "name": "spender",
          "type": "address"
        },
        {
          "internalType": "uint256",
          "name": "subtractedValue",
          "type": "uint256"
        }
      ],
      "name": "decreaseAllowance",
      "outputs": [
        {
          "internalType": "bool",
          "name": "",
          "type": "bool"
        }
      ],
      "stateMutability": "nonpayable",
      "type": "function"
    },
    {
      "inputs": [
        {
          "internalType": "bytes32",
          "name": "role",
          "type": "bytes32"
        }
      ],
      "name": "getRoleAdmin",
      "outputs": [
        {
          "internalType": "bytes32",
          "name": "",
          "type": "bytes32"
        }
      ],
      "stateMutability": "view",
      "type": "function"
    },
    {
      "inputs": [
        {
          "internalType": "bytes32",
          "name": "role",
          "type": "bytes32"
        },
        {
          "internalType": "address",
          "name": "account",
          "type": "address"
        }
      ],
      "name": "grantRole",
      "outputs": [],
      "stateMutability": "nonpayable",
      "type": "function"
    },
    {
      "inputs": [
        {
          "internalType": "bytes32",
          "name": "role",
          "type": "bytes32"
        },
        {
          "internalType": "address",
          "name": "account",
          "type": "address"
        }
      ],
      "name": "hasRole",
      "outputs": [
        {
          "internalType": "bool",
          "name": "",
          "type": "bool"
        }
      ],
      "stateMutability": "view",
      "type": "function"
    },
    {
      "inputs": [
        {
          "internalType": "address",
          "name": "spender",
          "type": "address"
        },
        {
          "internalType": "uint256",
          "name": "addedValue",
          "type": "uint256"
        }
      ],
      "name": "increaseAllowance",
      "outputs": [
        {
          "internalType": "bool",
          "name": "",
          "type": "bool"
        }
      ],
      "stateMutability": "nonpayable",
      "type": "function"
    },
    {
      "inputs": [
        {
          "internalType": "uint256",
          "name": "initialSupply",
          "type": "uint256"
        }
      ],
      "name": "initialize",
      "outputs": [],
      "stateMutability": "nonpayable",
      "type": "function"
    },
    {
      "inputs": [
        {
          "internalType": "address",
          "name": "account",
          "type": "address"
        },
        {
          "internalType": "uint256",
          "name": "amount",
          "type": "uint256"
        }
      ],
      "name": "mint",
      "outputs": [],
      "stateMutability": "nonpayable",
      "type": "function"
    },
    {
      "inputs": [],
      "name": "name",
      "outputs": [
        {
          "internalType": "string",
          "name": "",
          "type": "string"
        }
      ],
      "stateMutability": "view",
      "type": "function"
    },
    {
      "inputs": [
        {
          "internalType": "bytes32",
          "name": "role",
          "type": "bytes32"
        },
        {
          "internalType": "address",
          "name": "account",
          "type": "address"
        }
      ],
      "name": "renounceRole",
      "outputs": [],
      "stateMutability": "nonpayable",
      "type": "function"
    },
    {
      "inputs": [
        {
          "internalType": "bytes32",
          "name": "role",
          "type": "bytes32"
        },
        {
          "internalType": "address",
          "name": "account",
          "type": "address"
        }
      ],
      "name": "revokeRole",
      "outputs": [],
      "stateMutability": "nonpayable",
      "type": "function"
    },
    {
      "inputs": [
        {
          "internalType": "bytes4",
          "name": "interfaceId",
          "type": "bytes4"
        }
      ],
      "name": "supportsInterface",
      "outputs": [
        {
          "internalType": "bool",
          "name": "",
          "type": "bool"
        }
      ],
      "stateMutability": "view",
      "type": "function"
    },
    {
      "inputs": [],
      "name": "symbol",
      "outputs": [
        {
          "internalType": "string",
          "name": "",
          "type": "string"
        }
      ],
      "stateMutability": "view",
      "type": "function"
    },
    {
      "inputs": [],
      "name": "totalSupply",
      "outputs": [
        {
          "internalType": "uint256",
          "name": "",
          "type": "uint256"
        }
      ],
      "stateMutability": "view",
      "type": "function"
    },
    {
      "inputs": [
        {
          "internalType": "address",
          "name": "recipient",
          "type": "address"
        },
        {
          "internalType": "uint256",
          "name": "amount",
          "type": "uint256"
        }
      ],
      "name": "transfer",
      "outputs": [
        {
          "internalType": "bool",
          "name": "",
          "type": "bool"
        }
      ],
      "stateMutability": "nonpayable",
      "type": "function"
    },
    {
      "inputs": [
        {
          "internalType": "address",
          "name": "sender",
          "type": "address"
        },
        {
          "internalType": "address",
          "name": "recipient",
          "type": "address"
        },
        {
          "internalType": "uint256",
          "name": "amount",
          "type": "uint256"
        }
      ],
      "name": "transferFrom",
      "outputs": [
        {
          "internalType": "bool",
          "name": "",
          "type": "bool"
        }
      ],
      "stateMutability": "nonpayable",
      "type": "function"
    },
    {
      "inputs": [],
      "name": "upgrade",
      "outputs": [],
      "stateMutability": "nonpayable",
      "type": "function"
    },
    {
      "inputs": [],
      "name": "version",
      "outputs": [
        {
          "internalType": "uint32",
          "name": "",
          "type": "uint32"
        }
      ],
      "stateMutability": "view",
      "type": "function"
    }
  ],
  "transactionHash": "0xfad2faff89c1cf6daca1ee4c730c1a7baa67a7ea7bbb97cfcbc823422e73079e",
  "args": [],
  "solcInputHash": "af8943dcea05635c97b40ea9067cca01",
  "bytecode": "0x608060405234801561001057600080fd5b50612d2d806100206000396000f3fe608060405234801561001057600080fd5b506004361061014d5760003560e01c806354fd4d50116100c3578063a457c2d71161007c578063a457c2d7146103c6578063a9059cbb146103f6578063d547741f14610426578063d55ec69714610442578063dd62ed3e1461044c578063fe4b84df1461047c5761014d565b806354fd4d50146102f057806370a082311461030e57806391d148541461033e57806395d89b411461036e5780639dc29fac1461038c578063a217fddf146103a85761014d565b8063248a9ca311610115578063248a9ca31461021e5780632f2ff15d1461024e578063313ce5671461026a57806336568abe1461028857806339509351146102a457806340c10f19146102d45761014d565b806301ffc9a71461015257806306fdde0314610182578063095ea7b3146101a057806318160ddd146101d057806323b872dd146101ee575b600080fd5b61016c60048036038101906101679190611f53565b610498565b60405161017991906122cc565b60405180910390f35b61018a610512565b6040516101979190612302565b60405180910390f35b6101ba60048036038101906101b59190611ea6565b6105a4565b6040516101c791906122cc565b60405180910390f35b6101d86105c2565b6040516101e591906124e4565b60405180910390f35b61020860048036038101906102039190611e53565b6105cc565b60405161021591906122cc565b60405180910390f35b61023860048036038101906102339190611ee6565b6106c4565b60405161024591906122e7565b60405180910390f35b61026860048036038101906102639190611f13565b6106e4565b005b61027261070d565b60405161027f919061251a565b60405180910390f35b6102a2600480360381019061029d9190611f13565b610716565b005b6102be60048036038101906102b99190611ea6565b610799565b6040516102cb91906122cc565b60405180910390f35b6102ee60048036038101906102e99190611ea6565b610845565b005b6102f8610853565b60405161030591906124ff565b60405180910390f35b61032860048036038101906103239190611de6565b610869565b60405161033591906124e4565b60405180910390f35b61035860048036038101906103539190611f13565b6108b2565b60405161036591906122cc565b60405180910390f35b61037661091d565b6040516103839190612302565b60405180910390f35b6103a660048036038101906103a19190611ea6565b6109af565b005b6103b06109bd565b6040516103bd91906122e7565b60405180910390f35b6103e060048036038101906103db9190611ea6565b6109c4565b6040516103ed91906122cc565b60405180910390f35b610410600480360381019061040b9190611ea6565b610aaf565b60405161041d91906122cc565b60405180910390f35b610440600480360381019061043b9190611f13565b610acd565b005b61044a610af6565b005b61046660048036038101906104619190611e13565b610b85565b60405161047391906124e4565b60405180910390f35b61049660048036038101906104919190611f80565b610c0c565b005b60007f7965db0b000000000000000000000000000000000000000000000000000000007bffffffffffffffffffffffffffffffffffffffffffffffffffffffff1916827bffffffffffffffffffffffffffffffffffffffffffffffffffffffff1916148061050b575061050a82610d71565b5b9050919050565b60606036805461052190612738565b80601f016020809104026020016040519081016040528092919081815260200182805461054d90612738565b801561059a5780601f1061056f5761010080835404028352916020019161059a565b820191906000526020600020905b81548152906001019060200180831161057d57829003601f168201915b5050505050905090565b60006105b86105b1610ddb565b8484610de3565b6001905092915050565b6000603554905090565b60006105d9848484610fae565b6000603460008673ffffffffffffffffffffffffffffffffffffffff1673ffffffffffffffffffffffffffffffffffffffff1681526020019081526020016000206000610624610ddb565b73ffffffffffffffffffffffffffffffffffffffff1673ffffffffffffffffffffffffffffffffffffffff168152602001908152602001600020549050828110156106a4576040517f08c379a000000000000000000000000000000000000000000000000000000000815260040161069b906123e4565b60405180910390fd5b6106b8856106b0610ddb565b858403610de3565b60019150509392505050565b600060976000838152602001908152602001600020600101549050919050565b6106ed826106c4565b6106fe816106f9610ddb565b611232565b61070883836112cf565b505050565b60006012905090565b61071e610ddb565b73ffffffffffffffffffffffffffffffffffffffff168173ffffffffffffffffffffffffffffffffffffffff161461078b576040517f08c379a0000000000000000000000000000000000000000000000000000000008152600401610782906124a4565b60405180910390fd5b61079582826113b0565b5050565b600061083b6107a6610ddb565b8484603460006107b4610ddb565b73ffffffffffffffffffffffffffffffffffffffff1673ffffffffffffffffffffffffffffffffffffffff16815260200190815260200160002060008873ffffffffffffffffffffffffffffffffffffffff1673ffffffffffffffffffffffffffffffffffffffff16815260200190815260200160002054610836919061255c565b610de3565b6001905092915050565b61084f8282611492565b5050565b60c960019054906101000a900463ffffffff1681565b6000603360008373ffffffffffffffffffffffffffffffffffffffff1673ffffffffffffffffffffffffffffffffffffffff168152602001908152602001600020549050919050565b60006097600084815260200190815260200160002060000160008373ffffffffffffffffffffffffffffffffffffffff1673ffffffffffffffffffffffffffffffffffffffff16815260200190815260200160002060009054906101000a900460ff16905092915050565b60606037805461092c90612738565b80601f016020809104026020016040519081016040528092919081815260200182805461095890612738565b80156109a55780601f1061097a576101008083540402835291602001916109a5565b820191906000526020600020905b81548152906001019060200180831161098857829003601f168201915b5050505050905090565b6109b982826115f3565b5050565b6000801b81565b600080603460006109d3610ddb565b73ffffffffffffffffffffffffffffffffffffffff1673ffffffffffffffffffffffffffffffffffffffff16815260200190815260200160002060008573ffffffffffffffffffffffffffffffffffffffff1673ffffffffffffffffffffffffffffffffffffffff16815260200190815260200160002054905082811015610a90576040517f08c379a0000000000000000000000000000000000000000000000000000000008152600401610a8790612484565b60405180910390fd5b610aa4610a9b610ddb565b85858403610de3565b600191505092915050565b6000610ac3610abc610ddb565b8484610fae565b6001905092915050565b610ad6826106c4565b610ae781610ae2610ddb565b611232565b610af183836113b0565b505050565b610b036000801b336108b2565b610b42576040517f08c379a0000000000000000000000000000000000000000000000000000000008152600401610b3990612464565b60405180910390fd5b60c9600181819054906101000a900463ffffffff1680929190610b649061276a565b91906101000a81548163ffffffff021916908363ffffffff16021790555050565b6000603460008473ffffffffffffffffffffffffffffffffffffffff1673ffffffffffffffffffffffffffffffffffffffff16815260200190815260200160002060008373ffffffffffffffffffffffffffffffffffffffff1673ffffffffffffffffffffffffffffffffffffffff16815260200190815260200160002054905092915050565b600060019054906101000a900460ff1680610c32575060008054906101000a900460ff16155b610c71576040517f08c379a0000000000000000000000000000000000000000000000000000000008152600401610c68906123c4565b60405180910390fd5b60008060019054906101000a900460ff161590508015610cc1576001600060016101000a81548160ff02191690831515021790555060016000806101000a81548160ff0219169083151502179055505b610d356040518060400160405280601281526020017f5761746368497420566964656f20436f696e00000000000000000000000000008152506040518060400160405280600381526020017f57564300000000000000000000000000000000000000000000000000000000008152506117cc565b610d426000801b336118b9565b610d4c3383611492565b8015610d6d5760008060016101000a81548160ff0219169083151502179055505b5050565b60007f01ffc9a7000000000000000000000000000000000000000000000000000000007bffffffffffffffffffffffffffffffffffffffffffffffffffffffff1916827bffffffffffffffffffffffffffffffffffffffffffffffffffffffff1916149050919050565b600033905090565b600073ffffffffffffffffffffffffffffffffffffffff168373ffffffffffffffffffffffffffffffffffffffff161415610e53576040517f08c379a0000000000000000000000000000000000000000000000000000000008152600401610e4a90612444565b60405180910390fd5b600073ffffffffffffffffffffffffffffffffffffffff168273ffffffffffffffffffffffffffffffffffffffff161415610ec3576040517f08c379a0000000000000000000000000000000000000000000000000000000008152600401610eba90612384565b60405180910390fd5b80603460008573ffffffffffffffffffffffffffffffffffffffff1673ffffffffffffffffffffffffffffffffffffffff16815260200190815260200160002060008473ffffffffffffffffffffffffffffffffffffffff1673ffffffffffffffffffffffffffffffffffffffff168152602001908152602001600020819055508173ffffffffffffffffffffffffffffffffffffffff168373ffffffffffffffffffffffffffffffffffffffff167f8c5be1e5ebec7d5bd14f71427d1e84f3dd0314c0f7b2291e5b200ac8c7c3b92583604051610fa191906124e4565b60405180910390a3505050565b600073ffffffffffffffffffffffffffffffffffffffff168373ffffffffffffffffffffffffffffffffffffffff16141561101e576040517f08c379a000000000000000000000000000000000000000000000000000000000815260040161101590612424565b60405180910390fd5b600073ffffffffffffffffffffffffffffffffffffffff168273ffffffffffffffffffffffffffffffffffffffff16141561108e576040517f08c379a000000000000000000000000000000000000000000000000000000000815260040161108590612344565b60405180910390fd5b6110998383836118c7565b6000603360008573ffffffffffffffffffffffffffffffffffffffff1673ffffffffffffffffffffffffffffffffffffffff16815260200190815260200160002054905081811015611120576040517f08c379a0000000000000000000000000000000000000000000000000000000008152600401611117906123a4565b60405180910390fd5b818103603360008673ffffffffffffffffffffffffffffffffffffffff1673ffffffffffffffffffffffffffffffffffffffff1681526020019081526020016000208190555081603360008573ffffffffffffffffffffffffffffffffffffffff1673ffffffffffffffffffffffffffffffffffffffff16815260200190815260200160002060008282546111b5919061255c565b925050819055508273ffffffffffffffffffffffffffffffffffffffff168473ffffffffffffffffffffffffffffffffffffffff167fddf252ad1be2c89b69c2b068fc378daa952ba7f163c4a11628f55a4df523b3ef8460405161121991906124e4565b60405180910390a361122c8484846118cc565b50505050565b61123c82826108b2565b6112cb576112618173ffffffffffffffffffffffffffffffffffffffff1660146118d1565b61126f8360001c60206118d1565b604051602001611280929190612292565b6040516020818303038152906040526040517f08c379a00000000000000000000000000000000000000000000000000000000081526004016112c29190612302565b60405180910390fd5b5050565b6112d982826108b2565b6113ac5760016097600084815260200190815260200160002060000160008373ffffffffffffffffffffffffffffffffffffffff1673ffffffffffffffffffffffffffffffffffffffff16815260200190815260200160002060006101000a81548160ff021916908315150217905550611351610ddb565b73ffffffffffffffffffffffffffffffffffffffff168173ffffffffffffffffffffffffffffffffffffffff16837f2f8788117e7eff1d82e926ec794901d17c78024a50270940304540a733656f0d60405160405180910390a45b5050565b6113ba82826108b2565b1561148e5760006097600084815260200190815260200160002060000160008373ffffffffffffffffffffffffffffffffffffffff1673ffffffffffffffffffffffffffffffffffffffff16815260200190815260200160002060006101000a81548160ff021916908315150217905550611433610ddb565b73ffffffffffffffffffffffffffffffffffffffff168173ffffffffffffffffffffffffffffffffffffffff16837ff6391f5c32d9c69d2a47ea670b442974b53935d1edc7fd64eb21e047a839171b60405160405180910390a45b5050565b600073ffffffffffffffffffffffffffffffffffffffff168273ffffffffffffffffffffffffffffffffffffffff161415611502576040517f08c379a00000000000000000000000000000000000000000000000000000000081526004016114f9906124c4565b60405180910390fd5b61150e600083836118c7565b8060356000828254611520919061255c565b9250508190555080603360008473ffffffffffffffffffffffffffffffffffffffff1673ffffffffffffffffffffffffffffffffffffffff1681526020019081526020016000206000828254611576919061255c565b925050819055508173ffffffffffffffffffffffffffffffffffffffff16600073ffffffffffffffffffffffffffffffffffffffff167fddf252ad1be2c89b69c2b068fc378daa952ba7f163c4a11628f55a4df523b3ef836040516115db91906124e4565b60405180910390a36115ef600083836118cc565b5050565b600073ffffffffffffffffffffffffffffffffffffffff168273ffffffffffffffffffffffffffffffffffffffff161415611663576040517f08c379a000000000000000000000000000000000000000000000000000000000815260040161165a90612404565b60405180910390fd5b61166f826000836118c7565b6000603360008473ffffffffffffffffffffffffffffffffffffffff1673ffffffffffffffffffffffffffffffffffffffff168152602001908152602001600020549050818110156116f6576040517f08c379a00000000000000000000000000000000000000000000000000000000081526004016116ed90612364565b60405180910390fd5b818103603360008573ffffffffffffffffffffffffffffffffffffffff1673ffffffffffffffffffffffffffffffffffffffff16815260200190815260200160002081905550816035600082825461174e919061260c565b92505081905550600073ffffffffffffffffffffffffffffffffffffffff168373ffffffffffffffffffffffffffffffffffffffff167fddf252ad1be2c89b69c2b068fc378daa952ba7f163c4a11628f55a4df523b3ef846040516117b391906124e4565b60405180910390a36117c7836000846118cc565b505050565b600060019054906101000a900460ff16806117f2575060008054906101000a900460ff16155b611831576040517f08c379a0000000000000000000000000000000000000000000000000000000008152600401611828906123c4565b60405180910390fd5b60008060019054906101000a900460ff161590508015611881576001600060016101000a81548160ff02191690831515021790555060016000806101000a81548160ff0219169083151502179055505b611889611b0d565b6118938383611be6565b80156118b45760008060016101000a81548160ff0219169083151502179055505b505050565b6118c382826112cf565b5050565b505050565b505050565b6060600060028360026118e491906125b2565b6118ee919061255c565b67ffffffffffffffff81111561190757611906612824565b5b6040519080825280601f01601f1916602001820160405280156119395781602001600182028036833780820191505090505b5090507f300000000000000000000000000000000000000000000000000000000000000081600081518110611971576119706127f5565b5b60200101907effffffffffffffffffffffffffffffffffffffffffffffffffffffffffffff1916908160001a9053507f7800000000000000000000000000000000000000000000000000000000000000816001815181106119d5576119d46127f5565b5b60200101907effffffffffffffffffffffffffffffffffffffffffffffffffffffffffffff1916908160001a90535060006001846002611a1591906125b2565b611a1f919061255c565b90505b6001811115611abf577f3031323334353637383961626364656600000000000000000000000000000000600f861660108110611a6157611a606127f5565b5b1a60f81b828281518110611a7857611a776127f5565b5b60200101907effffffffffffffffffffffffffffffffffffffffffffffffffffffffffffff1916908160001a905350600485901c945080611ab89061270e565b9050611a22565b5060008414611b03576040517f08c379a0000000000000000000000000000000000000000000000000000000008152600401611afa90612324565b60405180910390fd5b8091505092915050565b600060019054906101000a900460ff1680611b33575060008054906101000a900460ff16155b611b72576040517f08c379a0000000000000000000000000000000000000000000000000000000008152600401611b69906123c4565b60405180910390fd5b60008060019054906101000a900460ff161590508015611bc2576001600060016101000a81548160ff02191690831515021790555060016000806101000a81548160ff0219169083151502179055505b8015611be35760008060016101000a81548160ff0219169083151502179055505b50565b600060019054906101000a900460ff1680611c0c575060008054906101000a900460ff16155b611c4b576040517f08c379a0000000000000000000000000000000000000000000000000000000008152600401611c42906123c4565b60405180910390fd5b60008060019054906101000a900460ff161590508015611c9b576001600060016101000a81548160ff02191690831515021790555060016000806101000a81548160ff0219169083151502179055505b8260369080519060200190611cb1929190611cef565b508160379080519060200190611cc8929190611cef565b508015611cea5760008060016101000a81548160ff0219169083151502179055505b505050565b828054611cfb90612738565b90600052602060002090601f016020900481019282611d1d5760008555611d64565b82601f10611d3657805160ff1916838001178555611d64565b82800160010185558215611d64579182015b82811115611d63578251825591602001919060010190611d48565b5b509050611d719190611d75565b5090565b5b80821115611d8e576000816000905550600101611d76565b5090565b600081359050611da181612c9b565b92915050565b600081359050611db681612cb2565b92915050565b600081359050611dcb81612cc9565b92915050565b600081359050611de081612ce0565b92915050565b600060208284031215611dfc57611dfb612853565b5b6000611e0a84828501611d92565b91505092915050565b60008060408385031215611e2a57611e29612853565b5b6000611e3885828601611d92565b9250506020611e4985828601611d92565b9150509250929050565b600080600060608486031215611e6c57611e6b612853565b5b6000611e7a86828701611d92565b9350506020611e8b86828701611d92565b9250506040611e9c86828701611dd1565b9150509250925092565b60008060408385031215611ebd57611ebc612853565b5b6000611ecb85828601611d92565b9250506020611edc85828601611dd1565b9150509250929050565b600060208284031215611efc57611efb612853565b5b6000611f0a84828501611da7565b91505092915050565b60008060408385031215611f2a57611f29612853565b5b6000611f3885828601611da7565b9250506020611f4985828601611d92565b9150509250929050565b600060208284031215611f6957611f68612853565b5b6000611f7784828501611dbc565b91505092915050565b600060208284031215611f9657611f95612853565b5b6000611fa484828501611dd1565b91505092915050565b611fb681612652565b82525050565b611fc58161265e565b82525050565b6000611fd682612535565b611fe08185612540565b9350611ff08185602086016126db565b611ff981612858565b840191505092915050565b600061200f82612535565b6120198185612551565b93506120298185602086016126db565b80840191505092915050565b6000612042602083612540565b915061204d82612869565b602082019050919050565b6000612065602383612540565b915061207082612892565b604082019050919050565b6000612088602283612540565b9150612093826128e1565b604082019050919050565b60006120ab602283612540565b91506120b682612930565b604082019050919050565b60006120ce602683612540565b91506120d98261297f565b604082019050919050565b60006120f1602e83612540565b91506120fc826129ce565b604082019050919050565b6000612114602883612540565b915061211f82612a1d565b604082019050919050565b6000612137602183612540565b915061214282612a6c565b604082019050919050565b600061215a602583612540565b915061216582612abb565b604082019050919050565b600061217d602483612540565b915061218882612b0a565b604082019050919050565b60006121a0601783612551565b91506121ab82612b59565b601782019050919050565b60006121c3601a83612540565b91506121ce82612b82565b602082019050919050565b60006121e6602583612540565b91506121f182612bab565b604082019050919050565b6000612209601183612551565b915061221482612bfa565b601182019050919050565b600061222c602f83612540565b915061223782612c23565b604082019050919050565b600061224f601f83612540565b915061225a82612c72565b602082019050919050565b61226e816126b4565b82525050565b61227d816126be565b82525050565b61228c816126ce565b82525050565b600061229d82612193565b91506122a98285612004565b91506122b4826121fc565b91506122c08284612004565b91508190509392505050565b60006020820190506122e16000830184611fad565b92915050565b60006020820190506122fc6000830184611fbc565b92915050565b6000602082019050818103600083015261231c8184611fcb565b905092915050565b6000602082019050818103600083015261233d81612035565b9050919050565b6000602082019050818103600083015261235d81612058565b9050919050565b6000602082019050818103600083015261237d8161207b565b9050919050565b6000602082019050818103600083015261239d8161209e565b9050919050565b600060208201905081810360008301526123bd816120c1565b9050919050565b600060208201905081810360008301526123dd816120e4565b9050919050565b600060208201905081810360008301526123fd81612107565b9050919050565b6000602082019050818103600083015261241d8161212a565b9050919050565b6000602082019050818103600083015261243d8161214d565b9050919050565b6000602082019050818103600083015261245d81612170565b9050919050565b6000602082019050818103600083015261247d816121b6565b9050919050565b6000602082019050818103600083015261249d816121d9565b9050919050565b600060208201905081810360008301526124bd8161221f565b9050919050565b600060208201905081810360008301526124dd81612242565b9050919050565b60006020820190506124f96000830184612265565b92915050565b60006020820190506125146000830184612274565b92915050565b600060208201905061252f6000830184612283565b92915050565b600081519050919050565b600082825260208201905092915050565b600081905092915050565b6000612567826126b4565b9150612572836126b4565b9250827fffffffffffffffffffffffffffffffffffffffffffffffffffffffffffffffff038211156125a7576125a6612797565b5b828201905092915050565b60006125bd826126b4565b91506125c8836126b4565b9250817fffffffffffffffffffffffffffffffffffffffffffffffffffffffffffffffff048311821515161561260157612600612797565b5b828202905092915050565b6000612617826126b4565b9150612622836126b4565b92508282101561263557612634612797565b5b828203905092915050565b600061264b82612694565b9050919050565b60008115159050919050565b6000819050919050565b60007fffffffff0000000000000000000000000000000000000000000000000000000082169050919050565b600073ffffffffffffffffffffffffffffffffffffffff82169050919050565b6000819050919050565b600063ffffffff82169050919050565b600060ff82169050919050565b60005b838110156126f95780820151818401526020810190506126de565b83811115612708576000848401525b50505050565b6000612719826126b4565b9150600082141561272d5761272c612797565b5b600182039050919050565b6000600282049050600182168061275057607f821691505b60208210811415612764576127636127c6565b5b50919050565b6000612775826126be565b915063ffffffff82141561278c5761278b612797565b5b600182019050919050565b7f4e487b7100000000000000000000000000000000000000000000000000000000600052601160045260246000fd5b7f4e487b7100000000000000000000000000000000000000000000000000000000600052602260045260246000fd5b7f4e487b7100000000000000000000000000000000000000000000000000000000600052603260045260246000fd5b7f4e487b7100000000000000000000000000000000000000000000000000000000600052604160045260246000fd5b600080fd5b6000601f19601f8301169050919050565b7f537472696e67733a20686578206c656e67746820696e73756666696369656e74600082015250565b7f45524332303a207472616e7366657220746f20746865207a65726f206164647260008201527f6573730000000000000000000000000000000000000000000000000000000000602082015250565b7f45524332303a206275726e20616d6f756e7420657863656564732062616c616e60008201527f6365000000000000000000000000000000000000000000000000000000000000602082015250565b7f45524332303a20617070726f766520746f20746865207a65726f20616464726560008201527f7373000000000000000000000000000000000000000000000000000000000000602082015250565b7f45524332303a207472616e7366657220616d6f756e742065786365656473206260008201527f616c616e63650000000000000000000000000000000000000000000000000000602082015250565b7f496e697469616c697a61626c653a20636f6e747261637420697320616c72656160008201527f647920696e697469616c697a6564000000000000000000000000000000000000602082015250565b7f45524332303a207472616e7366657220616d6f756e742065786365656473206160008201527f6c6c6f77616e6365000000000000000000000000000000000000000000000000602082015250565b7f45524332303a206275726e2066726f6d20746865207a65726f2061646472657360008201527f7300000000000000000000000000000000000000000000000000000000000000602082015250565b7f45524332303a207472616e736665722066726f6d20746865207a65726f20616460008201527f6472657373000000000000000000000000000000000000000000000000000000602082015250565b7f45524332303a20617070726f76652066726f6d20746865207a65726f2061646460008201527f7265737300000000000000000000000000000000000000000000000000000000602082015250565b7f416363657373436f6e74726f6c3a206163636f756e7420000000000000000000600082015250565b7f56657273696f6e2063616e6e6f7420626520757064617465642e000000000000600082015250565b7f45524332303a2064656372656173656420616c6c6f77616e63652062656c6f7760008201527f207a65726f000000000000000000000000000000000000000000000000000000602082015250565b7f206973206d697373696e6720726f6c6520000000000000000000000000000000600082015250565b7f416363657373436f6e74726f6c3a2063616e206f6e6c792072656e6f756e636560008201527f20726f6c657320666f722073656c660000000000000000000000000000000000602082015250565b7f45524332303a206d696e7420746f20746865207a65726f206164647265737300600082015250565b612ca481612640565b8114612caf57600080fd5b50565b612cbb8161265e565b8114612cc657600080fd5b50565b612cd281612668565b8114612cdd57600080fd5b50565b612ce9816126b4565b8114612cf457600080fd5b5056fea264697066735822122059fa1f40a3a1446193b21ca718a716410917e32cfe2c1164089f0375daaf3c4c64736f6c63430008060033",
  "devdoc": {
    "kind": "dev",
    "methods": {
      "allowance(address,address)": {
        "details": "See {IERC20-allowance}."
      },
      "approve(address,uint256)": {
        "details": "See {IERC20-approve}. Requirements: - `spender` cannot be the zero address."
      },
      "balanceOf(address)": {
        "details": "See {IERC20-balanceOf}."
      },
      "decimals()": {
        "details": "Returns the number of decimals used to get its user representation. For example, if `decimals` equals `2`, a balance of `505` tokens should be displayed to a user as `5.05` (`505 / 10 ** 2`). Tokens usually opt for a value of 18, imitating the relationship between Ether and Wei. This is the value {ERC20} uses, unless this function is overridden; NOTE: This information is only used for _display_ purposes: it in no way affects any of the arithmetic of the contract, including {IERC20-balanceOf} and {IERC20-transfer}."
      },
      "decreaseAllowance(address,uint256)": {
        "details": "Atomically decreases the allowance granted to `spender` by the caller. This is an alternative to {approve} that can be used as a mitigation for problems described in {IERC20-approve}. Emits an {Approval} event indicating the updated allowance. Requirements: - `spender` cannot be the zero address. - `spender` must have allowance for the caller of at least `subtractedValue`."
      },
      "getRoleAdmin(bytes32)": {
        "details": "Returns the admin role that controls `role`. See {grantRole} and {revokeRole}. To change a role's admin, use {_setRoleAdmin}."
      },
      "grantRole(bytes32,address)": {
        "details": "Grants `role` to `account`. If `account` had not been already granted `role`, emits a {RoleGranted} event. Requirements: - the caller must have ``role``'s admin role."
      },
      "hasRole(bytes32,address)": {
        "details": "Returns `true` if `account` has been granted `role`."
      },
      "increaseAllowance(address,uint256)": {
        "details": "Atomically increases the allowance granted to `spender` by the caller. This is an alternative to {approve} that can be used as a mitigation for problems described in {IERC20-approve}. Emits an {Approval} event indicating the updated allowance. Requirements: - `spender` cannot be the zero address."
      },
      "name()": {
        "details": "Returns the name of the token."
      },
      "renounceRole(bytes32,address)": {
        "details": "Revokes `role` from the calling account. Roles are often managed via {grantRole} and {revokeRole}: this function's purpose is to provide a mechanism for accounts to lose their privileges if they are compromised (such as when a trusted device is misplaced). If the calling account had been granted `role`, emits a {RoleRevoked} event. Requirements: - the caller must be `account`."
      },
      "revokeRole(bytes32,address)": {
        "details": "Revokes `role` from `account`. If `account` had been granted `role`, emits a {RoleRevoked} event. Requirements: - the caller must have ``role``'s admin role."
      },
      "supportsInterface(bytes4)": {
        "details": "See {IERC165-supportsInterface}."
      },
      "symbol()": {
        "details": "Returns the symbol of the token, usually a shorter version of the name."
      },
      "totalSupply()": {
        "details": "See {IERC20-totalSupply}."
      },
      "transfer(address,uint256)": {
        "details": "See {IERC20-transfer}. Requirements: - `recipient` cannot be the zero address. - the caller must have a balance of at least `amount`."
      },
      "transferFrom(address,address,uint256)": {
        "details": "See {IERC20-transferFrom}. Emits an {Approval} event indicating the updated allowance. This is not required by the EIP. See the note at the beginning of {ERC20}. Requirements: - `sender` and `recipient` cannot be the zero address. - `sender` must have a balance of at least `amount`. - the caller must have allowance for ``sender``'s tokens of at least `amount`."
      }
    },
    "version": 1
  },
  "userdoc": {
    "kind": "user",
    "methods": {},
    "version": 1
  },
  "storageLayout": {
    "storage": [
      {
        "astId": 2507,
        "contract": "contracts/20-WVC.sol:WVC",
        "label": "_initialized",
        "offset": 0,
        "slot": "0",
        "type": "t_bool"
      },
      {
        "astId": 2510,
        "contract": "contracts/20-WVC.sol:WVC",
        "label": "_initializing",
        "offset": 1,
        "slot": "0",
        "type": "t_bool"
      },
      {
        "astId": 4797,
        "contract": "contracts/20-WVC.sol:WVC",
        "label": "__gap",
        "offset": 0,
        "slot": "1",
        "type": "t_array(t_uint256)50_storage"
      },
      {
        "astId": 3852,
        "contract": "contracts/20-WVC.sol:WVC",
        "label": "_balances",
        "offset": 0,
        "slot": "51",
        "type": "t_mapping(t_address,t_uint256)"
      },
      {
        "astId": 3858,
        "contract": "contracts/20-WVC.sol:WVC",
        "label": "_allowances",
        "offset": 0,
        "slot": "52",
        "type": "t_mapping(t_address,t_mapping(t_address,t_uint256))"
      },
      {
        "astId": 3860,
        "contract": "contracts/20-WVC.sol:WVC",
        "label": "_totalSupply",
        "offset": 0,
        "slot": "53",
        "type": "t_uint256"
      },
      {
        "astId": 3862,
        "contract": "contracts/20-WVC.sol:WVC",
        "label": "_name",
        "offset": 0,
        "slot": "54",
        "type": "t_string_storage"
      },
      {
        "astId": 3864,
        "contract": "contracts/20-WVC.sol:WVC",
        "label": "_symbol",
        "offset": 0,
        "slot": "55",
        "type": "t_string_storage"
      },
      {
        "astId": 4405,
        "contract": "contracts/20-WVC.sol:WVC",
        "label": "__gap",
        "offset": 0,
        "slot": "56",
        "type": "t_array(t_uint256)45_storage"
      },
      {
        "astId": 5046,
        "contract": "contracts/20-WVC.sol:WVC",
        "label": "__gap",
        "offset": 0,
        "slot": "101",
        "type": "t_array(t_uint256)50_storage"
      },
      {
        "astId": 2142,
        "contract": "contracts/20-WVC.sol:WVC",
        "label": "_roles",
        "offset": 0,
        "slot": "151",
        "type": "t_mapping(t_bytes32,t_struct(RoleData)2137_storage)"
      },
      {
        "astId": 2427,
        "contract": "contracts/20-WVC.sol:WVC",
        "label": "__gap",
        "offset": 0,
        "slot": "152",
        "type": "t_array(t_uint256)49_storage"
      },
      {
        "astId": 5539,
        "contract": "contracts/20-WVC.sol:WVC",
        "label": "initialized",
        "offset": 0,
        "slot": "201",
        "type": "t_bool"
      },
      {
        "astId": 5541,
        "contract": "contracts/20-WVC.sol:WVC",
        "label": "version",
        "offset": 1,
        "slot": "201",
        "type": "t_uint32"
      }
    ],
    "types": {
      "t_address": {
        "encoding": "inplace",
        "label": "address",
        "numberOfBytes": "20"
      },
      "t_array(t_uint256)45_storage": {
        "base": "t_uint256",
        "encoding": "inplace",
        "label": "uint256[45]",
        "numberOfBytes": "1440"
      },
      "t_array(t_uint256)49_storage": {
        "base": "t_uint256",
        "encoding": "inplace",
        "label": "uint256[49]",
        "numberOfBytes": "1568"
      },
      "t_array(t_uint256)50_storage": {
        "base": "t_uint256",
        "encoding": "inplace",
        "label": "uint256[50]",
        "numberOfBytes": "1600"
      },
      "t_bool": {
        "encoding": "inplace",
        "label": "bool",
        "numberOfBytes": "1"
      },
      "t_bytes32": {
        "encoding": "inplace",
        "label": "bytes32",
        "numberOfBytes": "32"
      },
      "t_mapping(t_address,t_bool)": {
        "encoding": "mapping",
        "key": "t_address",
        "label": "mapping(address => bool)",
        "numberOfBytes": "32",
        "value": "t_bool"
      },
      "t_mapping(t_address,t_mapping(t_address,t_uint256))": {
        "encoding": "mapping",
        "key": "t_address",
        "label": "mapping(address => mapping(address => uint256))",
        "numberOfBytes": "32",
        "value": "t_mapping(t_address,t_uint256)"
      },
      "t_mapping(t_address,t_uint256)": {
        "encoding": "mapping",
        "key": "t_address",
        "label": "mapping(address => uint256)",
        "numberOfBytes": "32",
        "value": "t_uint256"
      },
      "t_mapping(t_bytes32,t_struct(RoleData)2137_storage)": {
        "encoding": "mapping",
        "key": "t_bytes32",
        "label": "mapping(bytes32 => struct AccessControlUpgradeable.RoleData)",
        "numberOfBytes": "32",
        "value": "t_struct(RoleData)2137_storage"
      },
      "t_string_storage": {
        "encoding": "bytes",
        "label": "string",
        "numberOfBytes": "32"
      },
      "t_struct(RoleData)2137_storage": {
        "encoding": "inplace",
        "label": "struct AccessControlUpgradeable.RoleData",
        "members": [
          {
            "astId": 2134,
            "contract": "contracts/20-WVC.sol:WVC",
            "label": "members",
            "offset": 0,
            "slot": "0",
            "type": "t_mapping(t_address,t_bool)"
          },
          {
            "astId": 2136,
            "contract": "contracts/20-WVC.sol:WVC",
            "label": "adminRole",
            "offset": 0,
            "slot": "1",
            "type": "t_bytes32"
          }
        ],
        "numberOfBytes": "64"
      },
      "t_uint256": {
        "encoding": "inplace",
        "label": "uint256",
        "numberOfBytes": "32"
      },
      "t_uint32": {
        "encoding": "inplace",
        "label": "uint32",
        "numberOfBytes": "4"
      }
    }
  }
}